:040000003CEF01F0E0
:10000800F2A404D0F2AA02D0FAD805D09EAA03D04E
:080018009DAA01D0FAD81100E5
:100020000134083609360450085E0550D8A0053C56
:10003000095E003601360F0E0C6E013408360936A3
:10004000045000A006D0085E0550D8A0053C095E0B
:1000500005D008260550D8B0053C092600360136E3
:100060000C2EEBD700B006D0045008260550D8B0AF
:08007000053C09260000120006
:10007800F250026EF29E0500FF6A0150FE6E0050BB
:08008800FD6E02BEF28E1200B3
:100090000450000A08E10550000A05E1FF0E006E59
:1000A0007F0E016E57D00D6A096A086A0150001070
:1000B000D8B4000C015005180A6E0ABE0D1E0B6A5A
:1000C00005AE05D0041E051E042AD8B4052A01AECB
:1000D00005D0001E011E002AD8B4012A01500510C7
:1000E0000A6E0ABE10D09CDF0BB020D00DAE000C03
:1000F000001E011E002AD8B4012A081E091E082A63
:10010000D8B4092A000C05AE0DD001BE07D00150AD
:10011000096E0050086E016A006AE8D7016A006A39
:10012000002A000C011E001E0B2ADDD7082AD8B4B5
:10013000092A0450085CD8A4D9D70550095CD8A472
:10014000D5D7096A086A002AD8B4012A01AECED7E9
:060150000000FF0C12008C
:100156001650151801E153D016C000F0000E016EBE
:10016600003600900136003600900136170E002446
:10017600E96E000E0120EA6EEE50EE10EE10EE1063
:100186002DE016C000F0000E016E0036009001361C
:10019600003600900136170E0024E96E000E01208D
:1001A600EA6EEECF00F0EECF01F0EECF02F0EECF2A
:1001B60003F05FDF16C000F0000E016E00360090FF
:1001C6000136003600900136170E0024E16E000E4F
:1001D6000120E26EE66AE66AE66AE66A1650010FF2
:1001E600006E016A000E01220A0E046E000E056EF4
:1001F6004CDF08C000F009C001F000C016F0120084
:0C0206000B0ED76EDC0ED66EF2941200C8
:040212009E9A12009E
:10021600FF0E966E96CF95FF95CF94FF94CF93FFE2
:1002260093CF92FF8D6A8DCF8CFF8CCF8BFF8BCFB8
:100236008AFF8ACF89FFC06AC0CFC1FFC1CFC2FF84
:0E024600789E78BE02D0799E01D0798E12008B
:100254000900F5CFE6FF0006FBE10106F9E1120013
:10026400D09EF28EF2BE02D0F29C01D0F28C71DFED
:04027400FED712009F
:0A02780056EC01F0CCDFF2DFFFD7F7
:1002AC0010EE15F02A0E006E010E016E820EF66E27
:0E02BC00020EF76E000EF86E2AEC01F0120032
:10028200000000000000000000000000000000006C
:10029200000000000000000000000000000000005C
:0A02A2000000000000000000000052
:020000040030CA
:0D000100231F3CFFBD81FF0FC00FE00F402B
:00000001FF
