:0400000061EF18F0A4
:020006001200E6
:1000080000C01FF001C01EF002C01DF004C01CF0AB
:1000180005C01BF008C01AF009C019F00AC018F092
:100028000BC017F00CC016F00DC015F0D9CF22F098
:10003800DACF23F0E1CF20F0E2CF21F0F2A405D00F
:10004800F2AA03D0A3EC17F006D09EAA04D09DAA6A
:1000580002D00BEC18F01FC000F01EC001F01DC04C
:1000680002F01CC004F01BC005F01AC008F019C04B
:1000780009F018C00AF017C00BF016C00CF015C034
:100088000DF020C0E1FF21C0E2FF22C0D9FF23C04C
:04009800DAFF11007A
:10009C000F0E0C6E470E0D6E0D2EFED70C2EFCD7D0
:0600AC000000000012003C
:0600B20000000000120036
:0A00B800210E0D6E0D2EFED7120072
:1000C2000B1E0A1E091E081E082AD8B4092AD8B413
:0800D2000A2AD8B40B2A12001F
:1000DA000450085E0550D8A0053C095E0650D8A019
:1000EA00063C0A5E0750D8A0073C0B5E0336070E93
:1000FA000C6E0334083609360A360B36045003A050
:10010A000ED0085E0550D8A0053C095E0650D8A05E
:10011A00063C0A5E0750D8A0073C0B5E0DD00826A5
:10012A000550D8B0053C09260650D8B0063C0A2628
:10013A000750D8B0073C0B2603360C2EDAD7023408
:10014A00083609360A360B36045003A00ED0085E6C
:10015A000550D8A0053C095E0650D8A0063C0A5EA8
:10016A000750D8A0073C0B5E0DD008260550D8B022
:10017A00053C09260650D8B0063C0A260750D8B0D6
:10018A00073C0B260236070E0C6E02340836093677
:10019A000A360B36045002A00ED0085E0550D8A0CD
:1001AA00053C095E0650D8A0063C0A5E0750D8A056
:1001BA00073C0B5E0DD008260550D8B0053C092631
:1001CA000650D8B0063C0A260750D8B0073C0B2682
:1001DA0002360C2EDAD70134083609360A360B36BF
:1001EA00045002A00ED0085E0550D8A0053C095E56
:1001FA000650D8A0063C0A5E0750D8A0073C0B5E02
:10020A000DD008260550D8B0053C09260650D8B0AE
:10021A00063C0A260750D8B0073C0B260136070EC3
:10022A000C6E0134083609360A360B36045001A022
:10023A000ED0085E0550D8A0053C095E0650D8A02D
:10024A00063C0A5E0750D8A0073C0B5E0DD0082674
:10025A000550D8B0053C09260650D8B0063C0A26F7
:10026A000750D8B0073C0B2601360C2EDAD70034DB
:10027A00083609360A360B36045001A00ED0085E3D
:10028A000550D8A0053C095E0650D8A0063C0A5E77
:10029A000750D8A0073C0B5E0DD008260550D8B0F1
:1002AA00053C09260650D8B0063C0A260750D8B0A5
:1002BA00073C0B260036070E0C6E0034083609364A
:1002CA000A360B36045000A00ED0085E0550D8A09E
:1002DA00053C095E0650D8A0063C0A5E0750D8A025
:1002EA00073C0B5E0DD008260550D8B0053C092600
:1002FA000650D8B0063C0A260750D8B0073C0B2651
:10030A0000360C2EDAD700B00ED00450082605505D
:10031A00D8B0053C09260650D8B0063C0A26075034
:08032A00D8B0073C0B261200BD
:10033200010149BF02D08A9601D08A8649BD02D006
:100342008A9401D08A8449BB02D08A9201D08A82DF
:1003520049B902D08A9001D08A800001C2B102D08C
:100362008A8801D08A988A8AA3DE8A9A010149B7CB
:1003720002D08A9601D08A8649B502D08A9401D0E9
:100382008A8449B302D08A9201D08A8249B102D0CA
:100392008A9001D08A800001C2B102D08A8801D03D
:1003A2008A988A8A85DE8A9AC2A102D076DE01D034
:0403B20082DE1200D5
:1003B6000450000A12E10550000A0FE10650000A37
:1003C6000CE10750000A09E1FF0E006EFF0E016EF8
:1003D600FF0E026E7F0E036E97D00C6A07BE0C2AC4
:1003E6000D6A0B6A0A6A096A086A0350021001104C
:1003F6000010D8B484D0035007180E6E0EBE0D1E22
:1004060007AE0BD0041E051E061E071E042AD8B40E
:10041600052AD8B4062AD8B4072A03AE0BD0001E84
:10042600011E021E031E002AD8B4012AD8B4022ACD
:10043600D8B4032A035007100E6E0EBE1CD04ADE37
:100446000CBE36D00DAE5BD0001E011E021E031E72
:10045600002AD8B4012AD8B4022AD8B4032A081E1E
:10046600091E0A1E0B1E082AD8B4092AD8B40A2A5D
:10047600D8B40B2A44D007AE15D003BE0DD0035016
:100486000B6E02500A6E0150096E0050086E036A28
:10049600026A016A006AD6D7036A026A016A006ABA
:1004A600002A000C031E021E011E001E0C8EC7D75A
:1004B600082AD8B4092AD8B40A2AD8B40B2A045070
:1004C600085CD8A4BFD70550095CD8A4BBD7065092
:1004D6000A5CD8A4B7D707500B5CD8A4B3D70B6A6D
:1004E6000A6A096A086A002AD8B4012AD8B4022A14
:1004F600D8B4032A03AEA6D70E6A0E88FF0C0E6A7E
:0A0506000CA001D0DBDD000F120095
:080510000AAE029E000E12006B
:0E051800026A016A006A086A036A000E120095
:100526000B840BAE9EEF02F0010E036E026A016AA7
:0A053600006A0A360232FF0E1200BE
:10054000400E006E1F0E016E000E026E036E120052
:100550000B6A0A6A096A086A0E6A0334083604508C
:10056000085E0550D8A0053C095E0650D8A0063CA0
:100570000A5E0750D8A0073C0B5EE86AD8A0010EBF
:100580000E5E0336070E0C6E0334083609360A3643
:100590000B360E36045003A012D0085E0550D8A0CA
:1005A000053C095E0650D8A0063C0A5E0750D8A05C
:1005B000073C0B5EE86AD8A0010E0E5E11D008263B
:1005C0000550D8B0053C09260650D8B0063C0A268E
:1005D0000750D8B0073C0B26E86AD8B0010E0E26AB
:1005E00003360C2ED1D70234083609360A360B36BC
:1005F0000E36045003A012D0085E0550D8A0053C6A
:10060000095E0650D8A0063C0A5E0750D8A0073CF9
:100610000B5EE86AD8A0010E0E5E11D008260550C8
:10062000D8B0053C09260650D8B0063C0A2607502B
:10063000D8B0073C0B26E86AD8B0010E0E26023669
:10064000070E0C6E0234083609360A360B360E36A3
:10065000045002A012D0085E0550D8A0053C095EE7
:100660000650D8A0063C0A5E0750D8A0073C0B5E97
:10067000E86AD8A0010E0E5E11D008260550D8B049
:10068000053C09260650D8B0063C0A260750D8B0CB
:10069000073C0B26E86AD8B0010E0E2602360C2E57
:1006A000D1D70134083609360A360B360E360450D7
:1006B00002A012D0085E0550D8A0053C095E065085
:1006C000D8A0063C0A5E0750D8A0073C0B5EE86A3B
:1006D000D8A0010E0E5E11D008260550D8B0053CFA
:1006E00009260650D8B0063C0A260750D8B0073C69
:1006F0000B26E86AD8B0010E0E260136070E0C6EE6
:100700000134083609360A360B360E36045001A07D
:1007100012D0085E0550D8A0053C095E0650D8A04E
:10072000063C0A5E0750D8A0073C0B5EE86AD8A0DA
:10073000010E0E5E11D008260550D8B0053C0926E2
:100740000650D8B0063C0A260750D8B0073C0B2606
:10075000E86AD8B0010E0E2601360C2ED1D700342F
:10076000083609360A360B360E36045001A012D070
:10077000085E0550D8A0053C095E0650D8A0063C8E
:100780000A5E0750D8A0073C0B5EE86AD8A0010EAD
:100790000E5E11D008260550D8B0053C092606503B
:1007A000D8B0063C0A260750D8B0073C0B26E86AAA
:1007B000D8B0010E0E260036070E0C6E0034083637
:1007C00009360A360B360E36045000A012D0085EE9
:1007D0000550D8A0053C095E0650D8A0063C0A5E2C
:1007E0000750D8A0073C0B5EE86AD8A0010E0E5E49
:1007F00011D008260550D8B0053C09260650D8B0BF
:10080000063C0A260750D8B0073C0B26E86AD8B049
:10081000010E0E2600360C2ED1D700B00ED004509B
:1008200008260550D8B0053C09260650D8B0063C2D
:0C0830000A260750D8B0073C0B26120027
:10083C00086A096A100E0C6E013408360936045029
:10084C00085E0550D8A0053C095ED8B007D004500E
:10085C0008260550D8B0053C0926D890003601363C
:06086C000C2EEAD7120079
:10087200220E0C6E086A096A0A6A0B6A0C06D8B460
:100882001FD0D8900B320A320932083203320232B8
:1008920001320032D8A0F2D70C06D8B409D00450E5
:1008A20008260550092206500A2207500B22EAD7D1
:1008B200045008260550092206500A2207500B222E
:0208C200120022
:1008C40001014907490749C101F0490701500008DE
:1008D40003E200000000F7D7000000000000000061
:0408E40000001200FE
:1008E8000B820BAE7EEF04F00368026801680068B3
:0808F8000A360232FF0E120065
:080900000B6A0B86FF0E1200CA
:100908000E0E0101436F800E4019006E800E005CD0
:1009180008E1000E3F5D05E1000E3E5D02E1000EBC
:100928003D5D03E2010E006E01D0006A00C042F195
:10093800005214E0006A016A026A036A3D51005ECF
:100948003E51015A3F51025A4051035A00C03DF1ED
:1009580001C03EF102C03FF103C040F1020E415D0B
:1009680009E34151100806E33D513E113F11401182
:1009780001E005D0240E006E000E016E81D04251B8
:100988004325006E016A000E0122004A012AEA0E80
:100998000024E16E000E0120E26EE66A01013D517D
:1009A8003E113F11401151E043534FE0425143255E
:1009B800006E016A000E0122EA0E0024446F000E48
:1009C8000120456F41C104F0000E056E066E076EEA
:1009D8003DC100F03EC101F03FC102F040C103F04B
:1009E800E6DC08C000F009C001F00AC002F00BC044
:1009F80003F06A0E0024F66E310E0120F76E000E29
:100A08000220F86E0900F5CF00F044C1E1FF45C1AE
:100A1800E2FF00C0E6FF0101430741C104F0000EF8
:100A2800056E066E076E3DC100F03EC101F03FC184
:100A380002F040C103F0BBDC00C03DF101C03EF153
:100A480002C03FF103C040F1A9D7010142530EE0B3
:100A58004351010F006E016A000E0122EA0E0024C4
:100A6800E16E000E0120E26E2D0EE66E4351010F7D
:100A7800006E016A000E0122EA0E0026000E012215
:020A880012005A
:0E0A8A000001C2913DC149F14FDCC281120052
:100A98000C6A0E6A0250D8A465EF05F001C002F096
:100AA80000C001F0006A0E860250D8A465EF05F078
:100AB80001C002F0016A0E960E880250D8B477EF92
:100AC80005F00E50035ED8A4D8A07CEF05F0D890AE
:100AD80002BE81EF05F0003601360236032E6CEFB8
:100AE80005F07CEF05F0010E0C6E12DD84EF05F0C9
:100AF800020E0C6E14DD84EF05F0040E0C6E04DD9E
:020B08001200D9
:0C0B0A000E0E0D6E0D2EFED70000120026
:100B160014DDE80E046E030E056E000E066E076EFB
:100B2600A5DE00C045F101C046F102C047F103C091
:100B360048F13DC104F03EC105F0000E066E076E99
:100B460004DD00C045F101C046F102C047F103C013
:100B560048F100C005F001C006F002C007F003C06E
:100B660008F00832073206320532089E083207328C
:100B760006320532089E05C000F006C001F007C027
:100B860002F008C003F00332023201320032039E43
:100B960000C041F101C042F1D0DC3FC104F040C1C8
:100BA60005F0000E066E076E61DE41C109F042C116
:100BB6000AF0000E0B6E0C6E030E086E09C004F0F0
:100BC6000AC005F00BC006F00CC007F0085007E09D
:100BD60004360490053606360736FF0FF8D7B5DC1F
:100BE60000C045F101C046F102C047F103C048F11B
:100BF6000A0E046E000E056E41C100F042C101F0FE
:100C06001ADE00C041F101C042F1000E015C02E1B2
:100C1600030E005C01E247D0FBC0E9FFFCC0EAFF1F
:100C260001014851000808E14751000805E1465115
:100C3600000802E14551000833E20001FE51EF12BF
:100C4600010142530DE0436B446B000E445D02E12B
:100C56004251435D05E2496B32DE434B442BF5D7E7
:100C660041C149F12CDE0001FD51EF16010142534D
:100C76000DE0436B446B000E445D02E14251435D5F
:100C860005E2496B1CDE434B442BF5D741C149F1C4
:100C960016DE010E455F000E465B475B485BC0D71C
:080CA6000001FD51EF161200E0
:100CAE000134083609360450085E0550D8A0053CBC
:100CBE00095E003601360F0E0C6E01340836093609
:100CCE00045000A006D0085E0550D8A0053C095E71
:100CDE0005D008260550D8B0053C09260036013649
:100CEE000C2EEBD700B006D0045008260550D8B015
:080CFE00053C0926000012006C
:100D0600700E01013D6F030E3E6F770E3F6F010EB1
:100D1600406FFEDE040E0B6ED10E0C6E9B0E0D6E3A
:100D26000D2EFED70C2EFCD70B2EFAD7700E010116
:100D36003D6F030E3E6F770E3F6F010E406FE8DE8C
:100D4600040E0B6ED10E0C6E9B0E0D6E0D2EFED785
:100D56000C2EFCD70B2EFAD7700E01013D6F030E39
:100D66003E6F770E3F6F010E406FD2DE040E0B6EA4
:100D7600D10E0C6E9B0E0D6E0D2EFED70C2EFCD7D3
:100D86000B2EFAD7BA0E01013D6F020E3E6F180EFA
:100D96003F6F010E406FBCDE030E0B6EDA0E0C6E5B
:100DA600DB0E0D6E0D2EFED70C2EFCD70B2EFAD7B2
:100DB600160E01013D6F040E3E6F5D0E3F6F000E75
:100DC600406FA6DEF50E0C6E260E0D6E0D2EFED7AE
:100DD6000C2EFCD70000700E01013D6F030E3E6F16
:100DE600770E3F6F010E406F93DE040E0B6ED10E31
:100DF6000C6E9B0E0D6E0D2EFED70C2EFCD70B2EF9
:100E0600FAD7BA0E01013D6F020E3E6F180E3F6F04
:100E1600010E406F7DDE030E0B6EDA0E0C6EDB0EDE
:100E26000D6E0D2EFED70C2EFCD70B2EFAD7160EF6
:100E360001013D6F040E3E6F5D0E3F6F000E406F69
:100E460067DEF50E0C6E260E0D6E0D2EFED70C2EE1
:100E5600FCD70000700E01013D6F030E3E6FEE0ED3
:100E66003F6F020E406F54DE080E0B6E9F0E0C6E27
:100E76009F0E0D6E0D2EFED70C2EFCD70B2EFAD71D
:100E8600260E01013D6F050E3E6F770E3F6F010E78
:100E9600406F3EDE040E0B6ED10E0C6E9B0E0D6E79
:100EA6000D2EFED70C2EFCD70B2EFAD7260E0101DF
:100EB6003D6F050E3E6F770E3F6F010E406F28DEC9
:100EC600040E0B6ED10E0C6E9B0E0D6E0D2EFED704
:100ED6000C2EFCD70B2EFAD7260E01013D6F050E00
:100EE6003E6F770E3F6F010E406F12DE040E0B6EE3
:100EF600D10E0C6E9B0E0D6E0D2EFED70C2EFCD752
:100F06000B2EFAD7740E01013D6F050E3E6F180EBB
:100F16003F6F010E406FFCDD030E0B6EDA0E0C6E9A
:100F2600DB0E0D6E0D2EFED70C2EFCD70B2EFAD730
:100F3600160E01013D6F040E3E6F5D0E3F6F000EF3
:100F4600406FE6DDF50E0C6E260E0D6E0D2EFED7ED
:100F56000C2EFCD700003E0E01013D6F030E3E6FC6
:100F6600770E3F6F010E406FD3DD040E0B6ED10E70
:100F76000C6E9B0E0D6E0D2EFED70C2EFCD70B2E77
:100F8600FAD7BA0E01013D6F020E3E6F180E3F6F83
:100F9600010E406FBDDD030E0B6EDA0E0C6EDB0E1E
:100FA6000D6E0D2EFED70C2EFCD70B2EFAD7160E75
:100FB60001013D6F040E3E6F5D0E3F6F000E406FE8
:100FC600A7DDF50E0C6E260E0D6E0D2EFED70C2E21
:100FD600FCD70000700E01013D6F030E3E6FEE0E52
:100FE6003F6F020E406F94DD080E0B6E9F0E0C6E67
:100FF6009F0E0D6E0D2EFED70C2EFCD70B2EFAD79C
:10100600E00E01013D6F060E3E6F770E3F6F010E3B
:10101600406F7EDD040E0B6ED10E0C6E9B0E0D6EB8
:101026000D2EFED70C2EFCD70B2EFAD7700E010113
:101036003D6F030E3E6F180E3F6F010E406F68DD69
:10104600030E0B6EDA0E0C6EDB0E0D6E0D2EFED73A
:101056000C2EFCD70B2EFAD7700E01013D6F030E36
:101066003E6F5D0E3F6F000E406F52DDF50E0C6E4B
:10107600260E0D6E0D2EFED70C2EFCD70000E00EB0
:1010860001013D6F060E3E6F770E3F6F010E406FFA
:101096003FDD040E0B6ED10E0C6E9B0E0D6E0D2EEB
:1010A600FED70C2EFCD70B2EFAD77D0E01013D6F15
:1010B600060E3E6F180E3F6F010E406F29DD030EC0
:1010C6000B6EDA0E0C6EDB0E0D6E0D2EFED70C2E91
:1010D600FCD70B2EFAD71F0E01013D6F060E3E6F91
:1010E6005D0E3F6F000E406F13DDF50E0C6E260E83
:1010F6000D6E0D2EFED70C2EFCD70000C70E01017B
:101106003D6F050E3E6F5D0E3F6F000E406F00DDBA
:10111600F50E0C6E260E0D6E0D2EFED70C2EFCD780
:101126000000260E01013D6F050E3E6F5D0E3F6FFE
:10113600000E406FEDDCF50E0C6E260E0D6E0D2EBC
:10114600FED70C2EFCD70000740E01013D6F050E74
:101156003E6FBB0E3F6F000E406FDADC020E0B6E69
:10116600E90E0C6E4C0E0D6E0D2EFED70C2EFCD716
:101176000B2EFAD70000020E0B6EE90E0C6E4C0E0B
:101186000D6E0D2EFED70C2EFCD70B2EFAD70000B7
:10119600A40E01013D6F030E3E6FBB0E3F6F000EA6
:1011A600406FB6DC020E0B6EE90E0C6E4C0E0D6E29
:1011B6000D2EFED70C2EFCD70B2EFAD70000DC0E18
:1011C60001013D6F040E3E6F770E3F6F010E406FBB
:1011D6009FDC040E0B6ED10E0C6E9B0E0D6E0D2E4B
:1011E600FED70C2EFCD70B2EFAD7960E01013D6FBB
:1011F600040E3E6F180E3F6F010E406F89DC030E22
:101206000B6EDA0E0C6EDB0E0D6E0D2EFED70C2E4F
:10121600FCD70B2EFAD7540E01013D6F040E3E6F1C
:101226005D0E3F6F000E406F73DCF50E0C6E260EE2
:101236000D6E0D2EFED70C2EFCD70000160E0101EA
:101246003D6F040E3E6F5D0E3F6F000E406F60DC1B
:10125600F50E0C6E260E0D6E0D2EFED70C2EFCD73F
:101266000000DB0E01013D6F030E3E6F5D0E3F6F0A
:10127600000E406F4DDCF50E0C6E260E0D6E0D2E1B
:10128600FED70C2EFCD70000160E01013D6F040E92
:101296003E6FBB0E3F6F000E406F3ADC020E0B6EC8
:1012A600E90E0C6E4C0E0D6E0D2EFED70C2EFCD7D5
:1012B6000B2EFAD70000020E0B6EE90E0C6E4C0ECA
:1012C6000D6E0D2EFED70C2EFCD70B2EFAD7000076
:1012D600BA0E01013D6F020E3E6FBB0E3F6F000E50
:1012E600406F16DC020E0B6EE90E0C6E4C0E0D6E88
:1012F6000D2EFED70C2EFCD70B2EFAD700003E0E75
:1013060001013D6F030E3E6F770E3F6F010E406F7A
:101316008BEC05F0040E0B6ED10E0C6E9B0E0D6E53
:101326000D2EFED70C2EFCD70B2EFAD7BA0E0101C6
:101336003D6F020E3E6F180E3F6F010E406F8BEC35
:1013460005F0030E0B6EDA0E0C6EDB0E0D6E0D2E17
:10135600FED70C2EFCD70B2EFAD7700E01013D6F6F
:10136600030E3E6F5D0E3F6F000E406F8BEC05F077
:10137600F50E0C6E260E0D6E0D2EFED70C2EFCD71E
:101386000000160E01013D6F040E3E6F770E3F6F93
:10139600010E406F8BEC05F0040E0B6ED10E0C6E39
:1013A6009B0E0D6E0D2EFED70C2EFCD70B2EFAD7EC
:1013B600700E01013D6F030E3E6F180E3F6F010E5A
:1013C600406F8BEC05F0030E0B6EDA0E0C6EDB0E27
:1013D6000D6E0D2EFED70C2EFCD70B2EFAD7160E41
:1013E60001013D6F040E3E6F5D0E3F6F000E406FB4
:1013F6008BEC05F0F50E0C6E260E0D6E0D2EFED73F
:101406000C2EFCD70000260E01013D6F050E3E6F27
:10141600EE0E3F6F020E406F8BEC05F0080E0B6E62
:101426009F0E0C6E9F0E0D6E0D2EFED70C2EFCD74A
:101436000B2EFAD7E00E01013D6F060E3E6F770EBA
:101446003F6F010E406F8BEC05F0040E0B6ED10E54
:101456000C6E9B0E0D6E0D2EFED70C2EFCD70B2E92
:10146600FAD7700E01013D6F030E3E6F180E3F6FE7
:10147600010E406F8BEC05F0030E0B6EDA0E0C6E50
:10148600DB0E0D6E0D2EFED70C2EFCD70B2EFAD7CB
:10149600700E01013D6F030E3E6F5D0E3F6F000E35
:1014A600406F8BEC05F0F50E0C6E260E0D6E0D2EB4
:1014B600FED70C2EFCD70000E00E01013D6F060E94
:1014C6003E6F770E3F6F010E406F8BEC05F0040EFA
:1014D6000B6ED10E0C6E9B0E0D6E0D2EFED70C2EC6
:1014E600FCD70B2EFAD77D0E01013D6F060E3E6F1F
:1014F600180E3F6F010E406F8BEC05F0030E0B6E5E
:10150600DA0E0C6EDB0E0D6E0D2EFED70C2EFCD7F2
:101516000B2EFAD71F0E01013D6F060E3E6F5D0EB4
:101526003F6F000E406F8BEC05F0F50E0C6E260E2D
:101536000D6E0D2EFED70C2EFCD70000C70E010136
:101546003D6F050E3E6F5D0E3F6F000E406F8BECDC
:1015560005F0F50E0C6E260E0D6E0D2EFED70C2E1A
:10156600FCD70000260E01013D6F050E3E6F5D0E95
:101576003F6F000E406F8BEC05F0F50E0C6E260EDD
:101586000D6E0D2EFED70C2EFCD70000740E010139
:101596003D6F050E3E6FBB0E3F6F000E406F8BEC2E
:1015A60005F0020E0B6EE90E0C6E4C0E0D6E0D2E36
:1015B600FED70C2EFCD70B2EFAD70000020E0B6EB0
:1015C600E90E0C6E4C0E0D6E0D2EFED70C2EFCD7B2
:1015D6000B2EFAD70000A40E01013D6F030E3E6FDD
:1015E600BB0E3F6F000E406F8BEC05F0020E0B6ECC
:1015F600E90E0C6E4C0E0D6E0D2EFED70C2EFCD782
:101606000B2EFAD70000DC0E01013D6F040E3E6F73
:10161600770E3F6F010E406F8BEC05F0040E0B6EDC
:10162600D10E0C6E9B0E0D6E0D2EFED70C2EFCD71A
:101636000B2EFAD7960E01013D6F040E3E6F180E63
:101646003F6F010E406F8BEC05F0030E0B6EDA0E4A
:101656000C6EDB0E0D6E0D2EFED70C2EFCD70B2E50
:10166600FAD7540E01013D6F040E3E6F5D0E3F6FBB
:10167600000E406F8BEC05F0F50E0C6E260E0D6E0F
:101686000D2EFED70C2EFCD70000160E01013D6F65
:10169600040E3E6F5D0E3F6F000E406F8BEC05F043
:1016A600F50E0C6E260E0D6E0D2EFED70C2EFCD7EB
:1016B6000000DB0E01013D6F030E3E6F5D0E3F6FB6
:1016C600000E406F8BEC05F0F50E0C6E260E0D6EBF
:1016D6000D2EFED70C2EFCD70000160E01013D6F15
:1016E600040E3E6FBB0E3F6F000E406F8BEC05F095
:1016F600020E0B6EE90E0C6E4C0E0D6E0D2EFED705
:101706000C2EFCD70B2EFAD70000020E0B6EE90E3C
:101716000C6E4C0E0D6E0D2EFED70C2EFCD70B2E1E
:10172600FAD70000BA0E01013D6F020E3E6FBB0EE6
:101736003F6F000E406F8BEC05F0020E0B6EE90E4C
:101746000C6E4C0E0D6E0D2EFED70C2EFCD70B2EEE
:10175600FAD700003E0E01013D6F030E3E6F770E75
:101766003F6F010E406F8BEC05F0040E0B6ED10E31
:101776000C6E9B0E0D6E0D2EFED70C2EFCD70B2E6F
:10178600FAD7BA0E01013D6F020E3E6F180E3F6F7B
:10179600010E406F8BEC05F0030E0B6EDA0E0C6E2D
:1017A600DB0E0D6E0D2EFED70C2EFCD70B2EFAD7A8
:1017B600160E01013D6F040E3E6F5D0E3F6F000E6B
:1017C600406F8BEC05F0F50E0C6E260E0D6E0D2E91
:1017D600FED70C2EFCD70000700E01013D6F030EE4
:1017E6003E6F770E3F6F010E406F8BEC05F0040ED7
:1017F6000B6ED10E0C6E9B0E0D6E0D2EFED70C2EA3
:10180600FCD70B2EFAD7BA0E01013D6F020E3E6FC2
:10181600180E3F6F010E406F8BEC05F0030E0B6E3A
:10182600DA0E0C6EDB0E0D6E0D2EFED70C2EFCD7CF
:101836000B2EFAD7160E01013D6F040E3E6F5D0E9C
:101846003F6F000E406F8BEC05F0F50E0C6E260E0A
:101856000D6E0D2EFED70C2EFCD70000700E01016A
:101866003D6F030E3E6FEE0E3F6F020E406F8BEC28
:1018760005F0080E0B6E9F0E0C6E9F0E0D6E0D2E54
:0C188600FED70C2EFCD70B2EFAD7120058
:10189200086A080E0C6E003408360450085ED8B090
:0E18A20002D00826D89000360C2EF5D7120082
:1018B0000050086E0150006E016A026A036A0B6AEA
:1018C0000C6A960E036E0A6A00C001F008C000F0B0
:0A18D000086A026A4CEC05F01200F1
:1018DA000450000A08E10550000A05E1FF0E006EF7
:1018EA007F0E016E58D00D6A096A086A015000100D
:1018FA00D8B4000C015005180A6E0ABE0D1E0B6AF8
:10190A0005AE05D0041E051E042AD8B4052A01AE68
:10191A0005D0001E011E002AD8B4012A0150051064
:10192A000A6E0ABE10D057EC06F00BB020D00DAEEE
:10193A00000C001E011E002AD8B4012A081E091E26
:10194A00082AD8B4092A000C05AE0DD001BE07D06A
:10195A000150096E0050086E016A006AE8D7016AF0
:10196A00006A002A000C011E001E0B2ADDD7082A75
:10197A00D8B4092A0450085CD8A4D9D70550095C00
:10198A00D8A4D5D7096A086A002AD8B4012A01AEB0
:08199A00CED70000FF0C120083
:1019A2000450000A12E10550000A0FE10650000A35
:1019B2000CE10750000A09E1FF0E006EFF0E016EF6
:1019C2007F0E026EFF0E036EA8D0086A096A0750E6
:1019D200D8B47CEF0DF00350D8B481EF0DF0025073
:1019E20006180A6E028E068E0E6A02C008F001C048
:1019F2000CF000C00DF004500D5E0550D8A0053C5F
:101A02000C5E0650D8A0063C085E086A0C6A0D6A95
:101A1200D8A013EF0DF0D890023201320032083212
:101A2200010E0E6E0750035ED8A020EF0DF07E0E61
:101A32000E240326D8B086EF0DF026EF0DF07E0EB1
:101A42000E240326D8A08BEF0DF0180E0B6E0D3668
:101A52000C3608360036013602360E360450005E69
:101A62000550D8A0053C015E0650D8A0063C025E97
:101A720006340E120EA041EF0DF00D804CEF0DF06A
:101A8200045000260550D8B0053C01260650D8B0B7
:101A9200062802260D900B2E28EF0DF072EF0DF0A6
:101AA200D8900036013602360E360450005E0550DC
:101AB200D8A0053C015E0650D8A0063C025E063462
:101AC2000E10010B0D26D8B00C2AD8B4082AD8A4BF
:101AD20072EF0DF008320C320D32032AD8B486EFC1
:101AE2000DF00AAE089E0850026E0C50016E0D50A9
:101AF200006E8EEF0DF0010E80EC04F08EEF0DF013
:101B0200020E8CEC02F08EEF0DF0040E74EC04F079
:0C1B12008EEF0DF0080E93EC02F01200B4
:101B1E00086A096A000E0762036414EF0EF00250A1
:101B2E0006180A6E075003267E0ED8A0A5EF0DF0FC
:101B3E00035ED8B019EF0EF0A9EF0DF0035ED8A03A
:101B4E001EEF0EF0028E068E02C00EF001C00BF0DC
:101B5E0000C00DF000500402F4CF0CF0015005024D
:101B6E00F4CF00F0F3CF08F00402F3500C26F4503B
:101B7E000822000E00220D500502F3500C26F450E0
:101B8E000822000E002202500402F3500826F450E0
:101B9E00002202500502016A000E0122F3500026B7
:101BAE00F45001220D500602F3500826F450002284
:101BBE00026A000E012202220B500602F35000268A
:101BCE00F4500122000E02220E500602F35001269E
:101BDE00F450022202BEFCEF0DF00836003601363C
:101BEE0002360306D8B41EEF0EF00FEF0EF0D880BB
:101BFE00800E08640030000E002201220222D8A0BE
:101C0E000FEF0EF0023201320032034A19EF0EF0DE
:101C1E000AAE029E000E21EF0EF0010E8CEC02F0C9
:101C2E0021EF0EF0020E74EC04F021EF0EF0040E14
:061C3E0093EC02F012001D
:101C44000101236B23512125E96E000E2221EA6E46
:101C5400EE520DE023512125E96E000E2221EA6E99
:101C6400EECF3DF145EC05F00101232BEBD712003B
:101C7400C30EC21621C100F0003600900036009059
:101C84000050C21285EC05F0C282C2A201D0FDD779
:101C9400C4CF01F0006AC3500012000E01121200FA
:101CA4000101356B366B376B386B396B3A6B3B6BB9
:101CB4003C6B21C131F122C132F123C133F124C182
:101CC40034F134C100F0000E34BFFF0E036E7F0EFA
:101CD400005C016E01C02CF1FF0E3115286FFF0E60
:101CE4003215296FFF0E33152A6F000E34152B6F32
:101CF4002A8F800E0118006E800E1F0A005C0DE210
:101D0400800E2C19006E800EE90A005C06E3315146
:101D140032113311341101E005D0260E006E000E8D
:101D2400016E80D1800E2C19006E800E170A005CA3
:101D34001BE3170E2C5D006E000E2CBFFF0E016E10
:101D4400000E015A28C135F129C136F12AC137F1F3
:101D54002BC138F1005007E0353735913637373726
:101D64003837FF0FF8D769D0800E2C19006E800E1B
:101D7400000A005C3DE32C511708006E016A000E56
:101D84002CBFFF0E015A28C135F129C136F12AC1F1
:101D940037F12BC138F1005009E03833373336338B
:101DA4003533389F38BD388FFF0FF6D72C51010FCC
:101DB400006E016A000E2CBFFF0E012228C139F10A
:101DC40029C13AF12AC13BF12BC13CF1005007E093
:101DD400393739913A373B373C37FF0FF8D7FF0E85
:101DE4003917FF0E3A17FF0E3B17000E3C1725D08C
:101DF400FF0E2815396FFF0E29153A6FFF0E2A15AD
:101E04003B6F000E2B153C6F2C51010F006E016AC5
:101E1400000E2CBFFF0E012200500008006E01507E
:101E2400000E0156005009E03C333B333A3339335A
:101E34003C9F3CBD3C8FFF0FF6D7DB0E266F000E98
:101E4400276F33AF08D026C1E1FF27C1E2FF2D0E73
:101E5400E66E264B272B000E006E381908E1005061
:101E6400371905E10050361902E13551000A09E13C
:101E740026C1E1FF27C1E2FF300EE66E264B272B79
:101E840025D035C13DF136C13EF137C13FF138C1EE
:101E940040F10A0E416F84EC04F000C02FF101C040
:101EA40030F12FC1E9FF30C1EAFFEE520FE02FC13C
:101EB400E9FF30C1EAFF26C1E1FF27C1E2FFEECF0F
:101EC400E6FF264B272B2F4B302BEBD726C1E1FF08
:101ED40027C1E2FF2E0EE66E264B272B000E006E66
:101EE4003C1908E100503B1905E100503A1902E1A0
:101EF4003951000A09E126C1E1FF27C1E2FF300E92
:101F0400E66E264B272B85D0255305E025C102F02C
:101F1400000E036E0ED0DB0E265D006E000E2759F8
:101F2400016E00500F08006E000600C002F0000EA3
:101F3400036E02C02EF10250070802E2070E2E6F54
:101F44002D6B2E512D5D4AE2030E006E39C105F052
:101F54003AC106F03BC107F03CC108F0005007E06D
:101F640005360590063607360836FF0FF8D739C10F
:101F740000F03AC101F03BC102F03CC103F000366D
:101F84000090013602360336005005260150062221
:101F9400025007220350082205C039F106C03AF165
:101FA40007C03BF108C03CF108C000F0000E08BEB9
:101FB400FF0E036E300E002626C1E1FF27C1E2FFAB
:101FC40000C0E6FF264B272BFF0E3917FF0E3A17EA
:101FD400FF0E3B17000E3C172D2BB3D7010E265FC7
:101FE400000E275B26C1E9FF27C1EAFFEE50300A45
:101FF4000EE1FF0E2625E96EFF0E2721EA6EEE5054
:102004002E0A05E0010E265F000E275BEBD7264B58
:10201400272B26C1E1FF27C1E2FFE66ADB0E006E33
:06202400000E016E120027
:10202A000A6A0350D8A40A800750D8A40A820A5020
:10203A00D8B478EF10F0030AD8B431EF10F00AB030
:10204A002CEF10F006AE76EF10F074EF10F002AE3F
:10205A0074EF10F076EF10F00250800B0A6E029EB9
:10206A000650800B069E0A18D8B442EF10F00A50A8
:10207A00D8B474EF10F076EF10F00750035CD8B4C0
:10208A004CEF10F0D8A068EF10F06EEF10F0065089
:10209A00025CD8B456EF10F0D8A068EF10F06EEFDB
:1020AA0010F00550015CD8B460EF10F0D8A068EFCA
:1020BA0010F06EEF10F00450005CD8B478EF10F016
:1020CA00D8B06EEF10F00A52D8B476EF10F074EF71
:1020DA0010F00A52D8B474EF10F076EF10F0D880EE
:0E20EA001200D8901200D880D8841200120084
:1020F80021C1E9FF22C1EAFFEE500101231905E1E0
:1021080021C100F022C101F010D021C100F022C18C
:1021180001F0214B222B00C0E9FF01C0EAFFEECFFE
:0C21280000F00052E5E1006A016A1200BC
:1021340025C100F001012507005228E021C1E9FF73
:1021440022C1EAFFEE50000A0CE021C1E9FF22C1DE
:10215400EAFF23C1D9FF24C1DAFFEE50DE1801E102
:102164000FD021C1E9FF22C1EAFF23C1D9FF24C155
:10217400DAFFDE50EE5C006E016A000E015A08D0F0
:102184000101214B222B234B242BD2D7006A016A55
:02219400120037
:1021960021C102F022C103F002C000F003C001F029
:1021A600024A032A00C0E9FF01C0EAFFEE5201E03D
:1021B600F3D701012151025C006E22510358016ED2
:0A21C600010E005E000E015A120027
:0A21D000370E006E000E016E1200C3
:1021DA00100E01011F6F000E206F020E115D05E245
:1021EA00800E496F99EC01F005D0C00E0101496FCC
:1021FA0099EC01F0140E01011D6F010E1E6F010111
:10220A0012C100F013C101F0124B132B00C0E9FFF9
:10221A0001C0EAFFEECF00F000C000F10052D8B4CE
:10222A0070D10051250AD8A463D112C1E9FF13C1A4
:10223A00EAFFEECF00F1124B132B30D11DC1E9FF9B
:10224A001EC1EAFFEECF00F0EECF01F000C01BF195
:10225A0001C01CF1020E1D27000E1E2300C021F131
:10226A0001C022F1EADC34D1010E1F5F000E205BAF
:10227A001DC1E9FF1EC1EAFFEECF3DF145EC05F0B5
:10228A0001011D4B1E2B24D11DC1E9FF1EC1EAFF0E
:10229A00EECF3DF1000E40BFFF0E3E6F3F6F406F25
:1022AA00000E3DBFFF0E3E6F3F6F406F0A0E416F3B
:1022BA0084EC04F000C01BF101C01CF11D4B1E2B65
:1022CA0000C021F101C022F1B8DC02D11DC1E9FF31
:1022DA001EC1EAFFEECF3DF1EECF3EF1000E40BF48
:1022EA00FF0E3F6F406F000E3EBFFF0E3F6F406F05
:1022FA000A0E416F84EC04F000C01BF101C01CF10E
:10230A00020E1D27000E1E2300C021F101C022F17A
:10231A0094DCDED01DC1E9FF1EC1EAFFEECF3DF11C
:10232A00EECF3EF1EECF3FF1EECF40F10A0E416F14
:10233A0084EC04F000C01BF101C01CF1040E1D273F
:10234A00000E1E2300C021F101C022F176DCC0D0AC
:10235A0012C1E9FF13C1EAFFEECF00F1124B132BB2
:10236A005CD01DC1E9FF1EC1EAFFEECF3DF1000EB0
:10237A003E6F3F6F406F000E3E6F3F6F406F0A0E19
:10238A00416F84EC04F000C01BF101C01CF11D4B2D
:10239A001E2B00C021F101C022F14FDC47D01DC124
:1023AA00E9FF1EC1EAFFEECF3DF1EECF3EF1000E8E
:1023BA003F6F406F000E3F6F406F0A0E416F84EC13
:1023CA0004F000C01BF101C01CF1020E1D27000E13
:1023DA001E2300C021F101C022F12FDC27D01DC12C
:1023EA00E9FF1EC1EAFFEECF3DF1EECF3EF1EECF9F
:1023FA003FF1EECF40F10A0E416F84EC04F000C0C9
:10240A001BF101C01CF1040E1D27000E1E2300C083
:10241A0021F101C022F111DC09D00051730AA1E0B7
:10242A000051690ABCE000516C0AD9E051D0300E63
:10243A00005D2BE30051390828E312C1E9FF13C1FB
:10244A00EAFFEE50660A21E11DC1E9FF1EC1EAFF5B
:10245A00EECF21F1EECF22F1EECF23F1EECF24F130
:10246A00300E005D256F19DC00C01BF101C01CF1A4
:10247A00040E1D27000E1E2300C021F101C022F107
:10248A0022EC0EF0124B132B08D0010E1F5F000E28
:10249A00205B00C13DF145EC05F01AD00101005165
:1024AA00610AD8B4CBD60051630AD8B4DDD600513C
:1024BA00730AD8B4E9D60051690AD8B407D70051CB
:1024CA006C0AD8B427D70051750AD8B441D7AFD708
:1024DA0001011B511C110BE01BC121F11CC122F18E
:1024EA0055DE00501F5F0150205B1B6B1C6B08D030
:1024FA00010E1F5F000E205B00C13DF145EC05F0A7
:10250A007ED61FC101F020C102F0010E01011F5F3A
:10251A00000E205B800E006E800E0218005C02E145
:10252A000150000805E2200E3D6F45EC05F0E9D7A1
:02253A0012008D
:10253C00020E0101005D05E2800E496F99EC01F07D
:10254C0005D0C00E0101496F99EC01F00101116B2E
:10255C00100E115D07E2200E3D6F45EC05F00101F8
:06256C00112BF6D712004E
:10257200000E0101121902E1000E111934E011C11D
:10258200E9FF12C1EAFFEE522EE013C121F114C19C
:1025920022F100DE00C025F111C121F112C122F1A8
:1025A20013C123F114C124F1C4DD000E011802E1AC
:1025B200000E001805E111C100F012C101F015D0A2
:1025C200010E01011125216F000E1221226F13C18C
:1025D200E9FF14C1EAFFEECF23F18DDD00C011F156
:0C25E20001C012F1C5D7006A016A1200A6
:1025EE0000018F5302E1006A39D011C104F012C10B
:1025FE0005F013C106F014C107F093C000F094C0AB
:10260E0001F095C002F096C003F008DD010ED8B0BF
:10261E00000E006E005207E0905305E1010E906F20
:10262E00010E006E1BD011C104F012C105F013C1D2
:10263E0006F014C107F093C000F094C001F095C0ED
:10264E0002F096C003F0EADC000ED8B0010E006E68
:0E265E00005203E09053D8A4906B006A120063
:10266C000101006BC70E136F000E146F005113277E
:10267C00D8B0142B050E1125D96E000E1221DA6E6E
:10268C006C0E006E070E016EDE500026D8B0012ACB
:10269C00E80E046E030E056E6DEC0CF0300E002689
:1026AC0013C1E1FF14C1E2FF00C0E6FF0101002BE2
:1026BC00C70E136F000E146F00511327D8B0142BD4
:1026CC00050E1125D96E000E1221DA6E6C0E006EFD
:1026DC00070E016EDE500026D8B0012AE80E046EFB
:1026EC00030E056E6DEC0CF008C000F009C001F093
:1026FC00640E046E000E056E6DEC0CF0300E0026B0
:10270C0013C1E1FF14C1E2FF00C0E6FF0101002B81
:10271C00C70E136F000E146F00511327D8B0142B73
:10272C00050E1125D96E000E1221DA6E6C0E006E9C
:10273C00070E016EDE500026D8B0012A640E046E1E
:10274C00000E056E6DEC0CF008C000F009C001F035
:10275C000A0E046E000E056E6DEC0CF0300E0026A9
:10276C0013C1E1FF14C1E2FF00C0E6FF0101002B21
:10277C00C70E136F000E146F00511327D8B0142B13
:10278C00050E1125D96E000E1221DA6E6C0E006E3C
:10279C00070E016EDE500026D8B0012A0A0E046E18
:1027AC00000E056E6DEC0CF008C000F009C001F0D5
:1027BC00300E002613C1E1FF14C1E2FF00C0E6FF9A
:1027CC000101002BC70EE16E000EE26E0051E126F6
:1027DC00D8B0E22A2D0EE66E002BC70E136F000E3A
:1027EC00146F00511327D8B0142B040E1125E96E69
:1027FC00000E1221EA6EEECF00F00A0E046E49ECC8
:10280C000CF0300E002613C1E1FF14C1E2FF00C032
:10281C00E6FF002BC70E136F000E146F0051132729
:10282C00D8B0142B040E1125E96E000E1221EA6E9D
:10283C00EECF00F00A0E046E49EC0CF008C000F06C
:10284C00300E002613C1E1FF14C1E2FF00C0E6FF09
:10285C00002BC70EE16E000EE26E0051E126D8B0DF
:10286C00E22A2D0EE66E002BC70E136F000E146FAE
:10287C0000511327D8B0142B030E1125E96E000E4E
:10288C001221EA6EEECF00F00A0E046E49EC0CF049
:10289C00300E002613C1E1FF14C1E2FF00C0E6FFB9
:1028AC00002BC70E136F000E146F00511327D8B0F6
:1028BC00142B030E1125E96E000E1221EA6EEECFD9
:1028CC0000F00A0E046E49EC0CF008C000F0300E5B
:1028DC00002613C1E1FF14C1E2FF00C0E6FF002B8C
:1028EC00C70EE16E000EE26E0051E126D8B0E22A6E
:1028FC00200EE66E002BC70E136F000E146F0051E6
:10290C001327D8B0142B020E1125E96E000E1221DC
:10291C00EA6EEECF00F00A0E046E49EC0CF0300EAD
:10292C00002613C1E1FF14C1E2FF00C0E6FF002B3B
:10293C00C70E136F000E146F00511327D8B0142B51
:10294C00020E1125E96E000E1221EA6EEECF00F098
:10295C000A0E046E49EC0CF008C000F0300E002694
:10296C0013C1E1FF14C1E2FF00C0E6FF002BC70E4C
:10297C00E16E000EE26E0051E126D8B0E22A3A0E6A
:10298C00E66E002BC70E136F000E146F0051132749
:10299C00D8B0142B010E1125E96E000E1221EA6E2F
:1029AC00EECF00F00A0E046E49EC0CF0300E00264F
:1029BC0013C1E1FF14C1E2FF00C0E6FF002BC70EFC
:1029CC00136F000E146F00511327D8B0142B010E87
:1029DC001125E96E000E1221EA6EEECF00F00A0E00
:1029EC00046E49EC0CF008C000F0300E002613C148
:1029FC00E1FF14C1E2FF00C0E6FF002BC70EE16E41
:102A0C00000EE26E0051E126D8B0E22A3A0EE66ED4
:102A1C00002BC70E136F000E146F00511327D8B084
:102A2C00142B11C1E9FF12C1EAFFEECF00F00A0E20
:102A3C00046E49EC0CF0300E002613C1E1FF14C1FA
:102A4C00E2FF00C0E6FF002BC70E136F000E146FE1
:102A5C0000511327D8B0142B11C1E9FF12C1EAFFA2
:102A6C00EECF00F00A0E046E49EC0CF008C000F03A
:102A7C00300E002613C1E1FF14C1E2FF00C0E6FFD7
:102A8C00002BC70EE16E000EE26E0051E126D8B0AD
:102A9C00E22AE66A002BC70E006E000E016E1200D1
:062AAC0083EC06F01200AD
:102AB200060E0101216F3AEC0EF058EC0CF033C017
:102AC20004F034C005F035C006F036C007F08FECD4
:102AD2000DF00A0E046ED70E056E230E066E820EE0
:082AE200076ED1EC0CF01200AC
:102AEA00E3DF00C009F101C00AF102C00BF103C023
:102AFA000CF1E8EC10F000C011F101C012F1B1DDE7
:102B0A0000C00DF101C00EF100C011F101C012F1B7
:102B1A00910E136F000E146F27DD00C00FF101C074
:102B2A0010F100C0E1FF01C0E2FFE66A01010F4BAC
:102B3A00102B010E116FAD0E126F000E136F0DC127
:102B4A0014F10EC115F1EDEC10F0020E0101116F36
:102B5A00A30E126F000E136F0FC114F110C115F1FD
:102B6A0009C116F10AC117F10BC118F10CC119F10B
:102B7A00DF0E1A6FEDEC10F009C111F10AC112F162
:102B8A000BC113F10CC114F12DDD00520EE0010E40
:102B9A000101116F970E126F000E136FEDEC10F01A
:0C2BAA00020E0101006FC5DC7CDF120090
:102BB600740E0001C36F1C0EC46F210EC56F010E8B
:0E2BC600C66FC26A070EC012C08EC280120017
:102BD40005C1FBF006C1FCF007C101F0010E006E57
:102BE400015004E000360090FF0FFBD700C0FEF058
:102BF400001E00C0FDF0120E01010525E96E000E55
:102C04000621EA6E0050EF16120EE95E0050EF1630
:022C14001200AC
:102C160010D0800E0101056F1AD0C00E056F17D0B7
:102C2600940E056F14D0D40E056F11D0800E056F6B
:102C36000ED001010551010AECE00551020AEDE052
:102C46000551030AEDE00551040AEDE0EFD706054C
:102C5600006E0551002600C005F100C049F199EC4F
:102C660001F0C291FF6BFF5101010725E96E000ECD
:102C76000821EA6EEE520EE00001FF510101072520
:102C8600E96E000E0821EA6EEECF3DF145EC05F047
:0A2C9600FF2BE9D70001C2811200F4
:102CA000939A939893909392939493968A9A8A98EE
:102CB0008A968A948A928A904EEC00F04EEC00F04C
:102CC0004EEC00F08A828A808A8A59EC00F08A9A57
:102CD0004EEC00F08A8A59EC00F08A9A4EEC00F033
:102CE0008A8A59EC00F08A9A4EEC00F08A908A8A1F
:102CF00059EC00F08A9A4EEC00F08A8A59EC00F008
:102D00008A9A8A928A868A8A59EC00F08A9A4EECCC
:102D100000F08A968A808A8A59EC00F08A9A8A9012
:102D20008A8A59EC00F08A9A4EEC00F08A8A59ECB3
:102D300000F08A9A8A808A8A59EC00F08A9A4EECCE
:102D400000F08A908A8A59EC00F08A9A8A868A84EE
:102D50008A828A808A8A59EC00F08A9A4EEC00F0C6
:062D60000001C281120017
:102D6600F250026EF29E0500FF6A0150FE6E0050A0
:082D7600FD6E02BEF28E120098
:102D7E00820E0101056F0F0E066F020E076F23DF25
:102D8E00700E3D6F030E3E6FE80E3F6F030E406FE9
:062D9E008BEC05F01200B1
:102DA4007DDF010E0101496F99EC01F00C0E010168
:102DB400496F99EC01F0010E0101056F050E066FD4
:0C2DC4002A0E076F000E086F24DF1200BB
:102DD0003DC000F0000E016E003600900136003656
:102DE000009001363F0E0024E16E000E0120E26EDD
:102DF0004AC1E6FF4BC1E6FF4CC1E6FF4DC1E6FF0D
:102E00003D50010F006E016A000E0122140E046E87
:102E1000000E056E6DEC0CF008C000F009C001F06A
:102E200000C03DF000503E1812E13E50010F006E10
:102E3000016A000E0122140E046E000E056E6DEC88
:102E40000CF008C000F009C001F000C03EF0120014
:102E5000840ED56E0B0ED76EDC0ED66EF28A120083
:102E60003E503D1801E154D03EC000F0000E016E0E
:102E70000036009001360036009001363F0E0024E7
:102E8000E96E000E0120EA6EEE50EE10EE10EE102C
:102E90002DE03EC000F0000E016E003600900136BD
:102EA0000036009001363F0E0024E96E000E01202E
:102EB000EA6EEECF00F0EECF01F0EECF02F0EECFF3
:102EC00003F051DF3EC000F0000E016E00360090AE
:102ED00001360036009001363F0E0024E16E000EF0
:102EE0000120E26EE66AE66AE66AE66A3E50010F93
:102EF000006E016A000E0122140E046E000E056EB3
:102F00006DEC0CF008C000F009C001F000C03EF00C
:022F10001200AD
:102F1200020E0F013C6F96824DDE01C133F002C1F9
:0C2F220034F003C135F004C136F0120099
:102F2E0001C193F002C194F003C195F004C196F073
:082F3E00010E00018F6F12006B
:102F46003750010F006E00C037F037503B0850E293
:102F5600376A3850010F006E00C038F038503B0811
:102F66003DE2386A3950010F006E00C039F0395021
:102F7600170834E2396A3A50010F006E00C03AF081
:102F86003B04006E016A000E015AB60E0024D96E8B
:102F9600000E0120DA6E3A50DE5C20E2010E3A6E37
:102FA6003B50010F006E00C03BF03B500C0816E290
:102FB600010E3B6E3C50010F006E00C03CF03C52CF
:102FC60003E0010E006E01D0006A005204E11D0EFE
:102FD6000001B76F03D000011C0EB76F060E01018A
:102FE6004A6F000E4B6F000E4C6F000E4D6FEDDEFC
:102FF600EA0E01014A6F2A0E4B6F000E4C6F000E4F
:103006004D6FE3DE0B0ED76EDC0ED66EF294120019
:043016009E9A12006C
:10301A000900F5CFE6FF0006FBE10106F9E112001F
:10302A00D09EF28EF2BE02D0F29C01D0F28C13DF57
:04303A00FED71200AB
:10303E00FF0E966E96CF95FF95CF94FF94CF93FF8C
:10304E0093CF92FF0F013C6B3CCF3BFF3BCF3AFF40
:10305E003ACF39FF39CF38FF8D6A8DCF8CFF8CCFA9
:10306E008BFF8BCF8AFF8ACF89FF89CF60FFC06A23
:10307E00C0CFC1FFC1CFC2FF789E78BE02D0799E6D
:10308E0001D0798E88DE74DEDCDE330E0101016F35
:10309E00330E026F530E036F800E046F33DF000E7C
:1030AE000101016F000E026F200E036F840E046F7C
:0430BE0037DF1200E6
:0A30C200BEEC18F0BBDFB0DFFFD753
:10317C0010EE24F09E0E006E010E016ECC0EF66E5B
:0E318C00300EF76E000EF86E0DEC18F012000B
:0230CC003000D2
:0430CE00302E300070
:0930D20052656164792E2E2E0076
:0430DB0000000000F1
:0630DF00000000010146A3
:1030E50000000000000000000000000000000000DB
:1030F50000000000000000000000000000000000CB
:1031050000000000000000000000000000000000BA
:1031150000000000000000000000000000000000AA
:10312500000000000000000000000000000000009A
:02313500000098
:013137000097
:013138000096
:02313900200074
:04313B000000000090
:0C313F002020202020414C41524D210056
:0A314B00256120253266256343004C
:0931550025612020205B545D007F
:0C315E001F1C1F1E1F1E1F1F1E1F1E1FF8
:10316A0030313233343536373839414243444546B3
:01317A000054
:020000040030CA
:0D000100231F3CFFBD81FF0FC00FE00F402B
:00000001FF
