:0400000024EF02F0F7
:020006001200E6
:1000080000C01FF001C01EF002C01DF004C01CF0AB
:1000180005C01BF008C01AF009C019F00AC018F092
:100028000BC017F00CC016F00DC015F0E1CF20F092
:10003800E2CF21F0F2A404D0F2AA02D05BD905D015
:100048009EAA03D09DAA01D0BBD91FC000F01EC034
:1000580001F01DC002F01CC004F01BC005F01AC05E
:1000680008F019C009F018C00AF017C00BF016C044
:100078000CF015C00DF020C0E1FF21C0E2FF110017
:02008800120064
:10008A000134083609360450085E0550D8A0053CEC
:10009A00095E003601360F0E0C6E01340836093639
:1000AA00045000A006D0085E0550D8A0053C095EA1
:1000BA0005D008260550D8B0053C09260036013679
:1000CA000C2EEBD700B006D0045008260550D8B045
:0800DA00053C0926000012009C
:1000E2000450000A08E10550000A05E1FF0E006E07
:1000F2007F0E016E57D00D6A096A086A015000101E
:10010200D8B4000C015005180A6E0ABE0D1E0B6A07
:1001120005AE05D0041E051E042AD8B4052A01AE78
:1001220005D0001E011E002AD8B4012A0150051074
:100132000A6E0ABE10D0A8DF0BB020D00DAE000CA4
:10014200001E011E002AD8B4012A081E091E082A10
:10015200D8B4092A000C05AE0DD001BE07D001505B
:10016200096E0050086E016A006AE8D7016A006AE7
:10017200002A000C011E001E0B2ADDD7082AD8B463
:10018200092A0450085CD8A4D9D70550095CD8A420
:10019200D5D7096A086A002AD8B4012A01AECED797
:0601A2000000FF0C12003A
:1001A800F250026EF29E0500FF6A0150FE6E00508A
:0801B800FD6E02BEF28E120082
:1001C00034C000F0000E016E00360090013600369B
:1001D00000900136360E0024E16E000E0120E26E22
:1001E00086C0E6FF87C0E6FF88C0E6FF89C0E6FF5D
:1001F0003450010F006E016A000E0122140E046ECD
:10020000000E056E6EDF08C000F009C001F000C0EE
:1002100034F00050351811E13550010F006E016ABD
:10022000000E0122140E046E000E056E5ADF08C087
:0C02300000F009C001F000C035F0120021
:10023C00840ED56E0B0ED76EDC0ED66EF28A1200C3
:10024C003550341801E153D035C000F0000E016E6A
:10025C00003600900136003600900136360E002430
:10026C00E96E000E0120EA6EEE50EE10EE10EE106C
:10027C002DE035C000F0000E016E00360090013606
:10028C00003600900136360E0024E96E000E012077
:10029C00EA6EEECF00F0EECF01F0EECF02F0EECF33
:1002AC0003F07CDF35C000F0000E016E00360090CC
:1002BC000136003600900136360E0024E16E000E39
:1002CC000120E26EE66AE66AE66AE66A3550010FDC
:1002DC00006E016A000E0122140E046E000E056EF3
:1002EC00FADE08C000F009C001F000C035F01200C1
:1002FC002E50010F006E00C02EF02E503B084EE227
:10030C002E6A2F50010F006E00C02FF02F503B08AB
:10031C003BE22F6A3050010F006E00C030F03050BD
:10032C00170832E2306A3150010F006E00C031F014
:10033C003204006E016A000E015A220E0024D96E9E
:10034C00000E0120DA6E3150DE5C1EE2010E316EC1
:10035C003250010F006E00C032F032500C0814E223
:10036C00010E326E3350010F006E00C033F0335269
:10037C0003E0010E006E01D0006A005203E11D0E75
:10038C00236E02D01C0E236E880E0001866F000EA9
:10039C00876F000E886F000E896F0CDF060E000150
:1003AC00866F000E876F000E886F000E896F02DF5C
:0C03BC000B0ED76EDC0ED66EF294120011
:0403C8009E9A1200E7
:1003CC000900F5CFE6FF0006FBE10106F9E112009A
:1003DC00D09EF28EF2BE02D0F29C01D0F28C30DFB5
:0403EC00FED7120026
:1003F000FF0E966E96CF95FF95CF94FF94CF93FF07
:1004000093CF92FF0F013C6B3CCF3BFF3BCF3AFFBA
:100410003ACF39FF39CF38FF8D6A8DCF8CFF8CCF23
:100420008BFF8BCF8AFF8ACF89FF89CF60FFC06A9D
:10043000C0CFC1FFC1CFC2FF789E78BE02D0799EE7
:0804400001D0798EFBDE1200F1
:0A0448005BEC02F0D1DFC6DFFFD746
:1004B60010EE22F0640E006E010E016E520EF66E04
:0E04C600040EF76E000EF86EE6EC01F0120068
:0C0452001F1C1F1E1F1E1F1F1E1F1E1F31
:06045E0000000001014650
:100464000000000000000000000000000000000088
:100474000000000000000000000000000000000078
:100484000000000000000000000000000000000068
:100494000000000000000000000000000000000058
:1004A4000000000000000000000000000000000048
:0204B400000046
:020000040030CA
:0D000100231F3CFFBD81FF0FC00FE00F402B
:00000001FF
