:04000000BEEF1CF043
:1000080000C01FF001C01EF002C01DF004C01CF0AB
:1000180005C01BF008C01AF009C019F00AC018F092
:100028000BC017F00CC016F00DC015F0D9CF22F098
:10003800DACF23F0E1CF20F0E2CF21F0F2A405D00F
:10004800F2AA03D0C3EC1BF006D09EAA04D09DAA46
:1000580002D02CEC1CF01FC000F01EC001F01DC027
:1000680002F01CC004F01BC005F01AC008F019C04B
:1000780009F018C00AF017C00BF016C00CF015C034
:100088000DF020C0E1FF21C0E2FF22C0D9FF23C04C
:04009800DAFF11007A
:0A009C00210E0D6E0D2EFED712008E
:1000A6000450085E0550D8A0053C095E0650D8A04D
:1000B600063C0A5E0750D8A0073C0B5E0336070EC7
:1000C6000C6E0334083609360A360B36045003A084
:1000D6000ED0085E0550D8A0053C095E0650D8A093
:1000E600063C0A5E0750D8A0073C0B5E0DD00826DA
:1000F6000550D8B0053C09260650D8B0063C0A265D
:100106000750D8B0073C0B2603360C2EDAD702343C
:10011600083609360A360B36045003A00ED0085EA0
:100126000550D8A0053C095E0650D8A0063C0A5EDC
:100136000750D8A0073C0B5E0DD008260550D8B056
:10014600053C09260650D8B0063C0A260750D8B00A
:10015600073C0B260236070E0C6E023408360936AB
:100166000A360B36045002A00ED0085E0550D8A001
:10017600053C095E0650D8A0063C0A5E0750D8A08A
:10018600073C0B5E0DD008260550D8B0053C092665
:100196000650D8B0063C0A260750D8B0073C0B26B6
:1001A60002360C2EDAD70134083609360A360B36F3
:1001B600045002A00ED0085E0550D8A0053C095E8A
:1001C6000650D8A0063C0A5E0750D8A0073C0B5E36
:1001D6000DD008260550D8B0053C09260650D8B0E3
:1001E600063C0A260750D8B0073C0B260136070EF8
:1001F6000C6E0134083609360A360B36045001A057
:100206000ED0085E0550D8A0053C095E0650D8A061
:10021600063C0A5E0750D8A0073C0B5E0DD00826A8
:100226000550D8B0053C09260650D8B0063C0A262B
:100236000750D8B0073C0B2601360C2EDAD700340F
:10024600083609360A360B36045001A00ED0085E71
:100256000550D8A0053C095E0650D8A0063C0A5EAB
:100266000750D8A0073C0B5E0DD008260550D8B025
:10027600053C09260650D8B0063C0A260750D8B0D9
:10028600073C0B260036070E0C6E0034083609367E
:100296000A360B36045000A00ED0085E0550D8A0D2
:1002A600053C095E0650D8A0063C0A5E0750D8A059
:1002B600073C0B5E0DD008260550D8B0053C092634
:1002C6000650D8B0063C0A260750D8B0073C0B2685
:1002D60000360C2EDAD700B00ED004500826055092
:1002E600D8B0053C09260650D8B0063C0A26075069
:0802F600D8B0073C0B261200F2
:1002FE000B1E0A1E091E081E082AD8B4092AD8B4D5
:08030E000A2AD8B40B2A1200E0
:06031600000000001200CF
:10031C000F0E0C6E470E0D6E0D2EFED70C2EFCD74D
:06032C00000000001200B9
:100332000B6A0A6A096A086A0E6A033408360450AC
:10034200085E0550D8A0053C095E0650D8A0063CC0
:100352000A5E0750D8A0073C0B5EE86AD8A0010EDF
:100362000E5E0336070E0C6E0334083609360A3663
:100372000B360E36045003A012D0085E0550D8A0EA
:10038200053C095E0650D8A0063C0A5E0750D8A07C
:10039200073C0B5EE86AD8A0010E0E5E11D008265B
:1003A2000550D8B0053C09260650D8B0063C0A26AE
:1003B2000750D8B0073C0B26E86AD8B0010E0E26CB
:1003C20003360C2ED1D70234083609360A360B36DC
:1003D2000E36045003A012D0085E0550D8A0053C8A
:1003E200095E0650D8A0063C0A5E0750D8A0073C1A
:1003F2000B5EE86AD8A0010E0E5E11D008260550E9
:10040200D8B0053C09260650D8B0063C0A2607504B
:10041200D8B0073C0B26E86AD8B0010E0E26023689
:10042200070E0C6E0234083609360A360B360E36C3
:10043200045002A012D0085E0550D8A0053C095E07
:100442000650D8A0063C0A5E0750D8A0073C0B5EB7
:10045200E86AD8A0010E0E5E11D008260550D8B069
:10046200053C09260650D8B0063C0A260750D8B0EB
:10047200073C0B26E86AD8B0010E0E2602360C2E77
:10048200D1D70134083609360A360B360E360450F7
:1004920002A012D0085E0550D8A0053C095E0650A5
:1004A200D8A0063C0A5E0750D8A0073C0B5EE86A5B
:1004B200D8A0010E0E5E11D008260550D8B0053C1A
:1004C20009260650D8B0063C0A260750D8B0073C89
:1004D2000B26E86AD8B0010E0E260136070E0C6E06
:1004E2000134083609360A360B360E36045001A09E
:1004F20012D0085E0550D8A0053C095E0650D8A06F
:10050200063C0A5E0750D8A0073C0B5EE86AD8A0FA
:10051200010E0E5E11D008260550D8B0053C092602
:100522000650D8B0063C0A260750D8B0073C0B2626
:10053200E86AD8B0010E0E2601360C2ED1D700344F
:10054200083609360A360B360E36045001A012D090
:10055200085E0550D8A0053C095E0650D8A0063CAE
:100562000A5E0750D8A0073C0B5EE86AD8A0010ECD
:100572000E5E11D008260550D8B0053C092606505B
:10058200D8B0063C0A260750D8B0073C0B26E86ACA
:10059200D8B0010E0E260036070E0C6E0034083657
:1005A20009360A360B360E36045000A012D0085E09
:1005B2000550D8A0053C095E0650D8A0063C0A5E4C
:1005C2000750D8A0073C0B5EE86AD8A0010E0E5E69
:1005D20011D008260550D8B0053C09260650D8B0DF
:1005E200063C0A260750D8B0073C0B26E86AD8B06A
:1005F200010E0E2600360C2ED1D700B00ED00450BC
:1006020008260550D8B0053C09260650D8B0063C4D
:0C0612000A260750D8B0073C0B26120047
:10061E00086A096A100E0C6E013408360936045049
:10062E00085E0550D8A0053C095ED8B007D004502E
:10063E0008260550D8B0053C0926D890003601365C
:06064E000C2EEAD7120099
:100654000101DE07DE07DEC101F0DE0701500008FC
:1006640003E200000000F7D70000000000000000D3
:040674000000120070
:10067800220E0C6E086A096A0A6A0B6A0C06D8B45C
:100688001FD0D8900B320A320932083203320232B4
:1006980001320032D8A0F2D70C06D8B409D00450E1
:1006A80008260550092206500A2207500B22EAD7CD
:1006B800045008260550092206500A2207500B222A
:0206C80012001E
:1006CA000450000A12E10550000A0FE10650000A20
:1006DA000CE10750000A09E1FF0E006EFF0E016EE1
:1006EA00FF0E026E7F0E036E97D00C6A07BE0C2AAD
:1006FA000D6A0B6A0A6A096A086A03500210011035
:10070A000010D8B484D0035007180E6E0EBE0D1E0A
:10071A0007AE0BD0041E051E061E071E042AD8B4F7
:10072A00052AD8B4062AD8B4072A03AE0BD0001E6D
:10073A00011E021E031E002AD8B4012AD8B4022AB6
:10074A00D8B4032A035007100E6E0EBE1CD0A6DCC6
:10075A000CBE36D00DAE5BD0001E011E021E031E5B
:10076A00002AD8B4012AD8B4022AD8B4032A081E07
:10077A00091E0A1E0B1E082AD8B4092AD8B40A2A46
:10078A00D8B40B2A44D007AE15D003BE0DD00350FF
:10079A000B6E02500A6E0150096E0050086E036A11
:1007AA00026A016A006AD6D7036A026A016A006AA3
:1007BA00002A000C031E021E011E001E0C8EC7D743
:1007CA00082AD8B4092AD8B40A2AD8B40B2A045059
:1007DA00085CD8A4BFD70550095CD8A4BBD706507B
:1007EA000A5CD8A4B7D707500B5CD8A4B3D70B6A56
:1007FA000A6A096A086A002AD8B4012AD8B4022AFD
:10080A00D8B4032A03AEA6D70E6A0E88FF0C0E6A66
:0A081A000CA001D06FDD000F1200EA
:100824000101DEBF02D08A9601D08A86DEBD02D0E5
:100834008A9401D08A84DEBB02D08A9201D08A8253
:10084400DEB902D08A9001D08A802AB102D08A8887
:1008540001D08A988A8A5DDD8A9ADEB702D08A96A8
:1008640001D08A86DEB502D08A9401D08A84DEB3B0
:1008740002D08A9201D08A82DEB102D08A9001D05D
:100884008A802AB102D08A8801D08A988A8A41DD76
:100894008A9A2AA102D040DD02D04EEC00F0120068
:1008A400400E006E1F0E016E000E026E036E1200EB
:1008B4000E0E0101D96F800ED519006E800E005CFA
:1008C40008E1000ED45D05E1000ED35D02E1000EE7
:1008D400D25D03E2010ED76F01D0D76BD7C1D8F137
:1008E400D75314E0006A016A026A036AD251005EB7
:1008F400D351015AD451025AD551035A00C0D2F1EE
:1009040001C0D3F102C0D4F103C0D5F1020ED65D0B
:1009140009E3D651100806E3D251D311D411D511ED
:1009240001E005D0120E006E010E016E81D0D85187
:10093400D925006E016A000E0122004A012A5C0ECC
:100944000024E16E010E0120E26EE66A0101D2513B
:10095400D311D411D51151E0D9534FE0D851D92531
:10096400006E016A000E01225C0E0024DA6F010E93
:100974000120DB6FD6C104F0000E056E066E076E13
:10098400D2C100F0D3C101F0D4C102F0D5C103F04B
:100994009ADE08C000F009C001F00AC002F00BC0E2
:1009A40003F0830E0024F66E3A0E0120F76E000E5B
:1009B4000220F86E0900F5CF00F0DAC1E1FFDBC1D7
:1009C400E2FF00C0E6FF0101D907D6C104F0000E22
:1009D400056E066E076ED2C100F0D3C101F0D4C11A
:1009E40002F0D5C103F06FDE00C0D2F101C0D3F133
:1009F40002C0D4F103C0D5F1A9D70101D8530EE048
:100A0400D951010F006E016A000E01225C0E002410
:100A1400E16E010E0120E26E2D0EE66ED951010F3A
:100A2400006E016A000E01225C0E0026010E0122F6
:020A34001200AE
:100A360036DFE80E046E030E056E000E066E076EB8
:100A460018DE00C0DAF101C0DBF102C0DCF103C040
:100A5600DDF1D2C104F0D3C105F0000E066E076EBB
:100A660065DC00C0DAF101C0DBF102C0DCF103C0D5
:100A7600DDF100C005F001C006F002C007F003C0BA
:100A860008F00832073206320532089E083207326D
:100A960006320532089E05C000F006C001F007C008
:100AA60002F008C003F00332023201320032039E24
:100AB60000C0D6F101C0D7F1F2DED4C104F0D5C131
:100AC60005F0000E066E076ED4DDD6C109F0D7C15B
:100AD6000AF0000E0B6E0C6E030E086E09C004F0D1
:100AE6000AC005F00BC006F00CC007F0085007E07E
:100AF60004360490053606360736FF0FF8D716DC9F
:100B060000C0DAF101C0DBF102C0DCF103C0DDF1A7
:100B16000A0E046E000E056ED6C100F0D7C101F0B4
:100B26007BDD00C0D6F101C0D7F1000E015C02E109
:100B3600030E005C01E242D021C1E9FF22C1EAFFB7
:100B46000101DD51000808E1DC51000805E1DB5137
:100B5600000802E1DA5100082FE22351EF12D753C1
:100B66000DE0D86BD96B000ED95D02E1D751D85D87
:100B760005E2DE6B6CDDD84BD92BF5D7D6C1DEF19D
:100B860066DD2451EF16D7530DE0D86BD96B000EF6
:100B9600D95D02E1D751D85D05E2DE6B58DDD84B51
:100BA600D92BF5D7D6C1DEF152DD010EDA5F000E84
:0E0BB600DB5BDC5BDD5BC4D72451EF16120065
:0E0BC40001012A91D2C1DEF12BDE2A8112003E
:100BD200700E0101D26F030ED36F770ED46F010E28
:100BE200D56F28DF040E0B6ED10E0C6E9B0E0D6EB0
:100BF2000D2EFED70C2EFCD70B2EFAD7700E01014C
:100C0200D26F030ED36F770ED46F010ED56F12DF42
:100C1200040E0B6ED10E0C6E9B0E0D6E0D2EFED7BA
:100C22000C2EFCD70B2EFAD7700E0101D26F030ED9
:100C3200D36F770ED46F010ED56FFCDE040E0B6EF0
:100C4200D10E0C6E9B0E0D6E0D2EFED70C2EFCD708
:100C52000B2EFAD7BA0E0101D26F020ED36F180E05
:100C6200D46F010ED56FE6DE030E0B6EDA0E0C6E3C
:100C7200DB0E0D6E0D2EFED70C2EFCD70B2EFAD7E7
:100C8200160E0101D26F040ED36F5D0ED46F000EEB
:100C9200D56FD0DEF50E0C6E260E0D6E0D2EFED724
:100CA2000C2EFCD70000700E0101D26F030ED36F21
:100CB200770ED46F010ED56FBDDE040E0B6ED10E12
:100CC2000C6E9B0E0D6E0D2EFED70C2EFCD70B2E2E
:100CD200FAD7BA0E0101D26F020ED36F180ED46F7B
:100CE200010ED56FA7DE030E0B6EDA0E0C6EDB0E55
:100CF2000D6E0D2EFED70C2EFCD70B2EFAD7160E2C
:100D02000101D26F040ED36F5D0ED46F000ED56F4A
:100D120091DEF50E0C6E260E0D6E0D2EFED70C2EEC
:100D2200FCD70000700E0101D26F030ED36FEE0EDE
:100D3200D46F020ED56F7EDE080E0B6E9F0E0C6E08
:100D42009F0E0D6E0D2EFED70C2EFCD70B2EFAD752
:100D5200260E0101D26F050ED36F770ED46F010EEE
:100D6200D56F68DE040E0B6ED10E0C6E9B0E0D6EEF
:100D72000D2EFED70C2EFCD70B2EFAD7260E010114
:100D8200D26F050ED36F770ED46F010ED56F52DE80
:100D9200040E0B6ED10E0C6E9B0E0D6E0D2EFED739
:100DA2000C2EFCD70B2EFAD7260E0101D26F050EA0
:100DB200D36F770ED46F010ED56F3CDE040E0B6E2F
:100DC200D10E0C6E9B0E0D6E0D2EFED70C2EFCD787
:100DD2000B2EFAD7740E0101D26F050ED36F180EC7
:100DE200D46F010ED56F26DE030E0B6EDA0E0C6E7B
:100DF200DB0E0D6E0D2EFED70C2EFCD70B2EFAD766
:100E0200160E0101D26F040ED36F5D0ED46F000E69
:100E1200D56F10DEF50E0C6E260E0D6E0D2EFED762
:100E22000C2EFCD700003E0E0101D26F030ED36FD1
:100E3200770ED46F010ED56FFDDD040E0B6ED10E51
:100E42000C6E9B0E0D6E0D2EFED70C2EFCD70B2EAC
:100E5200FAD7BA0E0101D26F020ED36F180ED46FF9
:100E6200010ED56FE7DD030E0B6EDA0E0C6EDB0E94
:100E72000D6E0D2EFED70C2EFCD70B2EFAD7160EAA
:100E82000101D26F040ED36F5D0ED46F000ED56FC9
:100E9200D1DDF50E0C6E260E0D6E0D2EFED70C2E2C
:100EA200FCD70000700E0101D26F030ED36FEE0E5D
:100EB200D46F020ED56FBEDD080E0B6E9F0E0C6E48
:100EC2009F0E0D6E0D2EFED70C2EFCD70B2EFAD7D1
:100ED200E00E0101D26F060ED36F770ED46F010EB2
:100EE200D56FA8DD040E0B6ED10E0C6E9B0E0D6E2F
:100EF2000D2EFED70C2EFCD70B2EFAD7700E010149
:100F0200D26F030ED36F180ED46F010ED56F92DD20
:100F1200030E0B6EDA0E0C6EDB0E0D6E0D2EFED76F
:100F22000C2EFCD70B2EFAD7700E0101D26F030ED6
:100F3200D36F5D0ED46F000ED56F7CDDF50E0C6E97
:100F4200260E0D6E0D2EFED70C2EFCD70000E00EE5
:100F52000101D26F060ED36F770ED46F010ED56FDB
:100F620069DD040E0B6ED10E0C6E9B0E0D6E0D2EF6
:100F7200FED70C2EFCD70B2EFAD77D0E0101D26FB5
:100F8200060ED36F180ED46F010ED56F53DD030E0C
:100F92000B6EDA0E0C6EDB0E0D6E0D2EFED70C2EC6
:100FA200FCD70B2EFAD71F0E0101D26F060ED36F9C
:100FB2005D0ED46F000ED56F3DDDF50E0C6E260E64
:100FC2000D6E0D2EFED70C2EFCD70000C70E0101B0
:100FD200D26F050ED36F5D0ED46F000ED56F2ADD72
:100FE200F50E0C6E260E0D6E0D2EFED70C2EFCD7B6
:100FF2000000260E0101D26F050ED36F5D0ED46F75
:10100200000ED56F17DDF50E0C6E260E0D6E0D2E31
:10101200FED70C2EFCD70000740E0101D26F050E14
:10102200D36FBB0ED46F000ED56F04DD020E0B6EB4
:10103200E90E0C6E4C0E0D6E0D2EFED70C2EFCD74B
:101042000B2EFAD70000020E0B6EE90E0C6E4C0E40
:101052000D6E0D2EFED70C2EFCD70B2EFAD70000EC
:10106200A40E0101D26F030ED36FBB0ED46F000E1C
:10107200D56FE0DC020E0B6EE90E0C6E4C0E0D6E9F
:101082000D2EFED70C2EFCD70B2EFAD70000DC0E4D
:101092000101D26F040ED36F770ED46F010ED56F9C
:1010A200C9DC040E0B6ED10E0C6E9B0E0D6E0D2E56
:1010B200FED70C2EFCD70B2EFAD7960E0101D26F5B
:1010C200040ED36F180ED46F010ED56FB3DC030E6E
:1010D2000B6EDA0E0C6EDB0E0D6E0D2EFED70C2E85
:1010E200FCD70B2EFAD7540E0101D26F040ED36F28
:1010F2005D0ED46F000ED56F9DDCF50E0C6E260EC4
:101102000D6E0D2EFED70C2EFCD70000160E01011F
:10111200D26F040ED36F5D0ED46F000ED56F8ADCD2
:10112200F50E0C6E260E0D6E0D2EFED70C2EFCD774
:101132000000DB0E0101D26F030ED36F5D0ED46F80
:10114200000ED56F77DCF50E0C6E260E0D6E0D2E91
:10115200FED70C2EFCD70000160E0101D26F040E32
:10116200D36FBB0ED46F000ED56F64DC020E0B6E14
:10117200E90E0C6E4C0E0D6E0D2EFED70C2EFCD70A
:101182000B2EFAD70000020E0B6EE90E0C6E4C0EFF
:101192000D6E0D2EFED70C2EFCD70B2EFAD70000AB
:1011A200BA0E0101D26F020ED36FBB0ED46F000EC6
:1011B200D56F40DC020E0B6EE90E0C6E4C0E0D6EFE
:1011C2000D2EFED70C2EFCD70B2EFAD700003E0EAA
:1011D2000101D26F030ED36F770ED46F010ED56F5C
:1011E20029DC040E0B6ED10E0C6E9B0E0D6E0D2EB5
:1011F200FED70C2EFCD70B2EFAD7BA0E0101D26FF6
:10120200020ED36F180ED46F010ED56F13DC030ECE
:101212000B6EDA0E0C6EDB0E0D6E0D2EFED70C2E43
:10122200FCD70B2EFAD7700E0101D26F030ED36FCB
:101232005D0ED46F000ED56F1BEC05F0F50E0C6E33
:10124200260E0D6E0D2EFED70C2EFCD70000160EAC
:101252000101D26F040ED36F770ED46F010ED56FDA
:101262001BEC05F0040E0B6ED10E0C6E9B0E0D6E78
:101272000D2EFED70C2EFCD70B2EFAD7700E0101C5
:10128200D26F030ED36F180ED46F010ED56F1BEC05
:1012920005F0030E0B6EDA0E0C6EDB0E0D6E0D2ECC
:1012A200FED70C2EFCD70B2EFAD7160E0101D26FE9
:1012B200040ED36F5D0ED46F000ED56F1BEC05F0DC
:1012C200F50E0C6E260E0D6E0D2EFED70C2EFCD7D3
:1012D2000000260E0101D26F050ED36FEE0ED46F01
:1012E200020ED56F1BEC05F0080E0B6E9F0E0C6EF6
:1012F2009F0E0D6E0D2EFED70C2EFCD70B2EFAD79D
:10130200E00E0101D26F060ED36F770ED46F010E7D
:10131200D56F1BEC05F0040E0B6ED10E0C6E9B0EFE
:101322000D6E0D2EFED70C2EFCD70B2EFAD7700E9B
:101332000101D26F030ED36F180ED46F010ED56F59
:101342001BEC05F0030E0B6EDA0E0C6EDB0E0D6E4F
:101352000D2EFED70C2EFCD70B2EFAD7700E0101E4
:10136200D26F030ED36F5D0ED46F000ED56F1BECE0
:1013720005F0F50E0C6E260E0D6E0D2EFED70C2E00
:10138200FCD70000E00E0101D26F060ED36F770E7C
:10139200D46F010ED56F1BEC05F0040E0B6ED10E4F
:1013A2000C6E9B0E0D6E0D2EFED70C2EFCD70B2E47
:1013B200FAD77D0E0101D26F060ED36F180ED46FCD
:1013C200010ED56F1BEC05F0030E0B6EDA0E0C6EE0
:1013D200DB0E0D6E0D2EFED70C2EFCD70B2EFAD780
:1013E2001F0E0101D26F060ED36F5D0ED46F000E79
:1013F200D56F1BEC05F0F50E0C6E260E0D6E0D2E44
:10140200FED70C2EFCD70000C70E0101D26F050ECD
:10141200D36F5D0ED46F000ED56F1BEC05F0F50E89
:101422000C6E260E0D6E0D2EFED70C2EFCD7000074
:10143200260E0101D26F050ED36F5D0ED46F000E22
:10144200D56F1BEC05F0F50E0C6E260E0D6E0D2EF3
:10145200FED70C2EFCD70000740E0101D26F050ED0
:10146200D36FBB0ED46F000ED56F1BEC05F0020ECE
:101472000B6EE90E0C6E4C0E0D6E0D2EFED70C2E61
:10148200FCD70B2EFAD70000020E0B6EE90E0C6E83
:101492004C0E0D6E0D2EFED70C2EFCD70B2EFAD74E
:1014A2000000A40E0101D26F030ED36FBB0ED46FE6
:1014B200000ED56F1BEC05F0020E0B6EE90E0C6EE2
:1014C2004C0E0D6E0D2EFED70C2EFCD70B2EFAD71E
:1014D2000000DC0E0101D26F040ED36F770ED46FC1
:1014E200010ED56F1BEC05F0040E0B6ED10E0C6EC7
:1014F2009B0E0D6E0D2EFED70C2EFCD70B2EFAD79F
:10150200960E0101D26F040ED36F180ED46F010E26
:10151200D56F1BEC05F0030E0B6EDA0E0C6EDB0EB4
:101522000D6E0D2EFED70C2EFCD70B2EFAD7540EB5
:101532000101D26F040ED36F5D0ED46F000ED56F12
:101542001BEC05F0F50E0C6E260E0D6E0D2EFED761
:101552000C2EFCD70000160E0101D26F040ED36FC1
:101562005D0ED46F000ED56F1BEC05F0F50E0C6E00
:10157200260E0D6E0D2EFED70C2EFCD70000DB0EB4
:101582000101D26F030ED36F5D0ED46F000ED56FC3
:101592001BEC05F0F50E0C6E260E0D6E0D2EFED711
:1015A2000C2EFCD70000160E0101D26F040ED36F71
:1015B200BB0ED46F000ED56F1BEC05F0020E0B6E46
:1015C200E90E0C6E4C0E0D6E0D2EFED70C2EFCD7B6
:1015D2000B2EFAD70000020E0B6EE90E0C6E4C0EAB
:1015E2000D6E0D2EFED70C2EFCD70B2EFAD7000057
:1015F200BA0E0101D26F020ED36FBB0ED46F000E72
:10160200D56F1BEC05F0020E0B6EE90E0C6E4C0E44
:101612000D6E0D2EFED70C2EFCD70B2EFAD7000026
:101622003E0E0101D26F030ED36F770ED46F010EFF
:10163200D56F1BEC05F0040E0B6ED10E0C6E9B0EDB
:101642000D6E0D2EFED70C2EFCD70B2EFAD7BA0E2E
:101652000101D26F020ED36F180ED46F010ED56F37
:101662001BEC05F0030E0B6EDA0E0C6EDB0E0D6E2C
:101672000D2EFED70C2EFCD70B2EFAD7160E01011B
:10168200D26F040ED36F5D0ED46F000ED56F1BECBC
:1016920005F0F50E0C6E260E0D6E0D2EFED70C2EDD
:1016A200FCD70000700E0101D26F030ED36F770ECC
:1016B200D46F010ED56F1BEC05F0040E0B6ED10E2C
:1016C2000C6E9B0E0D6E0D2EFED70C2EFCD70B2E24
:1016D200FAD7BA0E0101D26F020ED36F180ED46F71
:1016E200010ED56F1BEC05F0030E0B6EDA0E0C6EBD
:1016F200DB0E0D6E0D2EFED70C2EFCD70B2EFAD75D
:10170200160E0101D26F040ED36F5D0ED46F000E60
:10171200D56F1BEC05F0F50E0C6E260E0D6E0D2E20
:10172200FED70C2EFCD70000700E0101D26F030E03
:10173200D36FEE0ED46F020ED56F1BEC05F0080EC0
:101742000B6E9F0E0C6E9F0E0D6E0D2EFED70C2E85
:08175200FCD70B2EFAD71200A0
:10175A000101B66BB651B425E96E000EB521EA6EE9
:10176A00EE520CE0B651B425E96E000EB521EA6ED0
:0E177A00EECFD2F1E2EC05F0B62BECD7120068
:101788000101CA6BCB6BCC6BCD6BCE6BCF6BD06BC7
:10179800D16BB4C1C6F1B5C1C7F1B6C1C8F1B7C103
:1017A800C9F1C9C100F0000EC9BFFF0E016E026E7B
:1017B800036E7F0E005C016E01C0C1F1FF0EC615FD
:1017C800BD6FFF0EC715BE6FFF0EC815BF6F000EA9
:1017D800C915C06FBF8F800E0118006E800E1F0ADA
:1017E800005C0DE2800EC119006E800EE90A005CF3
:1017F80006E3C651C711C811C91101E005D0F60E9C
:10180800006E000E016E80D1800EC119006E800E30
:10181800170A005C1BE3170EC15D006E000EC1BF06
:10182800FF0E016E000E015ABDC1CAF1BEC1CBF157
:10183800BFC1CCF1C0C1CDF1005007E0CA37CA9191
:10184800CB37CC37CD37FF0FF8D769D0800EC11909
:10185800006E800E000A005C3DE3C1511708006E5F
:10186800016A000EC1BFFF0E015ABDC1CAF1BEC157
:10187800CBF1BFC1CCF1C0C1CDF1005009E0CD33EF
:10188800CC33CB33CA33CD9FCDBDCD8FFF0FF6D729
:10189800C151010F006E016A000EC1BFFF0E012287
:1018A800BDC1CEF1BEC1CFF1BFC1D0F1C0C1D1F130
:1018B800005007E0CE37CE91CF37D037D137FF0F62
:1018C800F8D7FF0ECE17FF0ECF17FF0ED017000E5A
:1018D800D11725D0FF0EBD15CE6FFF0EBE15CF6FE9
:1018E800FF0EBF15D06F000EC015D16FC151010F8B
:1018F800006E016A000EC1BFFF0E012200500008F1
:10190800006E0150000E0156005009E0D133D0336B
:10191800CF33CE33D19FD1BDD18FFF0FF6D7430E32
:10192800BB6F010EBC6FC8AF08D0BBC1E1FFBCC123
:10193800E2FF2D0EE66EBB4BBC2B000E006ECD19E0
:1019480008E10050CC1905E10050CB1902E1CA5159
:10195800000A09E1BBC1E1FFBCC1E2FF300EE66E3F
:10196800BB4BBC2B25D0CAC1D2F1CBC1D3F1CCC162
:10197800D4F1CDC1D5F10A0ED66F5AEC04F000C0EF
:10198800C4F101C0C5F1C4C1E9FFC5C1EAFFEE5207
:101998000FE0C4C1E9FFC5C1EAFFBBC1E1FFBCC19B
:1019A800E2FFEECFE6FFBB4BBC2BC44BC52BEBD7FE
:1019B800BBC1E1FFBCC1E2FF2E0EE66EBB4BBC2BE8
:1019C800000E006ED11908E10050D01905E1005051
:1019D800CF1902E1CE51000A09E1BBC1E1FFBCC148
:1019E800E2FF300EE66EBB4BBC2B85D0B85305E04A
:1019F800B8C1B9F1000EBA6F0CD0430EBB5D006ED2
:101A0800010EBC59016E00500F08B96FB907000EDE
:101A1800BA6FB9C1C3F1B951070802E2070EC36F23
:101A2800C26BC351C25D4CE2030E006ECEC105F01D
:101A3800CFC106F0D0C107F0D1C108F0005007E0CF
:101A480005360590063607360836FF0FF8D7CEC19B
:101A580000F0CFC101F0D0C102F0D1C103F00036CF
:101A68000090013602360336005005260150062242
:101A7800025007220350082205C0CEF106C0CFF15C
:101A880007C0D0F108C0D1F108C000F0000E08BEB0
:101A9800FF0E016E026E036E300E0026BBC1E1FF21
:101AA800BCC1E2FF00C0E6FFBB4BBC2BFF0ECE174C
:101AB800FF0ECF17FF0ED017000ED117C22BB1D7CC
:101AC800010EBB5F000EBC5BBBC1E9FFBCC1EAFFF6
:101AD800EE50300A0EE1FF0EBB25E96EFF0EBC2169
:101AE800EA6EEE502E0A05E0010EBB5F000EBC5BED
:101AF800EBD7BB4BBC2BBBC1E1FFBCC1E2FFE66A25
:0A1B0800430E006E010E016E120084
:101B1200B4C102F0B5C103F002C000F003C001F08D
:101B2200024A032A00C0E9FF01C0EAFFEE5201E0C7
:101B3200F3D70101B451025C006EB5510358016E36
:0A1B4200010E005E000E015A1200B1
:101B4C000B840BAEB1EF0DF0010E036E026A016A4D
:0A1B5C00006A0A360232FF0E120082
:101B6600C7B409D01F0EC514016E0150000A03E167
:0A1B7600010E006E01D0006A12009B
:081B80000AAE029E000E1200E5
:0E1B8800026A016A006A086A036A000E12000F
:041B9600C5841200F0
:101B9A009E96C5869EB601D0FDD7C9CF01F0010138
:101BAA00A351000A02E1C58A01D0C59A9E96C5884A
:0C1BBA009EB601D0FDD701C000F0120063
:101BC6009E96A3C1C9FFC7A401D0FDD79EB601D07A
:101BD600FDD7C5BC02D0006A03D0C584020E006ED4
:021BE6001200EB
:101BE800100E0101B26F000EB36F020EA35D05E285
:101BF800800EDE6F12EC04F004D0C00EDE6F12EC23
:101C080004F0A60EB06F010EB16FA4C100F0A5C11B
:101C180001F0A44BA52B00C0E9FF01C0EAFFEECFFD
:101C280000F000C0ADF10052D8B46CD1AD51250A16
:101C3800D8A45FD1A4C1E9FFA5C1EAFFEECFADF1F9
:101C4800A44BA52B2ED1B0C1E9FFB1C1EAFFEECF5D
:101C580000F0EECF01F000C0AEF101C0AFF1020E0E
:101C6800B027000EB12300C0B4F101C0B5F171DD99
:101C780031D1010EB25F000EB35BB0C1E9FFB1C153
:101C8800EAFFEECFD2F1E2EC05F0B04BB12B22D156
:101C9800B0C1E9FFB1C1EAFFEECFD2F1000ED5BF66
:101CA800FF0ED36FD46FD56F000ED2BFFF0ED36F68
:101CB800D46FD56F0A0ED66F5AEC04F000C0AEF19F
:101CC80001C0AFF1B04BB12B00C0B4F101C0B5F108
:101CD80040DD00D1B0C1E9FFB1C1EAFFEECFD2F1DA
:101CE800EECFD3F1000ED5BFFF0ED46FD56F000E27
:101CF800D3BFFF0ED46FD56F0A0ED66F5AEC04F01F
:101D080000C0AEF101C0AFF1020EB027000EB12342
:101D180000C0B4F101C0B5F11CDDDCD0B0C1E9FFF1
:101D2800B1C1EAFFEECFD2F1EECFD3F1EECFD4F1CD
:101D3800EECFD5F10A0ED66F5AEC04F000C0AEF122
:101D480001C0AFF1040EB027000EB12300C0B4F1FA
:101D580001C0B5F1FEDCBED0A4C1E9FFA5C1EAFF10
:101D6800EECFADF1A44BA52B5CD0B0C1E9FFB1C15A
:101D7800EAFFEECFD2F1000ED36FD46FD56F000E0D
:101D8800D36FD46FD56F0A0ED66F5AEC04F000C02B
:101D9800AEF101C0AFF1B04BB12B00C0B4F101C03E
:101DA800B5F1D7DC47D0B0C1E9FFB1C1EAFFEECF4A
:101DB800D2F1EECFD3F1000ED46FD56F000ED46FF1
:101DC800D56F0A0ED66F5AEC04F000C0AEF101C010
:101DD800AFF1020EB027000EB12300C0B4F101C06C
:101DE800B5F1B7DC27D0B0C1E9FFB1C1EAFFEECF4A
:101DF800D2F1EECFD3F1EECFD4F1EECFD5F10A0E7A
:101E0800D66F5AEC04F000C0AEF101C0AFF1040E79
:101E1800B027000EB12300C0B4F101C0B5F199DCC0
:101E280009D0AD51730AA1E0AD51690ABCE0AD51CA
:101E38006C0AD9E04FD0300EAD5D2AE3AD513908B8
:101E480027E3A4C1E9FFA5C1EAFFEE50660A20E135
:101E5800B0C1E9FFB1C1EAFFEECFB4F1EECFB5F101
:101E6800EECFB6F1EECFB7F1300EAD5DB86F88DCCE
:101E780000C0AEF101C0AFF1040EB027000EB123CF
:101E880000C0B4F101C0B5F164DCA44BA52B08D0A7
:101E9800010EB25F000EB35BADC1D2F1E2EC05F00A
:101EA80019D0AD51610AD8B4CED6AD51630AD8B4B1
:101EB800E0D6AD51730AD8B4EBD6AD51690AD8B49F
:101EC80009D7AD516C0AD8B429D7AD51750AD8B421
:101ED80043D7B1D7AE51AF110BE0AEC1B4F1AFC12A
:101EE800B5F113DE0050B25F0150B35BAE6BAF6B60
:101EF80008D0010EB25F000EB35BADC1D2F1E2ECC7
:101F080005F083D6B2C101F0B3C102F0010EB25F91
:101F1800000EB35B800E006E800E0218005C02E1BA
:101F28000150000805E2200ED26FE2EC05F0EAD776
:021F3800120095
:101F3A000C6A0E6A0250D8A4B6EF0FF001C002F084
:101F4A0000C001F0006A0E860250D8A4B6EF0FF066
:101F5A0001C002F0016A0E960E880250D8B4C8EF8A
:101F6A000FF00E50035ED8A4D8A0CDEF0FF0D89092
:101F7A0002BED2EF0FF0003601360236032EBDEF55
:101F8A000FF0CDEF0FF0010E0C6EF9DDD5EF0FF06B
:101F9A00020E0C6ED6DDD5EF0FF0040E0C6EEBDDE3
:021FAA00120023
:101FAC00080E036E035230E0A3C1E9FFA4C1EAFF9F
:101FBC000101A551EE18016E01AE12D0A3C1E9FFCB
:101FCC00A4C1EAFFEECF02F002C000F00036009090
:101FDC00A3C1E1FFA4C1E2FF310E0018E66E10D0E0
:101FEC00A3C1E9FFA4C1EAFFEECF02F002C000F0EA
:101FFC0000360090A3C1E1FFA4C1E2FF00C0E6FFE0
:0A200C00A537A5910306CED71200F8
:102016000B820BAE15EF10F00368026801680068CA
:082026000A360232FF0E12001F
:10202E000101A36BA46BA451120802E1A3518E0807
:10203E0008E392DD005201E004D00101A34BA42B72
:10204E00F2D70101120EA45D02E18F0EA35D03E330
:10205E007B0E006E05D0C580C5A001D0FDD7006AED
:02206E0012005E
:10207000020E0101A35D05E2800EDE6F12EC04F09A
:1020800004D0C00EDE6F12EC04F0A46B100EA45D41
:1020900006E2200ED26FE2EC05F0A42BF7D7120077
:0620A000E9EC05F012005E
:0A20A600C582C5A201D0FDD71200CB
:0820B0000B6A0B86FF0E120003
:0C20B8000E0E0D6E0D2EFED70000120063
:1020C4000134083609360450085E0550D8A0053C92
:1020D400095E003601360F0E0C6E013408360936DF
:1020E400045000A006D0085E0550D8A0053C095E47
:1020F40005D008260550D8B0053C0926003601361F
:102104000C2EEBD700B006D0045008260550D8B0EA
:08211400053C09260000120041
:10211C0088DFA00E01012911A36F4FDD9CC1A3F133
:0C212C004CDD9DC1A3F149DD30DD120047
:10213800010E0101A36F2F0EA46F000EA56F50DDD5
:0A214800020EA36F91DFA8DF120062
:102152000101A26B9F51100805E30F0E9C15006E42
:1021620001E102D0006A2DD061DFA00E0101291128
:10217200A36F28DD9CC1A3F125DD0101A06B9F5156
:10218200A05D1CE2A0519D25E96E000E9E21EA6E23
:10219200EECF00F000C0A1F100C0A3F113DDA20E4A
:1021A2000101A36F010EA46FA1C1A5F1FEDE350EE0
:1021B2000D6E0D2EFED70101A02BE1D7EBDCA2C1E3
:0421C20000F0120017
:1021C600086A080E0C6E003408360450085ED8B053
:0E21D60002D00826D89000360C2EF5D7120045
:1021E400A0C100F00101A007005228E09CC1E9FF52
:1021F4009DC1EAFFEE50000A0CE09CC1E9FF9DC1BD
:10220400EAFF9EC1D9FF9FC1DAFFEE50DE1801E15B
:102214000FD09CC1E9FF9DC1EAFF9EC1D9FF9FC1B8
:10222400DAFFDE50EE5C006E016A000E015A08D03F
:1022340001019C4B9D2B9E4B9F2BD2D7006A016AB8
:02224400120086
:102246000A6A0350D8A40A800750D8A40A820A5002
:10225600D8B486EF11F0030AD8B43FEF11F00AB0F4
:102266003AEF11F006AE84EF11F082EF11F002AEF4
:1022760082EF11F084EF11F00250800B0A6E029E7D
:102286000650800B069E0A18D8B450EF11F00A507B
:10229600D8B482EF11F084EF11F00750035CD8B484
:1022A6005AEF11F0D8A076EF11F07CEF11F006503E
:1022B600025CD8B464EF11F0D8A076EF11F07CEF91
:1022C60011F00550015CD8B46EEF11F0D8A076EF8E
:1022D60011F07CEF11F00450005CD8B486EF11F0D9
:1022E600D8B07CEF11F00A52D8B484EF11F082EF27
:1022F60011F00A52D8B482EF11F084EF11F0D880B1
:0E2306001200D8901200D880D8841200120065
:10231400830EC2169CC100F0003600900036009077
:102324000050C212C7DEC282C2A201D0FDD7C4CF00
:0E23340001F0006AC3500012000E01121200E8
:102342000450000A12E10550000A0FE10650000A8B
:102352000CE10750000A09E1FF0E006EFF0E016E4C
:102362007F0E026EFF0E036EA6D0086A096A07503E
:10237200D8B44CEF12F00350D8B450EF12F0025020
:1023820006180A6E028E068E0E6A02C008F001C09E
:102392000CF000C00DF004500D5E0550D8A0053CB5
:1023A2000C5E0650D8A0063C085E086A0C6A0D6AEC
:1023B200D8A0E3EF11F0D890023201320032083295
:1023C200010E0E6E0750035ED8A0F0EF11F07E0EE4
:1023D2000E240326D8B055EF12F0F6EF11F07E0E60
:1023E2000E240326D8A059EF12F0180E0B6E0D36EC
:1023F2000C3608360036013602360E360450005EC0
:102402000550D8A0053C015E0650D8A0063C025EED
:1024120006340E120EA011EF12F00D801CEF12F016
:10242200045000260550D8B0053C01260650D8B00D
:10243200062802260D900B2EF8EF11F042EF12F053
:10244200D8900036013602360E360450005E055032
:10245200D8A0053C015E0650D8A0063C025E0634B8
:102462000E10010B0D26D8B00C2AD8B4082AD8A415
:1024720042EF12F008320C320D32032AD8B455EF73
:1024820012F00AAE089E0850026E0C50016E0D50FA
:10249200006E5CEF12F0010E0ADE5CEF12F0020E2B
:1024A200C4EC0DF05CEF12F0040EB4DD5CEF12F040
:0824B200080EA6EC0DF012006B
:0E24BA00ACB202D00000FCD79CC1ADFF1200F6
:1024C8000450000A08E10550000A05E1FF0E006EFD
:1024D8007F0E016E57D00D6A096A086A0150001014
:1024E800D8B4000C015005180A6E0ABE0D1E0B6AFE
:1024F80005AE05D0041E051E042AD8B4052A01AE6F
:1025080005D0001E011E002AD8B4012A015005106A
:102518000A6E0ABE10D0D2DD0BB020D00DAE000C72
:10252800001E011E002AD8B4012A081E091E082A06
:10253800D8B4092A000C05AE0DD001BE07D0015051
:10254800096E0050086E016A006AE8D7016A006ADD
:10255800002A000C011E001E0B2ADDD7082AD8B459
:10256800092A0450085CD8A4D9D70550095CD8A416
:10257800D5D7096A086A002AD8B4012A01AECED78D
:062588000000FF0C120030
:10258E009CC1E9FF9DC1EAFFEE5001019E1905E1D4
:10259E009CC100F09DC101F010D09CC100F09DC106
:1025AE0001F09C4B9D2B00C0E9FF01C0EAFFEECF6E
:0C25BE0000F00052E5E1006A016A120022
:1025CA009EC104F09FC105F09CC102F09DC103F0B9
:1025DA00A0C100F0A1C101F0010E0101A05F000E2F
:1025EA00A15B005001100FE004C0E9FF05C0EAFF3B
:1025FA0002C0E1FF03C0E2FFEECFE6FF024A032A70
:10260A00044A052AE5D79CC100F09DC101F01200D9
:10261A000050086E0150006E016A026A036A0B6A72
:10262A000C6A960E036E0A6A00C001F008C000F038
:08263A00086A026A7DDC12004F
:102642000101A26BF3DCA00E01012911A36FE3ECDF
:102652000DF09CC1A3F1E3EC0DF024DDA00E01010D
:102662002911A36FA381E3EC0DF00101A06B9F057B
:10267200016E026A000E025A800E006E800E02186F
:10268200005C02E10150A05D1DE2010EA36FCDECE2
:102692000DF000C0A1F1A20E0101A36F010EA46F03
:1026A20000C0A5F182DC0101A0519D25E16E000E62
:1026B2009E21E26EA1C1E6FF350E0D6E0D2EFED7F4
:1026C200A02BD5D7A36BCDEC0DF000C0A1F1A20ECB
:1026D2000101A36F010EA46F00C0A5F166DC010128
:1026E200A0519D25E16E000E9E21E26EA1C1E6FF82
:1026F200B3EC0DF0005201E1FBD7CBEC0DF0A2C11F
:0427020000F01200D1
:10270600086A096A000E0762036408EF14F00250B3
:1027160006180A6E075003267E0ED8A099EF13F00E
:10272600035ED8B00DEF14F09DEF13F0035ED8A052
:1027360012EF14F0028E068E02C00EF001C00BF0EE
:1027460000C00DF000500402F4CF0CF00150050259
:10275600F4CF00F0F3CF08F00402F3500C26F45047
:102766000822000E00220D500502F3500C26F450EC
:102776000822000E002202500402F3500826F450EC
:10278600002202500502016A000E0122F3500026C3
:10279600F45001220D500602F3500826F450002290
:1027A600026A000E012202220B500602F350002696
:1027B600F4500122000E02220E500602F3500126AA
:1027C600F450022202BEF0EF13F00836003601364E
:1027D60002360306D8B412EF14F003EF14F0D880D3
:1027E600800E08640030000E002201220222D8A0CA
:1027F60003EF14F0023201320032034A0DEF14F0F7
:102806000AAE029E000E15EF14F0010EC4EC0DF098
:1028160015EF14F0020E0BEC10F015EF14F0040E89
:06282600A6EC0DF012000B
:10282C00060E01019C6F70DDF2DE0EC104F00FC1CB
:10283C0005F010C106F011C107F05FDF0A0E046E3F
:10284C00D70E056E230E066E820E076E74DD120017
:10285C0017EC10F0A00E01012911A36FE3EC0DF0A1
:10286C0095C1A3F1E3EC0DF018DCA00E01012911C8
:10287C00A36FA381E3EC0DF00101A36BCDEC0DF084
:10288C0000C096F1B3EC0DF0005201E1FBD7CBEC9C
:08289C000DF096C100F01200DE
:0A28A400E60E006E000E016E120039
:1028AE000001C35301E138D095C104F096C105F083
:1028BE0097C106F098C107F0ADC000F0AEC001F0B0
:1028CE00AFC002F0B0C003F0B7DC010ED8B0000EFE
:1028DE00006E005206E0C25304E1010EC26F25DC09
:1028EE001BD095C104F096C105F097C106F098C1B2
:1028FE0007F0ADC000F0AEC001F0AFC002F0B0C046
:10290E0003F09ADC000ED8B0010E006E005204E007
:0A291E000001C253D8A4C26B1200DE
:0A292800FB0E006E000E016E12009F
:10293200F29AE60E01019C6F000E9D6F95C19EF109
:1029420096C19FF1060EA06F000EA16F3DDE0B0E29
:0A295200D76EDC0ED66EF28A12007A
:10295C00410E01019C6FABDD430E01019C6FA7DDA5
:10296C004B0E01019C6FA3DD0A0E01019C6F9FDDD4
:02297C00120047
:10297E006D0E01019C6F010E9D6F95C19EF196C16A
:10298E009FF1060EA06F000EA16F18DE97C173F1B6
:10299E0098C174F199C175F19AC176F1C4C09CF1D8
:1029AE006D0E9D6F010E9E6F0A0E9F6FA9EC10F0BB
:1029BE00F00E0001C415006EF00E046EE3EC10F084
:1029CE0008C000F0100E0024016E01C0C4F0C55105
:1029DE0001180CE1F00EC515006EF00E046EE3EC5E
:0E29EE0010F008C000F0100E0024C56F12009B
:1029FC000001C551C41903E1006A016A1BD0C5C0AE
:102A0C009CF1520E01019D6F010E9E6F0A0E9F6F7D
:102A1C0012DEF00E0001C515006EF00E046EE3EC34
:102A2C0010F008C000F0100E0024C56F520E006E9E
:062A3C00010E016E120004
:102A420095C1ADF096C1AEF097C1AFF098C1B0F0AC
:082A5200010E0001C36F120028
:102A5A00ADC000F0AEC001F0AFC002F0B0C003F0EC
:022A6A00120058
:102A6C00DA0E01019C6F000E9D6F95C19EF196C10F
:102A7C009FF1060EA06F000EA16FA1DD97C1E0F0D3
:102A8C0098C1E1F099C1E2F09AC1E3F0C5C0E4F05D
:102A9C00C4C0E5F00001EC6B01019C6BDA0E9D6F7C
:102AAC00000E9E6F0C0E9F6FA9EC10F000C09BF1F6
:102ABC000D0E0C6EFB0E0D6E0D2EFED70C2EFCD7D4
:102ACC00000000000C0E9C6F9BC19DF18EEC10F071
:022ADC001200E6
:102ADE00C60E01019C6F000E9D6F95C19EF196C1B1
:102AEE009FF10A0EA06F000EA16F68DD976B0A0EA4
:102AFE00975D0EE2C60EE96E000EEA6E9751E9265C
:102B0E00D8B0EA2AEECF9CF1D1DC0101972BEFD79A
:082B1E000A0E9C6FCBDC1200D3
:102B26000101976B2B0E986F010E996F975198279D
:102B3600D8B0992B050E9525D96E000E9621DA6E22
:102B46006C0E006E070E016EDE500026D8B0012A0C
:102B5600E80E046E030E056EB4DC300E002698C136
:102B6600E1FF99C1E2FF00C0E6FF0101972B2B0EA2
:102B7600986F010E996F97519827D8B0992B050E2B
:102B86009525D96E000E9621DA6E6C0E006E070E34
:102B9600016EDE500026D8B0012AE80E046E030E40
:102BA600056E8FDC08C000F009C001F0640E046EEB
:102BB600000E056E86DC300E002698C1E1FF99C135
:102BC600E2FF00C0E6FF0101972B2B0E986F010E66
:102BD600996F97519827D8B0992B050E9525D96EE0
:102BE600000E9621DA6E6C0E006E070E016EDE5038
:102BF6000026D8B0012A640E046E000E056E61DC54
:102C060008C000F009C001F00A0E046E000E056E41
:102C160058DC300E002698C1E1FF99C1E2FF00C0E2
:102C2600E6FF0101972B2B0E986F010E996F9751B6
:102C36009827D8B0992B050E9525D96E000E9621AA
:102C4600DA6E6C0E006E070E016EDE500026D8B0EE
:102C5600012A0A0E046E000E056E33DC08C000F071
:102C660009C001F0300E002698C1E1FF99C1E2FFCC
:102C760000C0E6FF0101972B2B0EE16E010EE26EFE
:102C86009751E126D8B0E22A2D0EE66E972B2B0E31
:102C9600986F010E996F97519827D8B0992B040E0B
:102CA6009525E96E000E9621EA6EEECF00F00A0E2B
:102CB600046EE3EC10F0300E002698C1E1FF99C1D6
:102CC600E2FF00C0E6FF972B2B0E986F010E996F5F
:102CD60097519827D8B0992B040E9525E96E000ECA
:102CE6009621EA6EEECF00F00A0E046EE3EC10F0C9
:102CF60008C000F0300E002698C1E1FF99C1E2FF3E
:102D060000C0E6FF972B2B0EE16E010EE26E975187
:102D1600E126D8B0E22A2D0EE66E972B2B0E986F81
:102D2600010E996F97519827D8B0992B030E9525C8
:102D3600E96E000E9621EA6EEECF00F00A0E046EE2
:102D4600E3EC10F0300E002698C1E1FF99C1E2FFD6
:102D560000C0E6FF972B2B0E986F010E996F9751C7
:102D66009827D8B0992B030E9525E96E000E96216B
:102D7600EA6EEECF00F00A0E046EE3EC10F008C027
:102D860000F0300E002698C1E1FF99C1E2FF00C0B5
:102D9600E6FF972B2B0EE16E010EE26E9751E126B0
:102DA600D8B0E22A200EE66E972B2B0E986F010EF6
:102DB600996F97519827D8B0992B020E9525E96EF1
:102DC600000E9621EA6EEECF00F00A0E046EE3ECDA
:102DD60010F0300E002698C1E1FF99C1E2FF00C055
:102DE600E6FF972B2B0E986F010E996F9751982738
:102DF600D8B0992B020E9525E96E000E9621EA6E43
:102E0600EECF00F00A0E046EE3EC10F008C000F0FE
:102E1600300E002698C1E1FF99C1E2FF00C0E6FF2F
:102E2600972B2B0EE16E010EE26E9751E126D8B07C
:102E3600E22A3A0EE66E972B2B0E986F010E996FCB
:102E460097519827D8B0992B010E9525E96E000E5B
:102E56009621EA6EEECF00F00A0E046EE3EC10F057
:102E6600300E002698C1E1FF99C1E2FF00C0E6FFDF
:102E7600972B2B0E986F010E996F97519827D8B004
:102E8600992B010E9525E96E000E9621EA6EEECF7E
:102E960000F00A0E046EE3EC10F008C000F0300EED
:102EA600002698C1E1FF99C1E2FF00C0E6FF972B1B
:102EB6002B0EE16E010EE26E9751E126D8B0E22AA2
:102EC6003A0EE66E972B2B0E986F010E996F97515F
:102ED6009827D8B0992B95C1E9FF96C1EAFFEECFA6
:102EE60000F00A0E046EE3EC10F0300E002698C1D6
:102EF600E1FF99C1E2FF00C0E6FF972B2B0E986F0A
:102F0600010E996F97519827D8B0992B95C1E9FF73
:102F160096C1EAFFEECF00F00A0E046EE3EC10F065
:102F260008C000F0300E002698C1E1FF99C1E2FF0B
:102F360000C0E6FF972B2B0EE16E010EE26E975155
:102F4600E126D8B0E22AE66A972B2B0E006E010E18
:042F5600016E1200F6
:102F5A00000E0101961902E1000E951937E095C19C
:102F6A00E9FF96C1EAFFEE5231E097C1B4F198C188
:102F7A00B5F189EC0DF000C0A0F195C19CF196C1A4
:102F8A009DF197C19EF198C19FF1F2EC10F0000EED
:102F9A00011802E1000E001805E195C100F096C182
:102FAA0001F016D0010E010195259C6F000E9621A5
:102FBA009D6F97C1E9FF98C1EAFFEECF9EF1C7EC7A
:102FCA0012F000C095F101C096F1C2D7006A016AF9
:022FDA001200E3
:102FDC0027DC00C08DF101C08EF102C08FF103C05F
:102FEC0090F15ADC00C095F101C096F18DC197F1BA
:102FFC008EC198F18FC199F190C19AF1BADC0D0E86
:10300C000C6EFB0E0D6E0D2EFED70C2EFCD7000099
:10301C0000001DDD00C08DF101C08EF102C08FF1EA
:10302C0003C090F139DC00C095F101C096F18DC15F
:10303C0097F18EC198F18FC199F190C19AF110DD81
:02304C00120070
:0C304E00100E0001C46F100EC56F1200C0
:10305A00D0DC00C08DF101C08EF10050011006E0F5
:10306A008DC195F18EC196F135DDF2D772DC120071
:10307A000001EC5326E101019C6BDA0E9D6F000EF4
:10308A009E6F0C0E9F6F21EC13F000C08DF10D0E98
:10309A000C6EFB0E0D6E0D2EFED70C2EFCD700000B
:1030AA0000000C0E0101956F2EEC14F001018D51F8
:1030BA00001804E1010E0001EC6F03D0006A016AF6
:1030CA0008D0E4C0C5F0E5C0C4F0DA0E006E000E08
:0430DA00016E120071
:1030DE0024DC00C0E9FF01C0EAFFEECF95F1EECF90
:1030EE0096F1EECF97F1EECF98F1A4DC30DC010E25
:1030FE000101A36F4C0EA46F000EA56FF4EC0DF042
:10310E00A5DC00C0A6F101C0A7F102C0A8F103C062
:10311E00A9F1020EA36F450EA46F000EA56FDF0E70
:10312E00AA6FF4EC0DF00B0E0B6E260E0C6E5D0EF0
:10313E000D6E0D2EFED70C2EFCD70B2EFAD70000DF
:04314E00000012006B
:1031520094EC14F000C095F101C096F199EC14F0D2
:06316200AEEC14F01200B7
:10316800949894968B988B9694889486C79EC79CBF
:06317800380EC66E1200C5
:10317E0016EC14F000C08DF101C08EF102C08FF17B
:10318E0003C090F152EC14F000C095F101C096F11D
:10319E00C3DC00C091F101C092F100C095F101C0F5
:1031AE0096F12D0E976F000E986FD0DE00C093F142
:1031BE0001C094F100C0E1FF01C0E2FFE66A010127
:1031CE00934B942B010EA36F240EA46F000EA56FCC
:1031DE0091C1A6F192C1A7F1F4EC0DF0020EA36F0E
:1031EE003B0EA46F000EA56F93C1A6F194C1A7F17B
:1031FE008DC1A8F18EC1A9F18FC1AAF190C1ABF119
:10320E00DF0EAC6FF4EC0DF08DC195F18EC196F121
:0E321E008FC197F190C198F157EC14F0120097
:10322C00070E01018715296F29372991140EC86ED5
:04323C0095DF120008
:103240001CDF00C087F101C088F100C095F101C00A
:1032500096F199EC14F0060E8725E96E000E882190
:10326000EA6EEECF95F1EECF96F1EECF97F1EECF7D
:0832700098F121EC15F01200A9
:1032780010D0800E0101876F1AD0C00E876F17D04B
:10328800940E876F14D0D40E876F11D0800E876F7D
:103298000ED001018751010AECE08751020AEDE0E6
:1032A8008751030AEDE08751040AEDE0EFD788055E
:1032B800006E8751002600C087F100C0DEF112ECD5
:1032C80004F02A918B6B8B518925E96E000E8A21B7
:1032D800EA6EEE520CE08B518925E96E000E8A21C8
:1032E800EA6EEECFD2F1E2EC05F08B2BECD72A8117
:0232F8001200C2
:1032FA00939A939893909392939493968A9A8A988E
:10330A008A968A948A928A908EEC01F08EEC01F069
:10331A008EEC01F08A828A808A8A8BEC01F08A9A82
:10332A008EEC01F08A8A8BEC01F08A9A8EEC01F01D
:10333A008A8A8BEC01F08A9A8EEC01F08A908A8A4A
:10334A008BEC01F08A9A8EEC01F08A8A8BEC01F000
:10335A008A9A8A928A868A8A8BEC01F08A9A8EECF9
:10336A0001F08A968A808A8A8BEC01F08A9A8A907E
:10337A008A8A8BEC01F08A9A8EEC01F08A8A8BECAD
:10338A0001F08A9A8A808A8A8BEC01F08A9A8EECFA
:10339A0001F08A908A8A8BEC01F08A9A8A868A845A
:1033AA008A828A808A8A8BEC01F08A9A8EEC01F0F2
:0633BA0001012A8112004E
:1033C00087C121F188C122F189C101F0010E006E8F
:1033D000015004E000360090FF0FFBD700C023F13E
:1033E000001E00C024F1120E01018725E96E000EB7
:1033F0008821EA6E0050EF16120EE95E0050EF16BB
:023400001200B8
:10340200700E0101D26F030ED36FE80ED46F030E5C
:08341200D56F1BEC05F0120060
:10341A00F250026EF29E0500FF6A0150FE6E0050E5
:08342A00FD6E02BEF28E1200DD
:10343200010E0101A36FB10EA46F000EA56FF4EC93
:103442000DF0020EA36F38EC10F00B0E0B6E260E71
:103452000C6E5D0E0D6E0D2EFED70C2EFCD70B2EB4
:10346200FAD700000000876B886B896B010E8A6FA8
:10347200010E8B6F460E8C6F870E956F010E966F45
:1034820099EC14F0000E956F000E966F340E976F44
:0C349200850E986F21EC15F0D9DD1200BA
:10349E00140E0101256F230E266F9C0E276F010E51
:0E34AE00286FC26A070EC012C08EC2801200C4
:1034BC00BA0E01017F6F240E806F9C0E816F010E7E
:1034CC00826FDA0E7B6F350E7C6F000E7D6F000EF7
:1034DC007E6FFF0E776FFF0E786F000E796F000E08
:1034EC007A6FFF0E3F6FFF0E406F000E416F000EA4
:1034FC00426FAC8A900EAB6E948E949C9EAA03D0B5
:08350C00AECF00F0FBD7120066
:10351400820E0101876F0F0E886F020E896F4EDFD6
:043524006EDF120044
:103528005C505B1801E154D05CC000F0000E016EE5
:103538000036009001360036009001365D0E0024FA
:10354800E96E000E0120EA6EEE50EE10EE10EE105D
:103558002DE05CC000F0000E016E003600900136D0
:103568000036009001365D0E0024E96E000E012041
:10357800EA6EEECF00F0EECF01F0EECF02F0EECF24
:1035880003F047DF5CC000F0000E016E00360090CB
:1035980001360036009001365D0E0024E16E000E03
:1035A8000120E26EE66AE66AE66AE66A5C50010FA6
:1035B800006E016A000E0122140E046E000E056EE4
:1035C80064EC12F008C000F009C001F000C05CF023
:0235D8001200DF
:1035DA00AECF01F0ABA202D0AB98AB8801C000F02D
:0235EA001200CD
:1035EC005BC000F0000E016E003600900136003614
:1035FC00009001365D0E0024E16E000E0120E26E9B
:10360C00E0C1E6FFE1C1E6FFE2C1E6FFE3C1E6FF90
:10361C005B50010F006E016A000E0122140E046E45
:10362C00000E056E64EC12F008C000F009C001F049
:10363C0000C05BF05B505C1812E15C50010F006E37
:10364C00016A000E0122140E046E000E056E64EC6D
:10365C0012F008C000F009C001F000C05CF01200CC
:10366C0046DE010EDE6F12EC04F00C0EDE6F12EC77
:10367C0004F0010E876F050E886FED0E896F000E3A
:06368C008A6FF4DD12005C
:103692003BD0B886060EB06E820EAF6EAC840DDFE4
:1036A2004CD0B886030EB06E400EAF6EAC8405DF10
:1036B20044D0B886010EB06EA00EAF6EAC84FDDEB3
:1036C2003CD0B886B06ACF0EAF6EAC84F6DE35D091
:1036D200B886B06A670EAF6EAC84EFDE2ED0B886C5
:1036E200B06A330EAF6EAC84E8DE27D0B886B06A1B
:1036F200220EAF6EAC84E1DE20D0B886B06A100E26
:10370200AF6EAC84DADE19D001018351000AC1E048
:103712008351010AC6E08351020ACBE08351030AB6
:10372200D0E08351040AD4E08351050AD8E08351E2
:10373200060ADCE08351070AE0E09E9A9D8A1200A5
:10374200840ED56E0B0ED76EDC0ED66EF28A120088
:10375200010E0101876F69DD8FDC0050011002E06C
:083762006EDD01D065DE1200EE
:10376A00020E0F013C6F968295DE83C10EF184C171
:0C377A000FF185C110F186C111F11200A1
:103786000001E651010F006E00C0E6F0E6513B086D
:1037960050E2E66BE751010F006E00C0E7F0E7511B
:1037A6003B083DE2E76BE851010F006E00C0E8F010
:1037B600E851170834E2E86BE951010F006E00C0CA
:1037C600E9F0EA05006E016A000E015A150E0024A2
:1037D600D96E010E0120DA6EE951DE5C20E2010E9F
:1037E600E96FEA51010F006E00C0EAF0EA510C08D9
:1037F60016E2010EEA6FEB51010F006E00C0EBF00E
:10380600EB5303E0010E006E01D0006A005204E1A2
:103816001D0E0101166F03D001011C0E166F01016A
:10382600DC0EE06F2F0EE16F000EE26F000EE36F0D
:10383600DADE7E0E0101E06F310EE16F000EE26FFF
:10384600000EE36FD0DE0B0ED76EDC0ED66EF29452
:0238560012005E
:10385800C0DE00C0DFF100500A0A2FE121D0520E6D
:103868000101E06F310EE16F000EE26F000EE36FB1
:10387800B9DE20D0DE0E0101E06F300EE16F000EE0
:10388800E26F000EE36FAEDE15D05A0E0101E06F55
:10389800300EE16F000EE26F000EE36FA3DE0AD078
:1038A8000001FA51540ADBE0FA51520AE3E0FA51F6
:1038B8004C0AEBE00101146B0CD00101FA0EE16E29
:1038C800000EE26E1451E126D8B0E22ADFC1E6FF0D
:0638D800142B9E9A120061
:1038DE000900F5CFE6FF0006FBE10106F9E1120053
:1038EE00D09EF28EF2BE02D0F29C01D0F28C15DE8A
:0438FE00FED71200DF
:10390200FF0E966E96CF95FF95CF94FF94CF93FFBF
:1039120093CF92FF0F013C6B3CCF3BFF3BCF3AFF73
:103922003ACF39FF39CF38FF8D6A8DCF8CFF8CCFDC
:103932008BFF8BCF8AFF8ACF89FF89CF60FFC06A56
:10394200C0CFC1FFC1CFC2FF789E78BE02D0799EA0
:1039520001D0798E8ADEDDDDF3DE330E0101836F65
:10396200330E846F530E856F800E866FFDDEF0DEA0
:0A397200030E0101836F8CDE1200CA
:0A397C004AEC1DF0C0DFB5DFFFD7F5
:103A940010EE24F0FD0E006E010E016E860EF66E21
:0E3AA400390EF76E000EF86E6FEC1CF012007B
:0939860025612020205B545D0046
:02398F00200016
:0C3991002020202020414C41524D2100FC
:0A399D0025612025326625634300F2
:0739A7002532662563430091
:0F39AE004E6577207468726573686F6C643A00B9
:1039BD0000000000000000000000000000000000FA
:1039CD0000000000000000000000000000000000EA
:1039DD0000000000000000000000000000000000DA
:1039ED0000000000000000000000000000000000CA
:1039FD0000000000000000000000000000000000BA
:023A0D000000B7
:043A0F0000003485FA
:103A13004C6F6164696E672064656661756C74736D
:013A230000A2
:013A240000A1
:013A250000A0
:013A2600108F
:013A2700108E
:103A2800000000000000000000000000000000008E
:043A3800000000008A
:0C3A3C000000000101460000348510105D
:063A480000000001014630
:013A4E000077
:093A4F0052656164792E2E2E00EF
:043A5800302E3000DC
:103A5C00000000000000000000000000000000005A
:043A6C000000000056
:043A70000000000052
:023A7400300020
:013A7600004F
:0C3A77001F1C1F1E1F1E1F1F1E1F1E1FD6
:103A83003031323334353637383941424344454691
:013A93000032
:020000040030CA
:0D000100231F3CFFBD81FF0FC00FE00F402B
:00000001FF
