:04000000BCEF1CF045
:1000080000C01FF001C01EF002C01DF004C01CF0AB
:1000180005C01BF008C01AF009C019F00AC018F092
:100028000BC017F00CC016F00DC015F0D9CF22F098
:10003800DACF23F0E1CF20F0E2CF21F0F2A405D00F
:10004800F2AA03D0C1EC1BF006D09EAA04D09DAA48
:1000580002D02AEC1CF01FC000F01EC001F01DC029
:1000680002F01CC004F01BC005F01AC008F019C04B
:1000780009F018C00AF017C00BF016C00CF015C034
:100088000DF020C0E1FF21C0E2FF22C0D9FF23C04C
:04009800DAFF11007A
:0A009C00210E0D6E0D2EFED712008E
:1000A6000450085E0550D8A0053C095E0650D8A04D
:1000B600063C0A5E0750D8A0073C0B5E0336070EC7
:1000C6000C6E0334083609360A360B36045003A084
:1000D6000ED0085E0550D8A0053C095E0650D8A093
:1000E600063C0A5E0750D8A0073C0B5E0DD00826DA
:1000F6000550D8B0053C09260650D8B0063C0A265D
:100106000750D8B0073C0B2603360C2EDAD702343C
:10011600083609360A360B36045003A00ED0085EA0
:100126000550D8A0053C095E0650D8A0063C0A5EDC
:100136000750D8A0073C0B5E0DD008260550D8B056
:10014600053C09260650D8B0063C0A260750D8B00A
:10015600073C0B260236070E0C6E023408360936AB
:100166000A360B36045002A00ED0085E0550D8A001
:10017600053C095E0650D8A0063C0A5E0750D8A08A
:10018600073C0B5E0DD008260550D8B0053C092665
:100196000650D8B0063C0A260750D8B0073C0B26B6
:1001A60002360C2EDAD70134083609360A360B36F3
:1001B600045002A00ED0085E0550D8A0053C095E8A
:1001C6000650D8A0063C0A5E0750D8A0073C0B5E36
:1001D6000DD008260550D8B0053C09260650D8B0E3
:1001E600063C0A260750D8B0073C0B260136070EF8
:1001F6000C6E0134083609360A360B36045001A057
:100206000ED0085E0550D8A0053C095E0650D8A061
:10021600063C0A5E0750D8A0073C0B5E0DD00826A8
:100226000550D8B0053C09260650D8B0063C0A262B
:100236000750D8B0073C0B2601360C2EDAD700340F
:10024600083609360A360B36045001A00ED0085E71
:100256000550D8A0053C095E0650D8A0063C0A5EAB
:100266000750D8A0073C0B5E0DD008260550D8B025
:10027600053C09260650D8B0063C0A260750D8B0D9
:10028600073C0B260036070E0C6E0034083609367E
:100296000A360B36045000A00ED0085E0550D8A0D2
:1002A600053C095E0650D8A0063C0A5E0750D8A059
:1002B600073C0B5E0DD008260550D8B0053C092634
:1002C6000650D8B0063C0A260750D8B0073C0B2685
:1002D60000360C2EDAD700B00ED004500826055092
:1002E600D8B0053C09260650D8B0063C0A26075069
:0802F600D8B0073C0B261200F2
:1002FE000B1E0A1E091E081E082AD8B4092AD8B4D5
:08030E000A2AD8B40B2A1200E0
:06031600000000001200CF
:10031C000F0E0C6E470E0D6E0D2EFED70C2EFCD74D
:06032C00000000001200B9
:100332000B6A0A6A096A086A0E6A033408360450AC
:10034200085E0550D8A0053C095E0650D8A0063CC0
:100352000A5E0750D8A0073C0B5EE86AD8A0010EDF
:100362000E5E0336070E0C6E0334083609360A3663
:100372000B360E36045003A012D0085E0550D8A0EA
:10038200053C095E0650D8A0063C0A5E0750D8A07C
:10039200073C0B5EE86AD8A0010E0E5E11D008265B
:1003A2000550D8B0053C09260650D8B0063C0A26AE
:1003B2000750D8B0073C0B26E86AD8B0010E0E26CB
:1003C20003360C2ED1D70234083609360A360B36DC
:1003D2000E36045003A012D0085E0550D8A0053C8A
:1003E200095E0650D8A0063C0A5E0750D8A0073C1A
:1003F2000B5EE86AD8A0010E0E5E11D008260550E9
:10040200D8B0053C09260650D8B0063C0A2607504B
:10041200D8B0073C0B26E86AD8B0010E0E26023689
:10042200070E0C6E0234083609360A360B360E36C3
:10043200045002A012D0085E0550D8A0053C095E07
:100442000650D8A0063C0A5E0750D8A0073C0B5EB7
:10045200E86AD8A0010E0E5E11D008260550D8B069
:10046200053C09260650D8B0063C0A260750D8B0EB
:10047200073C0B26E86AD8B0010E0E2602360C2E77
:10048200D1D70134083609360A360B360E360450F7
:1004920002A012D0085E0550D8A0053C095E0650A5
:1004A200D8A0063C0A5E0750D8A0073C0B5EE86A5B
:1004B200D8A0010E0E5E11D008260550D8B0053C1A
:1004C20009260650D8B0063C0A260750D8B0073C89
:1004D2000B26E86AD8B0010E0E260136070E0C6E06
:1004E2000134083609360A360B360E36045001A09E
:1004F20012D0085E0550D8A0053C095E0650D8A06F
:10050200063C0A5E0750D8A0073C0B5EE86AD8A0FA
:10051200010E0E5E11D008260550D8B0053C092602
:100522000650D8B0063C0A260750D8B0073C0B2626
:10053200E86AD8B0010E0E2601360C2ED1D700344F
:10054200083609360A360B360E36045001A012D090
:10055200085E0550D8A0053C095E0650D8A0063CAE
:100562000A5E0750D8A0073C0B5EE86AD8A0010ECD
:100572000E5E11D008260550D8B0053C092606505B
:10058200D8B0063C0A260750D8B0073C0B26E86ACA
:10059200D8B0010E0E260036070E0C6E0034083657
:1005A20009360A360B360E36045000A012D0085E09
:1005B2000550D8A0053C095E0650D8A0063C0A5E4C
:1005C2000750D8A0073C0B5EE86AD8A0010E0E5E69
:1005D20011D008260550D8B0053C09260650D8B0DF
:1005E200063C0A260750D8B0073C0B26E86AD8B06A
:1005F200010E0E2600360C2ED1D700B00ED00450BC
:1006020008260550D8B0053C09260650D8B0063C4D
:0C0612000A260750D8B0073C0B26120047
:10061E00086A096A100E0C6E013408360936045049
:10062E00085E0550D8A0053C095ED8B007D004502E
:10063E0008260550D8B0053C0926D890003601365C
:06064E000C2EEAD7120099
:100654000101DC07DC07DCC101F0DC070150000804
:1006640003E200000000F7D70000000000000000D3
:040674000000120070
:10067800220E0C6E086A096A0A6A0B6A0C06D8B45C
:100688001FD0D8900B320A320932083203320232B4
:1006980001320032D8A0F2D70C06D8B409D00450E1
:1006A80008260550092206500A2207500B22EAD7CD
:1006B800045008260550092206500A2207500B222A
:0206C80012001E
:1006CA000450000A12E10550000A0FE10650000A20
:1006DA000CE10750000A09E1FF0E006EFF0E016EE1
:1006EA00FF0E026E7F0E036E97D00C6A07BE0C2AAD
:1006FA000D6A0B6A0A6A096A086A03500210011035
:10070A000010D8B484D0035007180E6E0EBE0D1E0A
:10071A0007AE0BD0041E051E061E071E042AD8B4F7
:10072A00052AD8B4062AD8B4072A03AE0BD0001E6D
:10073A00011E021E031E002AD8B4012AD8B4022AB6
:10074A00D8B4032A035007100E6E0EBE1CD0A6DCC6
:10075A000CBE36D00DAE5BD0001E011E021E031E5B
:10076A00002AD8B4012AD8B4022AD8B4032A081E07
:10077A00091E0A1E0B1E082AD8B4092AD8B40A2A46
:10078A00D8B40B2A44D007AE15D003BE0DD00350FF
:10079A000B6E02500A6E0150096E0050086E036A11
:1007AA00026A016A006AD6D7036A026A016A006AA3
:1007BA00002A000C031E021E011E001E0C8EC7D743
:1007CA00082AD8B4092AD8B40A2AD8B40B2A045059
:1007DA00085CD8A4BFD70550095CD8A4BBD706507B
:1007EA000A5CD8A4B7D707500B5CD8A4B3D70B6A56
:1007FA000A6A096A086A002AD8B4012AD8B4022AFD
:10080A00D8B4032A03AEA6D70E6A0E88FF0C0E6A66
:0A081A000CA001D06FDD000F1200EA
:100824000101DCBF02D08A9601D08A86DCBD02D0E9
:100834008A9401D08A84DCBB02D08A9201D08A8255
:10084400DCB902D08A9001D08A802AB102D08A8889
:1008540001D08A988A8A5DDD8A9ADCB702D08A96AA
:1008640001D08A86DCB502D08A9401D08A84DCB3B4
:1008740002D08A9201D08A82DCB102D08A9001D05F
:100884008A802AB102D08A8801D08A988A8A41DD76
:100894008A9A2AA102D040DD02D04EEC00F0120068
:1008A400400E006E1F0E016E000E026E036E1200EB
:1008B4000E0E0101D66F800ED319006E800E005CFF
:1008C40008E1000ED25D05E1000ED15D02E1000EEB
:1008D400D05D03E2010E006E01D0006A00C0D5F1C4
:1008E400005214E0006A016A026A036AD051005E91
:1008F400D151015AD251025AD351035A00C0D0F1F6
:1009040001C0D1F102C0D2F103C0D3F1020ED45D13
:1009140009E3D451100806E3D051D111D211D311F7
:1009240001E005D0120E006E010E016E81D0D5518A
:10093400D625006E016A000E0122004A012A5C0ECF
:100944000024E16E010E0120E26EE66A0101D0513D
:10095400D111D211D31151E0D6534FE0D551D62540
:10096400006E016A000E01225C0E0024D76F010E96
:100974000120D86FD4C104F0000E056E066E076E18
:10098400D0C100F0D1C101F0D2C102F0D3C103F053
:100994009ADE08C000F009C001F00AC002F00BC0E2
:1009A40003F07F0E0024F66E3A0E0120F76E000E5F
:1009B4000220F86E0900F5CF00F0D7C1E1FFD8C1DD
:1009C400E2FF00C0E6FF0101D607D4C104F0000E27
:1009D400056E066E076ED0C100F0D1C101F0D2C120
:1009E40002F0D3C103F06FDE00C0D0F101C0D1F139
:1009F40002C0D2F103C0D3F1A9D70101D5530EE04F
:100A0400D651010F006E016A000E01225C0E002413
:100A1400E16E010E0120E26E2D0EE66ED651010F3D
:100A2400006E016A000E01225C0E0026010E0122F6
:020A34001200AE
:100A360036DFE80E046E030E056E000E066E076EB8
:100A460018DE00C0D8F101C0D9F102C0DAF103C046
:100A5600DBF1D0C104F0D1C105F0000E066E076EC1
:100A660065DC00C0D8F101C0D9F102C0DAF103C0DB
:100A7600DBF100C005F001C006F002C007F003C0BC
:100A860008F00832073206320532089E083207326D
:100A960006320532089E05C000F006C001F007C008
:100AA60002F008C003F00332023201320032039E24
:100AB60000C0D4F101C0D5F1F2DED2C104F0D3C139
:100AC60005F0000E066E076ED4DDD4C109F0D5C15F
:100AD6000AF0000E0B6E0C6E030E086E09C004F0D1
:100AE6000AC005F00BC006F00CC007F0085007E07E
:100AF60004360490053606360736FF0FF8D716DC9F
:100B060000C0D8F101C0D9F102C0DAF103C0DBF1AF
:100B16000A0E046E000E056ED4C100F0D5C101F0B8
:100B26007BDD00C0D4F101C0D5F1000E015C02E10D
:100B3600030E005C01E242D021C1E9FF22C1EAFFB7
:100B46000101DB51000808E1DA51000805E1D9513D
:100B5600000802E1D85100082FE22351EF12D553C5
:100B66000DE0D66BD76B000ED75D02E1D551D65D91
:100B760005E2DC6B6CDDD64BD72BF5D7D4C1DCF1A7
:100B860066DD2451EF16D5530DE0D66BD76B000EFC
:100B9600D75D02E1D551D65D05E2DC6B58DDD64B5B
:100BA600D72BF5D7D4C1DCF152DD010ED85F000E8C
:0E0BB600D95BDA5BDB5BC4D72451EF1612006B
:0E0BC40001012A91D0C1DCF12BDE2A81120042
:100BD200700E0101D06F030ED16F770ED26F010E2E
:100BE200D36F28DF040E0B6ED10E0C6E9B0E0D6EB2
:100BF2000D2EFED70C2EFCD70B2EFAD7700E01014C
:100C0200D06F030ED16F770ED26F010ED36F12DF4A
:100C1200040E0B6ED10E0C6E9B0E0D6E0D2EFED7BA
:100C22000C2EFCD70B2EFAD7700E0101D06F030EDB
:100C3200D16F770ED26F010ED36FFCDE040E0B6EF6
:100C4200D10E0C6E9B0E0D6E0D2EFED70C2EFCD708
:100C52000B2EFAD7BA0E0101D06F020ED16F180E09
:100C6200D26F010ED36FE6DE030E0B6EDA0E0C6E40
:100C7200DB0E0D6E0D2EFED70C2EFCD70B2EFAD7E7
:100C8200160E0101D06F040ED16F5D0ED26F000EF1
:100C9200D36FD0DEF50E0C6E260E0D6E0D2EFED726
:100CA2000C2EFCD70000700E0101D06F030ED16F25
:100CB200770ED26F010ED36FBDDE040E0B6ED10E16
:100CC2000C6E9B0E0D6E0D2EFED70C2EFCD70B2E2E
:100CD200FAD7BA0E0101D06F020ED16F180ED26F81
:100CE200010ED36FA7DE030E0B6EDA0E0C6EDB0E57
:100CF2000D6E0D2EFED70C2EFCD70B2EFAD7160E2C
:100D02000101D06F040ED16F5D0ED26F000ED36F52
:100D120091DEF50E0C6E260E0D6E0D2EFED70C2EEC
:100D2200FCD70000700E0101D06F030ED16FEE0EE2
:100D3200D26F020ED36F7EDE080E0B6E9F0E0C6E0C
:100D42009F0E0D6E0D2EFED70C2EFCD70B2EFAD752
:100D5200260E0101D06F050ED16F770ED26F010EF4
:100D6200D36F68DE040E0B6ED10E0C6E9B0E0D6EF1
:100D72000D2EFED70C2EFCD70B2EFAD7260E010114
:100D8200D06F050ED16F770ED26F010ED36F52DE88
:100D9200040E0B6ED10E0C6E9B0E0D6E0D2EFED739
:100DA2000C2EFCD70B2EFAD7260E0101D06F050EA2
:100DB200D16F770ED26F010ED36F3CDE040E0B6E35
:100DC200D10E0C6E9B0E0D6E0D2EFED70C2EFCD787
:100DD2000B2EFAD7740E0101D06F050ED16F180ECB
:100DE200D26F010ED36F26DE030E0B6EDA0E0C6E7F
:100DF200DB0E0D6E0D2EFED70C2EFCD70B2EFAD766
:100E0200160E0101D06F040ED16F5D0ED26F000E6F
:100E1200D36F10DEF50E0C6E260E0D6E0D2EFED764
:100E22000C2EFCD700003E0E0101D06F030ED16FD5
:100E3200770ED26F010ED36FFDDD040E0B6ED10E55
:100E42000C6E9B0E0D6E0D2EFED70C2EFCD70B2EAC
:100E5200FAD7BA0E0101D06F020ED16F180ED26FFF
:100E6200010ED36FE7DD030E0B6EDA0E0C6EDB0E96
:100E72000D6E0D2EFED70C2EFCD70B2EFAD7160EAA
:100E82000101D06F040ED16F5D0ED26F000ED36FD1
:100E9200D1DDF50E0C6E260E0D6E0D2EFED70C2E2C
:100EA200FCD70000700E0101D06F030ED16FEE0E61
:100EB200D26F020ED36FBEDD080E0B6E9F0E0C6E4C
:100EC2009F0E0D6E0D2EFED70C2EFCD70B2EFAD7D1
:100ED200E00E0101D06F060ED16F770ED26F010EB8
:100EE200D36FA8DD040E0B6ED10E0C6E9B0E0D6E31
:100EF2000D2EFED70C2EFCD70B2EFAD7700E010149
:100F0200D06F030ED16F180ED26F010ED36F92DD28
:100F1200030E0B6EDA0E0C6EDB0E0D6E0D2EFED76F
:100F22000C2EFCD70B2EFAD7700E0101D06F030ED8
:100F3200D16F5D0ED26F000ED36F7CDDF50E0C6E9D
:100F4200260E0D6E0D2EFED70C2EFCD70000E00EE5
:100F52000101D06F060ED16F770ED26F010ED36FE3
:100F620069DD040E0B6ED10E0C6E9B0E0D6E0D2EF6
:100F7200FED70C2EFCD70B2EFAD77D0E0101D06FB7
:100F8200060ED16F180ED26F010ED36F53DD030E12
:100F92000B6EDA0E0C6EDB0E0D6E0D2EFED70C2EC6
:100FA200FCD70B2EFAD71F0E0101D06F060ED16FA0
:100FB2005D0ED26F000ED36F3DDDF50E0C6E260E68
:100FC2000D6E0D2EFED70C2EFCD70000C70E0101B0
:100FD200D06F050ED16F5D0ED26F000ED36F2ADD7A
:100FE200F50E0C6E260E0D6E0D2EFED70C2EFCD7B6
:100FF2000000260E0101D06F050ED16F5D0ED26F7B
:10100200000ED36F17DDF50E0C6E260E0D6E0D2E33
:10101200FED70C2EFCD70000740E0101D06F050E16
:10102200D16FBB0ED26F000ED36F04DD020E0B6EBA
:10103200E90E0C6E4C0E0D6E0D2EFED70C2EFCD74B
:101042000B2EFAD70000020E0B6EE90E0C6E4C0E40
:101052000D6E0D2EFED70C2EFCD70B2EFAD70000EC
:10106200A40E0101D06F030ED16FBB0ED26F000E22
:10107200D36FE0DC020E0B6EE90E0C6E4C0E0D6EA1
:101082000D2EFED70C2EFCD70B2EFAD70000DC0E4D
:101092000101D06F040ED16F770ED26F010ED36FA4
:1010A200C9DC040E0B6ED10E0C6E9B0E0D6E0D2E56
:1010B200FED70C2EFCD70B2EFAD7960E0101D06F5D
:1010C200040ED16F180ED26F010ED36FB3DC030E74
:1010D2000B6EDA0E0C6EDB0E0D6E0D2EFED70C2E85
:1010E200FCD70B2EFAD7540E0101D06F040ED16F2C
:1010F2005D0ED26F000ED36F9DDCF50E0C6E260EC8
:101102000D6E0D2EFED70C2EFCD70000160E01011F
:10111200D06F040ED16F5D0ED26F000ED36F8ADCDA
:10112200F50E0C6E260E0D6E0D2EFED70C2EFCD774
:101132000000DB0E0101D06F030ED16F5D0ED26F86
:10114200000ED36F77DCF50E0C6E260E0D6E0D2E93
:10115200FED70C2EFCD70000160E0101D06F040E34
:10116200D16FBB0ED26F000ED36F64DC020E0B6E1A
:10117200E90E0C6E4C0E0D6E0D2EFED70C2EFCD70A
:101182000B2EFAD70000020E0B6EE90E0C6E4C0EFF
:101192000D6E0D2EFED70C2EFCD70B2EFAD70000AB
:1011A200BA0E0101D06F020ED16FBB0ED26F000ECC
:1011B200D36F40DC020E0B6EE90E0C6E4C0E0D6E00
:1011C2000D2EFED70C2EFCD70B2EFAD700003E0EAA
:1011D2000101D06F030ED16F770ED26F010ED36F64
:1011E20029DC040E0B6ED10E0C6E9B0E0D6E0D2EB5
:1011F200FED70C2EFCD70B2EFAD7BA0E0101D06FF8
:10120200020ED16F180ED26F010ED36F13DC030ED4
:101212000B6EDA0E0C6EDB0E0D6E0D2EFED70C2E43
:10122200FCD70B2EFAD7700E0101D06F030ED16FCF
:101232005D0ED26F000ED36F1BEC05F0F50E0C6E37
:10124200260E0D6E0D2EFED70C2EFCD70000160EAC
:101252000101D06F040ED16F770ED26F010ED36FE2
:101262001BEC05F0040E0B6ED10E0C6E9B0E0D6E78
:101272000D2EFED70C2EFCD70B2EFAD7700E0101C5
:10128200D06F030ED16F180ED26F010ED36F1BEC0D
:1012920005F0030E0B6EDA0E0C6EDB0E0D6E0D2ECC
:1012A200FED70C2EFCD70B2EFAD7160E0101D06FEB
:1012B200040ED16F5D0ED26F000ED36F1BEC05F0E2
:1012C200F50E0C6E260E0D6E0D2EFED70C2EFCD7D3
:1012D2000000260E0101D06F050ED16FEE0ED26F07
:1012E200020ED36F1BEC05F0080E0B6E9F0E0C6EF8
:1012F2009F0E0D6E0D2EFED70C2EFCD70B2EFAD79D
:10130200E00E0101D06F060ED16F770ED26F010E83
:10131200D36F1BEC05F0040E0B6ED10E0C6E9B0E00
:101322000D6E0D2EFED70C2EFCD70B2EFAD7700E9B
:101332000101D06F030ED16F180ED26F010ED36F61
:101342001BEC05F0030E0B6EDA0E0C6EDB0E0D6E4F
:101352000D2EFED70C2EFCD70B2EFAD7700E0101E4
:10136200D06F030ED16F5D0ED26F000ED36F1BECE8
:1013720005F0F50E0C6E260E0D6E0D2EFED70C2E00
:10138200FCD70000E00E0101D06F060ED16F770E80
:10139200D26F010ED36F1BEC05F0040E0B6ED10E53
:1013A2000C6E9B0E0D6E0D2EFED70C2EFCD70B2E47
:1013B200FAD77D0E0101D06F060ED16F180ED26FD3
:1013C200010ED36F1BEC05F0030E0B6EDA0E0C6EE2
:1013D200DB0E0D6E0D2EFED70C2EFCD70B2EFAD780
:1013E2001F0E0101D06F060ED16F5D0ED26F000E7F
:1013F200D36F1BEC05F0F50E0C6E260E0D6E0D2E46
:10140200FED70C2EFCD70000C70E0101D06F050ECF
:10141200D16F5D0ED26F000ED36F1BEC05F0F50E8F
:101422000C6E260E0D6E0D2EFED70C2EFCD7000074
:10143200260E0101D06F050ED16F5D0ED26F000E28
:10144200D36F1BEC05F0F50E0C6E260E0D6E0D2EF5
:10145200FED70C2EFCD70000740E0101D06F050ED2
:10146200D16FBB0ED26F000ED36F1BEC05F0020ED4
:101472000B6EE90E0C6E4C0E0D6E0D2EFED70C2E61
:10148200FCD70B2EFAD70000020E0B6EE90E0C6E83
:101492004C0E0D6E0D2EFED70C2EFCD70B2EFAD74E
:1014A2000000A40E0101D06F030ED16FBB0ED26FEC
:1014B200000ED36F1BEC05F0020E0B6EE90E0C6EE4
:1014C2004C0E0D6E0D2EFED70C2EFCD70B2EFAD71E
:1014D2000000DC0E0101D06F040ED16F770ED26FC7
:1014E200010ED36F1BEC05F0040E0B6ED10E0C6EC9
:1014F2009B0E0D6E0D2EFED70C2EFCD70B2EFAD79F
:10150200960E0101D06F040ED16F180ED26F010E2C
:10151200D36F1BEC05F0030E0B6EDA0E0C6EDB0EB6
:101522000D6E0D2EFED70C2EFCD70B2EFAD7540EB5
:101532000101D06F040ED16F5D0ED26F000ED36F1A
:101542001BEC05F0F50E0C6E260E0D6E0D2EFED761
:101552000C2EFCD70000160E0101D06F040ED16FC5
:101562005D0ED26F000ED36F1BEC05F0F50E0C6E04
:10157200260E0D6E0D2EFED70C2EFCD70000DB0EB4
:101582000101D06F030ED16F5D0ED26F000ED36FCB
:101592001BEC05F0F50E0C6E260E0D6E0D2EFED711
:1015A2000C2EFCD70000160E0101D06F040ED16F75
:1015B200BB0ED26F000ED36F1BEC05F0020E0B6E4A
:1015C200E90E0C6E4C0E0D6E0D2EFED70C2EFCD7B6
:1015D2000B2EFAD70000020E0B6EE90E0C6E4C0EAB
:1015E2000D6E0D2EFED70C2EFCD70B2EFAD7000057
:1015F200BA0E0101D06F020ED16FBB0ED26F000E78
:10160200D36F1BEC05F0020E0B6EE90E0C6E4C0E46
:101612000D6E0D2EFED70C2EFCD70B2EFAD7000026
:101622003E0E0101D06F030ED16F770ED26F010E05
:10163200D36F1BEC05F0040E0B6ED10E0C6E9B0EDD
:101642000D6E0D2EFED70C2EFCD70B2EFAD7BA0E2E
:101652000101D06F020ED16F180ED26F010ED36F3F
:101662001BEC05F0030E0B6EDA0E0C6EDB0E0D6E2C
:101672000D2EFED70C2EFCD70B2EFAD7160E01011B
:10168200D06F040ED16F5D0ED26F000ED36F1BECC4
:1016920005F0F50E0C6E260E0D6E0D2EFED70C2EDD
:1016A200FCD70000700E0101D06F030ED16F770ED0
:1016B200D26F010ED36F1BEC05F0040E0B6ED10E30
:1016C2000C6E9B0E0D6E0D2EFED70C2EFCD70B2E24
:1016D200FAD7BA0E0101D06F020ED16F180ED26F77
:1016E200010ED36F1BEC05F0030E0B6EDA0E0C6EBF
:1016F200DB0E0D6E0D2EFED70C2EFCD70B2EFAD75D
:10170200160E0101D06F040ED16F5D0ED26F000E66
:10171200D36F1BEC05F0F50E0C6E260E0D6E0D2E22
:10172200FED70C2EFCD70000700E0101D06F030E05
:10173200D16FEE0ED26F020ED36F1BEC05F0080EC6
:101742000B6E9F0E0C6E9F0E0D6E0D2EFED70C2E85
:08175200FCD70B2EFAD71200A0
:10175A000101B66BB651B425E96E000EB521EA6EE9
:10176A00EE520CE0B651B425E96E000EB521EA6ED0
:0E177A00EECFD0F1E2EC05F0B62BECD712006A
:101788000101C86BC96BCA6BCB6BCC6BCD6BCE6BD5
:10179800CF6BB4C1C4F1B5C1C5F1B6C1C6F1B7C10B
:1017A800C7F1C7C100F0000EC7BFFF0E036E7F0E62
:1017B800005C016E01C0BFF1FF0EC415BB6FFF0EC8
:1017C800C515BC6FFF0EC615BD6F000EC715BE6FE1
:1017D800BD8F800E0118006E800E1F0A005C0DE29E
:1017E800800EBF19006E800EE90A005C06E3C45142
:1017F800C511C611C71101E005D0F60E006E000E26
:10180800016E80D1800EBF19006E800E170A005C31
:101818001BE3170EBF5D006E000EBFBFFF0E016E0B
:10182800000E015ABBC1C8F1BCC1C9F1BDC1CAF1A2
:10183800BEC1CBF1005007E0C837C891C937CA37D5
:10184800CB37FF0FF8D769D0800EBF19006E800E16
:10185800000A005C3DE3BF511708006E016A000EE4
:10186800BFBFFF0E015ABBC1C8F1BCC1C9F1BDC1A0
:10187800CAF1BEC1CBF1005009E0CB33CA33C9333A
:10188800C833CB9FCBBDCB8FFF0FF6D7BF51010F0E
:10189800006E016A000EBFBFFF0E0122BBC1CCF172
:1018A800BCC1CDF1BDC1CEF1BEC1CFF1005007E042
:1018B800CC37CC91CD37CE37CF37FF0FF8D7FF0EC7
:1018C800CC17FF0ECD17FF0ECE17000ECF1725D061
:1018D800FF0EBB15CC6FFF0EBC15CD6FFF0EBD15EF
:1018E800CE6F000EBE15CF6FBF51010F006E016A9B
:1018F800000EBFBFFF0E012200500008006E01500D
:10190800000E0156005009E0CF33CE33CD33CC332F
:10191800CF9FCFBDCF8FFF0FF6D7430EB96F010E04
:10192800BA6FC6AF08D0B9C1E1FFBAC1E2FF2D0E48
:10193800E66EB94BBA2B000E006ECB1908E10050C9
:10194800CA1905E10050C91902E1C851000A09E1A4
:10195800B9C1E1FFBAC1E2FF300EE66EB94BBA2B4E
:1019680025D0C8C1D0F1C9C1D1F1CAC1D2F1CBC10A
:10197800D3F10A0ED46F5AEC04F000C0C2F101C0D2
:10198800C3F1C2C1E9FFC3C1EAFFEE520FE0C2C111
:10199800E9FFC3C1EAFFB9C1E1FFBAC1E2FFEECF77
:1019A800E6FFB94BBA2BC24BC32BEBD7B9C1E1FF4A
:1019B800BAC1E2FF2E0EE66EB94BBA2B000E006ECE
:1019C800CF1908E10050CE1905E10050CD1902E108
:1019D800CC51000A09E1B9C1E1FFBAC1E2FF300EFA
:1019E800E66EB94BBA2B85D0B85305E0B8C102F002
:1019F800000E036E0ED0430EB95D006E010EBA598B
:101A0800016E00500F08006E000600C002F0000EC4
:101A1800036E02C0C1F10250070802E2070EC16F4F
:101A2800C06BC151C05D4AE2030E006ECCC105F027
:101A3800CDC106F0CEC107F0CFC108F0005007E0D5
:101A480005360590063607360836FF0FF8D7CCC19D
:101A580000F0CDC101F0CEC102F0CFC103F00036D5
:101A68000090013602360336005005260150062242
:101A7800025007220350082205C0CCF106C0CDF160
:101A880007C0CEF108C0CFF108C000F0000E08BEB4
:101A9800FF0E036E300E0026B9C1E1FFBAC1E2FFA6
:101AA80000C0E6FFB94BBA2BFF0ECC17FF0ECD17BF
:101AB800FF0ECE17000ECF17C02BB3D7010EB95F9C
:101AC800000EBA5BB9C1E9FFBAC1EAFFEE50300AAD
:101AD8000EE1FF0EB925E96EFF0EBA21EA6EEE504F
:101AE8002E0A05E0010EB95F000EBA5BEBD7B94BC1
:101AF800BA2BB9C1E1FFBAC1E2FFE66A430E006E34
:061B0800010E016E120047
:101B0E00B4C102F0B5C103F002C000F003C001F091
:101B1E00024A032A00C0E9FF01C0EAFFEE5201E0CB
:101B2E00F3D70101B451025C006EB5510358016E3A
:0A1B3E00010E005E000E015A1200B5
:101B48000B840BAEAFEF0DF0010E036E026A016A53
:0A1B5800006A0A360232FF0E120086
:101B6200C7B409D01F0EC514016E0150000A03E16B
:0A1B7200010E006E01D0006A12009F
:081B7C000AAE029E000E1200E9
:0E1B8400026A016A006A086A036A000E120013
:041B9200C5841200F4
:101B96009E96C5869EB601D0FDD7C9CF01F001013C
:101BA600A351000A02E1C58A01D0C59A9E96C5884E
:0C1BB6009EB601D0FDD701C000F0120067
:101BC2009E96A3C1C9FFC7A401D0FDD79EB601D07E
:101BD200FDD7C5BC02D0006A03D0C584020E006ED8
:021BE2001200EF
:101BE400100E0101B26F000EB36F020EA35D05E289
:101BF400800EDC6F12EC04F004D0C00EDC6F12EC2B
:101C040004F0A60EB06F010EB16FA4C100F0A5C11F
:101C140001F0A44BA52B00C0E9FF01C0EAFFEECF01
:101C240000F000C0ADF10052D8B46CD1AD51250A1A
:101C3400D8A45FD1A4C1E9FFA5C1EAFFEECFADF1FD
:101C4400A44BA52B2ED1B0C1E9FFB1C1EAFFEECF61
:101C540000F0EECF01F000C0AEF101C0AFF1020E12
:101C6400B027000EB12300C0B4F101C0B5F173DD9B
:101C740031D1010EB25F000EB35BB0C1E9FFB1C157
:101C8400EAFFEECFD0F1E2EC05F0B04BB12B22D15C
:101C9400B0C1E9FFB1C1EAFFEECFD0F1000ED3BF6E
:101CA400FF0ED16FD26FD36F000ED0BFFF0ED16F76
:101CB400D26FD36F0A0ED46F5AEC04F000C0AEF1A9
:101CC40001C0AFF1B04BB12B00C0B4F101C0B5F10C
:101CD40042DD00D1B0C1E9FFB1C1EAFFEECFD0F1DE
:101CE400EECFD1F1000ED3BFFF0ED26FD36F000E33
:101CF400D1BFFF0ED26FD36F0A0ED46F5AEC04F02B
:101D040000C0AEF101C0AFF1020EB027000EB12346
:101D140000C0B4F101C0B5F11EDDDCD0B0C1E9FFF3
:101D2400B1C1EAFFEECFD0F1EECFD1F1EECFD2F1D7
:101D3400EECFD3F10A0ED46F5AEC04F000C0AEF12A
:101D440001C0AFF1040EB027000EB12300C0B4F1FE
:101D540001C0B5F100DDBED0A4C1E9FFA5C1EAFF11
:101D6400EECFADF1A44BA52B5CD0B0C1E9FFB1C15E
:101D7400EAFFEECFD0F1000ED16FD26FD36F000E19
:101D8400D16FD26FD36F0A0ED46F5AEC04F000C037
:101D9400AEF101C0AFF1B04BB12B00C0B4F101C042
:101DA400B5F1D9DC47D0B0C1E9FFB1C1EAFFEECF4C
:101DB400D0F1EECFD1F1000ED26FD36F000ED26FFF
:101DC400D36F0A0ED46F5AEC04F000C0AEF101C018
:101DD400AFF1020EB027000EB12300C0B4F101C070
:101DE400B5F1B9DC27D0B0C1E9FFB1C1EAFFEECF4C
:101DF400D0F1EECFD1F1EECFD2F1EECFD3F10A0E86
:101E0400D46F5AEC04F000C0AEF101C0AFF1040E7F
:101E1400B027000EB12300C0B4F101C0B5F19BDCC2
:101E240009D0AD51730AA1E0AD51690ABCE0AD51CE
:101E34006C0AD9E04FD0300EAD5D2AE3AD513908BC
:101E440027E3A4C1E9FFA5C1EAFFEE50660A20E139
:101E5400B0C1E9FFB1C1EAFFEECFB4F1EECFB5F105
:101E6400EECFB6F1EECFB7F1300EAD5DB86F8ADCD0
:101E740000C0AEF101C0AFF1040EB027000EB123D3
:101E840000C0B4F101C0B5F166DCA44BA52B08D0A9
:101E9400010EB25F000EB35BADC1D0F1E2EC05F010
:101EA40019D0AD51610AD8B4CED6AD51630AD8B4B5
:101EB400E0D6AD51730AD8B4EBD6AD51690AD8B4A3
:101EC40009D7AD516C0AD8B429D7AD51750AD8B425
:101ED40043D7B1D7AE51AF110BE0AEC1B4F1AFC12E
:101EE400B5F113DE0050B25F0150B35BAE6BAF6B64
:101EF40008D0010EB25F000EB35BADC1D0F1E2ECCD
:101F040005F083D6B2C101F0B3C102F0010EB25F95
:101F1400000EB35B800E006E800E0218005C02E1BE
:101F24000150000805E2200ED06FE2EC05F0EAD77C
:021F3400120099
:101F36000C6A0E6A0250D8A4B4EF0FF001C002F08A
:101F460000C001F0006A0E860250D8A4B4EF0FF06C
:101F560001C002F0016A0E960E880250D8B4C6EF90
:101F66000FF00E50035ED8A4D8A0CBEF0FF0D89098
:101F760002BED0EF0FF0003601360236032EBBEF5D
:101F86000FF0CBEF0FF0010E0C6EF9DDD3EF0FF073
:101F9600020E0C6ED6DDD3EF0FF0040E0C6EEBDDE9
:021FA600120027
:101FA800080E036E035230E0A3C1E9FFA4C1EAFFA3
:101FB8000101A551EE18016E01AE12D0A3C1E9FFCF
:101FC800A4C1EAFFEECF02F002C000F00036009094
:101FD800A3C1E1FFA4C1E2FF310E0018E66E10D0E4
:101FE800A3C1E9FFA4C1EAFFEECF02F002C000F0EE
:101FF80000360090A3C1E1FFA4C1E2FF00C0E6FFE4
:0A200800A537A5910306CED71200FC
:102012000B820BAE13EF10F00368026801680068D0
:082022000A360232FF0E120023
:10202A000101A36BA46BA451120802E1A3518E080B
:10203A0008E392DD005201E004D00101A34BA42B76
:10204A00F2D70101120EA45D02E18F0EA35D03E334
:10205A007B0E006E05D0C580C5A001D0FDD7006AF1
:02206A00120062
:10206C00020E0101A35D05E2800EDC6F12EC04F0A0
:10207C0004D0C00EDC6F12EC04F0A46B100EA45D47
:10208C0006E2200ED06FE2EC05F0A42BF7D712007D
:06209C00E9EC05F0120062
:0A20A200C582C5A201D0FDD71200CF
:0820AC000B6A0B86FF0E120007
:0C20B4000E0E0D6E0D2EFED70000120067
:1020C0000134083609360450085E0550D8A0053C96
:1020D000095E003601360F0E0C6E013408360936E3
:1020E000045000A006D0085E0550D8A0053C095E4B
:1020F00005D008260550D8B0053C09260036013623
:102100000C2EEBD700B006D0045008260550D8B0EE
:08211000053C09260000120045
:1021180088DFA00E01012911A36F4FDD9CC1A3F137
:0C2128004CDD9DC1A3F149DD30DD12004B
:10213400010E0101A36F2F0EA46F000EA56F50DDD9
:0A214400020EA36F91DFA8DF120066
:10214E000101A26B9F51100805E30F0E9C15006E46
:10215E0001E102D0006A2DD061DFA00E010129112C
:10216E00A36F28DD9CC1A3F125DD0101A06B9F515A
:10217E00A05D1CE2A0519D25E96E000E9E21EA6E27
:10218E00EECF00F000C0A1F100C0A3F113DDA20E4E
:10219E000101A36F010EA46FA1C1A5F1FEDE350EE4
:1021AE000D6E0D2EFED70101A02BE1D7EBDCA2C1E7
:0421BE0000F012001B
:1021C200086A080E0C6E003408360450085ED8B057
:0E21D20002D00826D89000360C2EF5D7120049
:1021E000A0C100F00101A007005228E09CC1E9FF56
:1021F0009DC1EAFFEE50000A0CE09CC1E9FF9DC1C1
:10220000EAFF9EC1D9FF9FC1DAFFEE50DE1801E15F
:102210000FD09CC1E9FF9DC1EAFF9EC1D9FF9FC1BC
:10222000DAFFDE50EE5C006E016A000E015A08D043
:1022300001019C4B9D2B9E4B9F2BD2D7006A016ABC
:0222400012008A
:102242000A6A0350D8A40A800750D8A40A820A5006
:10225200D8B484EF11F0030AD8B43DEF11F00AB0FC
:1022620038EF11F006AE82EF11F080EF11F002AEFE
:1022720080EF11F082EF11F00250800B0A6E029E85
:102282000650800B069E0A18D8B44EEF11F00A5081
:10229200D8B480EF11F082EF11F00750035CD8B48C
:1022A20058EF11F0D8A074EF11F07AEF11F0065048
:1022B200025CD8B462EF11F0D8A074EF11F07AEF9B
:1022C20011F00550015CD8B46CEF11F0D8A074EF96
:1022D20011F07AEF11F00450005CD8B484EF11F0E1
:1022E200D8B07AEF11F00A52D8B482EF11F080EF31
:1022F20011F00A52D8B480EF11F082EF11F0D880B9
:0E2302001200D8901200D880D8841200120069
:10231000C30EC2169CC100F000360090003600903B
:102320000050C212C7DEC282C2A201D0FDD7C4CF04
:0E23300001F0006AC3500012000E01121200EC
:10233E000450000A12E10550000A0FE10650000A8F
:10234E000CE10750000A09E1FF0E006EFF0E016E50
:10235E007F0E026EFF0E036EA6D0086A096A075042
:10236E00D8B44AEF12F00350D8B44EEF12F0025028
:10237E0006180A6E028E068E0E6A02C008F001C0A2
:10238E000CF000C00DF004500D5E0550D8A0053CB9
:10239E000C5E0650D8A0063C085E086A0C6A0D6AF0
:1023AE00D8A0E1EF11F0D89002320132003208329B
:1023BE00010E0E6E0750035ED8A0EEEF11F07E0EEA
:1023CE000E240326D8B053EF12F0F4EF11F07E0E68
:1023DE000E240326D8A057EF12F0180E0B6E0D36F2
:1023EE000C3608360036013602360E360450005EC4
:1023FE000550D8A0053C015E0650D8A0063C025EF2
:10240E0006340E120EA00FEF12F00D801AEF12F01E
:10241E00045000260550D8B0053C01260650D8B011
:10242E00062802260D900B2EF6EF11F040EF12F05B
:10243E00D8900036013602360E360450005E055036
:10244E00D8A0053C015E0650D8A0063C025E0634BC
:10245E000E10010B0D26D8B00C2AD8B4082AD8A419
:10246E0040EF12F008320C320D32032AD8B453EF7B
:10247E0012F00AAE089E0850026E0C50016E0D50FE
:10248E00006E5AEF12F0010E0ADE5AEF12F0020E33
:10249E00C2EC0DF05AEF12F0040EB4DD5AEF12F04A
:0824AE00080EA4EC0DF0120071
:0E24B600ACB202D00000FCD79CC1ADFF1200FA
:1024C4000450000A08E10550000A05E1FF0E006E01
:1024D4007F0E016E57D00D6A096A086A0150001018
:1024E400D8B4000C015005180A6E0ABE0D1E0B6A02
:1024F40005AE05D0041E051E042AD8B4052A01AE73
:1025040005D0001E011E002AD8B4012A015005106E
:102514000A6E0ABE10D0D2DD0BB020D00DAE000C76
:10252400001E011E002AD8B4012A081E091E082A0A
:10253400D8B4092A000C05AE0DD001BE07D0015055
:10254400096E0050086E016A006AE8D7016A006AE1
:10255400002A000C011E001E0B2ADDD7082AD8B45D
:10256400092A0450085CD8A4D9D70550095CD8A41A
:10257400D5D7096A086A002AD8B4012A01AECED791
:062584000000FF0C120034
:10258A009CC1E9FF9DC1EAFFEE5001019E1905E1D8
:10259A009CC100F09DC101F010D09CC100F09DC10A
:1025AA0001F09C4B9D2B00C0E9FF01C0EAFFEECF72
:0C25BA0000F00052E5E1006A016A120026
:1025C6009EC104F09FC105F09CC102F09DC103F0BD
:1025D600A0C100F0A1C101F0010E0101A05F000E33
:1025E600A15B005001100FE004C0E9FF05C0EAFF3F
:1025F60002C0E1FF03C0E2FFEECFE6FF024A032A74
:10260600044A052AE5D79CC100F09DC101F01200DD
:102616000050086E0150006E016A026A036A0B6A76
:102626000C6A960E036E0A6A00C001F008C000F03C
:08263600086A026A7DDC120053
:10263E000101A26BF3DCA00E01012911A36FE1ECE5
:10264E000DF09CC1A3F1E1EC0DF024DDA00E010113
:10265E002911A36FA381E1EC0DF00101A06B9F0581
:10266E00016E026A000E025A800E006E800E021873
:10267E00005C02E10150A05D1DE2010EA36FCBECE8
:10268E000DF000C0A1F1A20E0101A36F010EA46F07
:10269E0000C0A5F182DC0101A0519D25E16E000E66
:1026AE009E21E26EA1C1E6FF350E0D6E0D2EFED7F8
:1026BE00A02BD5D7A36BCBEC0DF000C0A1F1A20ED1
:1026CE000101A36F010EA46F00C0A5F166DC01012C
:1026DE00A0519D25E16E000E9E21E26EA1C1E6FF86
:1026EE00B1EC0DF0005201E1FBD7C9EC0DF0A2C127
:0426FE0000F01200D6
:10270200086A096A000E0762036406EF14F00250B9
:1027120006180A6E075003267E0ED8A097EF13F014
:10272200035ED8B00BEF14F09BEF13F0035ED8A05A
:1027320010EF14F0028E068E02C00EF001C00BF0F4
:1027420000C00DF000500402F4CF0CF0015005025D
:10275200F4CF00F0F3CF08F00402F3500C26F4504B
:102762000822000E00220D500502F3500C26F450F0
:102772000822000E002202500402F3500826F450F0
:10278200002202500502016A000E0122F3500026C7
:10279200F45001220D500602F3500826F450002294
:1027A200026A000E012202220B500602F35000269A
:1027B200F4500122000E02220E500602F3500126AE
:1027C200F450022202BEEEEF13F008360036013654
:1027D20002360306D8B410EF14F001EF14F0D880DB
:1027E200800E08640030000E002201220222D8A0CE
:1027F20001EF14F0023201320032034A0BEF14F0FF
:102802000AAE029E000E13EF14F0010EC2EC0DF0A0
:1028120013EF14F0020E09EC10F013EF14F0040E93
:06282200A4EC0DF0120011
:10282800060E01019C6F70DDF2DE0EC104F00FC1CF
:1028380005F010C106F011C107F05FDF0A0E046E43
:10284800D70E056E230E066E820E076E74DD12001B
:1028580015EC10F0A00E01012911A36FE1EC0DF0A9
:1028680095C1A3F1E1EC0DF018DCA00E01012911CE
:10287800A36FA381E1EC0DF00101A36BCBEC0DF08C
:1028880000C096F1B1EC0DF0005201E1FBD7C9ECA4
:082898000DF096C100F01200E2
:0A28A000E60E006E000E016E12003D
:1028AA000001C35301E138D095C104F096C105F087
:1028BA0097C106F098C107F0ADC000F0AEC001F0B4
:1028CA00AFC002F0B0C003F0B7DC010ED8B0000E02
:1028DA00006E005206E0C25304E1010EC26F25DC0D
:1028EA001BD095C104F096C105F097C106F098C1B6
:1028FA0007F0ADC000F0AEC001F0AFC002F0B0C04A
:10290A0003F09ADC000ED8B0010E006E005204E00B
:0A291A000001C253D8A4C26B1200E2
:0A292400FB0E006E000E016E1200A3
:10292E00F29AE60E01019C6F000E9D6F95C19EF10D
:10293E0096C19FF1060EA06F000EA16F3DDE0B0E2D
:0A294E00D76EDC0ED66EF28A12007E
:10295800410E01019C6FABDD430E01019C6FA7DDA9
:102968004B0E01019C6FA3DD0A0E01019C6F9FDDD8
:0229780012004B
:10297A006D0E01019C6F010E9D6F95C19EF196C16E
:10298A009FF1060EA06F000EA16F18DE97C173F1BA
:10299A0098C174F199C175F19AC176F1C4C09CF1DC
:1029AA006D0E9D6F010E9E6F0A0E9F6FA7EC10F0C1
:1029BA00F00E0001C415006EF00E046EE1EC10F08A
:1029CA0008C000F0100E0024016E01C0C4F0C55109
:1029DA0001180CE1F00EC515006EF00E046EE1EC64
:0E29EA0010F008C000F0100E0024C56F12009F
:1029F8000001C551C41903E1006A016A1BD0C5C0B2
:102A08009CF1520E01019D6F010E9E6F0A0E9F6F81
:102A180012DEF00E0001C515006EF00E046EE1EC3A
:102A280010F008C000F0100E0024C56F520E006EA2
:062A3800010E016E120008
:102A3E0095C1ADF096C1AEF097C1AFF098C1B0F0B0
:082A4E00010E0001C36F12002C
:102A5600ADC000F0AEC001F0AFC002F0B0C003F0F0
:022A660012005C
:102A6800DA0E01019C6F000E9D6F95C19EF196C113
:102A78009FF1060EA06F000EA16FA1DD97C1E0F0D7
:102A880098C1E1F099C1E2F09AC1E3F0C5C0E4F061
:102A9800C4C0E5F00001EC6B01019C6BDA0E9D6F80
:102AA800000E9E6F0C0E9F6FA7EC10F000C09BF1FC
:102AB8000D0E0C6EFB0E0D6E0D2EFED70C2EFCD7D8
:102AC800000000000C0E9C6F9BC19DF18CEC10F077
:022AD8001200EA
:102ADA00C60E01019C6F000E9D6F95C19EF196C1B5
:102AEA009FF10A0EA06F000EA16F68DD976B0A0EA8
:102AFA00975D0EE2C60EE96E000EEA6E9751E92660
:102B0A00D8B0EA2AEECF9CF1D1DC0101972BEFD79E
:082B1A000A0E9C6FCBDC1200D7
:102B22000101976B2B0E986F010E996F97519827A1
:102B3200D8B0992B050E9525D96E000E9621DA6E26
:102B42006C0E006E070E016EDE500026D8B0012A10
:102B5200E80E046E030E056EB4DC300E002698C13A
:102B6200E1FF99C1E2FF00C0E6FF0101972B2B0EA6
:102B7200986F010E996F97519827D8B0992B050E2F
:102B82009525D96E000E9621DA6E6C0E006E070E38
:102B9200016EDE500026D8B0012AE80E046E030E44
:102BA200056E8FDC08C000F009C001F0640E046EEF
:102BB200000E056E86DC300E002698C1E1FF99C139
:102BC200E2FF00C0E6FF0101972B2B0E986F010E6A
:102BD200996F97519827D8B0992B050E9525D96EE4
:102BE200000E9621DA6E6C0E006E070E016EDE503C
:102BF2000026D8B0012A640E046E000E056E61DC58
:102C020008C000F009C001F00A0E046E000E056E45
:102C120058DC300E002698C1E1FF99C1E2FF00C0E6
:102C2200E6FF0101972B2B0E986F010E996F9751BA
:102C32009827D8B0992B050E9525D96E000E9621AE
:102C4200DA6E6C0E006E070E016EDE500026D8B0F2
:102C5200012A0A0E046E000E056E33DC08C000F075
:102C620009C001F0300E002698C1E1FF99C1E2FFD0
:102C720000C0E6FF0101972B2B0EE16E010EE26E02
:102C82009751E126D8B0E22A2D0EE66E972B2B0E35
:102C9200986F010E996F97519827D8B0992B040E0F
:102CA2009525E96E000E9621EA6EEECF00F00A0E2F
:102CB200046EE1EC10F0300E002698C1E1FF99C1DC
:102CC200E2FF00C0E6FF972B2B0E986F010E996F63
:102CD20097519827D8B0992B040E9525E96E000ECE
:102CE2009621EA6EEECF00F00A0E046EE1EC10F0CF
:102CF20008C000F0300E002698C1E1FF99C1E2FF42
:102D020000C0E6FF972B2B0EE16E010EE26E97518B
:102D1200E126D8B0E22A2D0EE66E972B2B0E986F85
:102D2200010E996F97519827D8B0992B030E9525CC
:102D3200E96E000E9621EA6EEECF00F00A0E046EE6
:102D4200E1EC10F0300E002698C1E1FF99C1E2FFDC
:102D520000C0E6FF972B2B0E986F010E996F9751CB
:102D62009827D8B0992B030E9525E96E000E96216F
:102D7200EA6EEECF00F00A0E046EE1EC10F008C02D
:102D820000F0300E002698C1E1FF99C1E2FF00C0B9
:102D9200E6FF972B2B0EE16E010EE26E9751E126B4
:102DA200D8B0E22A200EE66E972B2B0E986F010EFA
:102DB200996F97519827D8B0992B020E9525E96EF5
:102DC200000E9621EA6EEECF00F00A0E046EE1ECE0
:102DD20010F0300E002698C1E1FF99C1E2FF00C059
:102DE200E6FF972B2B0E986F010E996F975198273C
:102DF200D8B0992B020E9525E96E000E9621EA6E47
:102E0200EECF00F00A0E046EE1EC10F008C000F004
:102E1200300E002698C1E1FF99C1E2FF00C0E6FF33
:102E2200972B2B0EE16E010EE26E9751E126D8B080
:102E3200E22A3A0EE66E972B2B0E986F010E996FCF
:102E420097519827D8B0992B010E9525E96E000E5F
:102E52009621EA6EEECF00F00A0E046EE1EC10F05D
:102E6200300E002698C1E1FF99C1E2FF00C0E6FFE3
:102E7200972B2B0E986F010E996F97519827D8B008
:102E8200992B010E9525E96E000E9621EA6EEECF82
:102E920000F00A0E046EE1EC10F008C000F0300EF3
:102EA200002698C1E1FF99C1E2FF00C0E6FF972B1F
:102EB2002B0EE16E010EE26E9751E126D8B0E22AA6
:102EC2003A0EE66E972B2B0E986F010E996F975163
:102ED2009827D8B0992B95C1E9FF96C1EAFFEECFAA
:102EE20000F00A0E046EE1EC10F0300E002698C1DC
:102EF200E1FF99C1E2FF00C0E6FF972B2B0E986F0E
:102F0200010E996F97519827D8B0992B95C1E9FF77
:102F120096C1EAFFEECF00F00A0E046EE1EC10F06B
:102F220008C000F0300E002698C1E1FF99C1E2FF0F
:102F320000C0E6FF972B2B0EE16E010EE26E975159
:102F4200E126D8B0E22AE66A972B2B0E006E010E1C
:042F5200016E1200FA
:102F5600000E0101961902E1000E951937E095C1A0
:102F6600E9FF96C1EAFFEE5231E097C1B4F198C18C
:102F7600B5F187EC0DF000C0A0F195C19CF196C1AA
:102F86009DF197C19EF198C19FF1F0EC10F0000EF3
:102F9600011802E1000E001805E195C100F096C186
:102FA60001F016D0010E010195259C6F000E9621A9
:102FB6009D6F97C1E9FF98C1EAFFEECF9EF1C5EC80
:102FC60012F000C095F101C096F1C2D7006A016AFD
:022FD6001200E7
:102FD80027DC00C08DF101C08EF102C08FF103C063
:102FE80090F15ADC00C095F101C096F18DC197F1BE
:102FF8008EC198F18FC199F190C19AF1BADC0D0E8A
:103008000C6EFB0E0D6E0D2EFED70C2EFCD700009D
:1030180000001DDD00C08DF101C08EF102C08FF1EE
:1030280003C090F139DC00C095F101C096F18DC163
:1030380097F18EC198F18FC199F190C19AF110DD85
:02304800120074
:0C304A00100E0001C46F100EC56F1200C4
:10305600D0DC00C08DF101C08EF10050011006E0F9
:103066008DC195F18EC196F135DDF2D772DC120075
:103076000001EC5326E101019C6BDA0E9D6F000EF8
:103086009E6F0C0E9F6F1FEC13F000C08DF10D0E9E
:103096000C6EFB0E0D6E0D2EFED70C2EFCD700000F
:1030A60000000C0E0101956F2CEC14F001018D51FE
:1030B600001804E1010E0001EC6F03D0006A016AFA
:1030C60008D0E4C0C5F0E5C0C4F0DA0E006E000E0C
:0430D600016E120075
:1030DA0024DC00C0E9FF01C0EAFFEECF95F1EECF94
:1030EA0096F1EECF97F1EECF98F1A4DC30DC010E29
:1030FA000101A36F4C0EA46F000EA56FF2EC0DF048
:10310A00A5DC00C0A6F101C0A7F102C0A8F103C066
:10311A00A9F1020EA36F450EA46F000EA56FDF0E74
:10312A00AA6FF2EC0DF00B0E0B6E260E0C6E5D0EF6
:10313A000D6E0D2EFED70C2EFCD70B2EFAD70000E3
:04314A00000012006F
:10314E0092EC14F000C095F101C096F197EC14F0DA
:06315E00ACEC14F01200BD
:10316400949894968B988B9694889486C79EC79CC3
:06317400380EC66E1200C9
:10317A0014EC14F000C08DF101C08EF102C08FF181
:10318A0003C090F150EC14F000C095F101C096F123
:10319A00C3DC00C091F101C092F100C095F101C0F9
:1031AA0096F12D0E976F000E986FD0DE00C093F146
:1031BA0001C094F100C0E1FF01C0E2FFE66A01012B
:1031CA00934B942B010EA36F240EA46F000EA56FD0
:1031DA0091C1A6F192C1A7F1F2EC0DF0020EA36F14
:1031EA003B0EA46F000EA56F93C1A6F194C1A7F17F
:1031FA008DC1A8F18EC1A9F18FC1AAF190C1ABF11D
:10320A00DF0EAC6FF2EC0DF08DC195F18EC196F127
:0E321A008FC197F190C198F155EC14F012009D
:10322800070E01018715296F29372991140EC86ED9
:0432380095DF12000C
:10323C001CDF00C087F101C088F100C095F101C00E
:10324C0096F197EC14F0060E8725E96E000E882196
:10325C00EA6EEECF95F1EECF96F1EECF97F1EECF81
:08326C0098F11FEC15F01200AF
:1032740010D0800E0101876F1AD0C00E876F17D04F
:10328400940E876F14D0D40E876F11D0800E876F81
:103294000ED001018751010AECE08751020AEDE0EA
:1032A4008751030AEDE08751040AEDE0EFD7880562
:1032B400006E8751002600C087F100C0DCF112ECDB
:1032C40004F02A918B6B8B518925E96E000E8A21BB
:1032D400EA6EEE520CE08B518925E96E000E8A21CC
:1032E400EA6EEECFD0F1E2EC05F08B2BECD72A811D
:0232F4001200C6
:1032F600939A939893909392939493968A9A8A9892
:103306008A968A948A928A908EEC01F08EEC01F06D
:103316008EEC01F08A828A808A8A8BEC01F08A9A86
:103326008EEC01F08A8A8BEC01F08A9A8EEC01F021
:103336008A8A8BEC01F08A9A8EEC01F08A908A8A4E
:103346008BEC01F08A9A8EEC01F08A8A8BEC01F004
:103356008A9A8A928A868A8A8BEC01F08A9A8EECFD
:1033660001F08A968A808A8A8BEC01F08A9A8A9082
:103376008A8A8BEC01F08A9A8EEC01F08A8A8BECB1
:1033860001F08A9A8A808A8A8BEC01F08A9A8EECFE
:1033960001F08A908A8A8BEC01F08A9A8A868A845E
:1033A6008A828A808A8A8BEC01F08A9A8EEC01F0F6
:0633B60001012A81120052
:1033BC0087C121F188C122F189C101F0010E006E93
:1033CC00015004E000360090FF0FFBD700C023F142
:1033DC00001E00C024F1120E01018725E96E000EBB
:1033EC008821EA6E0050EF16120EE95E0050EF16BF
:0233FC001200BD
:1033FE00700E0101D06F030ED16FE80ED26F030E67
:08340E00D36F1BEC05F0120066
:10341600F250026EF29E0500FF6A0150FE6E0050E9
:08342600FD6E02BEF28E1200E1
:10342E00010E0101A36FB10EA46F000EA56FF2EC99
:10343E000DF0020EA36F36EC10F00B0E0B6E260E77
:10344E000C6E5D0E0D6E0D2EFED70C2EFCD70B2EB8
:10345E00FAD700000000876B886B896B010E8A6FAC
:10346E00010E8B6F460E8C6F870E956F010E966F49
:10347E0097EC14F0000E956F000E966F340E976F4A
:0C348E00850E986F1FEC15F0D9DD1200C0
:10349A00100E0101256F230E266F9C0E276F010E59
:0E34AA00286FC26A070EC012C08EC2801200C8
:1034B800B60E01017F6F240E806F9C0E816F010E86
:1034C800826FD60E7B6F350E7C6F000E7D6F000EFF
:1034D8007E6FFF0E776FFF0E786F000E796F000E0C
:1034E8007A6FFF0E3F6FFF0E406F000E416F000EA8
:1034F800426FAC8A900EAB6E948E949C9EAA03D0B9
:08350800AECF00F0FBD712006A
:10351000820E0101876F0F0E886F020E896F4EDFDA
:043520006EDF120048
:103524005C505B1801E154D05CC000F0000E016EE9
:103534000036009001360036009001365D0E0024FE
:10354400E96E000E0120EA6EEE50EE10EE10EE1061
:103554002DE05CC000F0000E016E003600900136D4
:103564000036009001365D0E0024E96E000E012045
:10357400EA6EEECF00F0EECF01F0EECF02F0EECF28
:1035840003F047DF5CC000F0000E016E00360090CF
:1035940001360036009001365D0E0024E16E000E07
:1035A4000120E26EE66AE66AE66AE66A5C50010FAA
:1035B400006E016A000E0122140E046E000E056EE8
:1035C40062EC12F008C000F009C001F000C05CF029
:0235D4001200E3
:1035D600AECF01F0ABA202D0AB98AB8801C000F031
:0235E6001200D1
:1035E8005BC000F0000E016E003600900136003618
:1035F800009001365D0E0024E16E000E0120E26E9F
:10360800DEC1E6FFDFC1E6FFE0C1E6FFE1C1E6FF9C
:103618005B50010F006E016A000E0122140E046E49
:10362800000E056E62EC12F008C000F009C001F04F
:1036380000C05BF05B505C1812E15C50010F006E3B
:10364800016A000E0122140E046E000E056E62EC73
:1036580012F008C000F009C001F000C05CF01200D0
:1036680046DE010EDC6F12EC04F00C0EDC6F12EC7F
:1036780004F0010E876F050E886FED0E896F000E3E
:063688008A6FF4DD120060
:10368E003BD0B886060EB06E820EAF6EAC840DDFE8
:10369E004CD0B886030EB06E400EAF6EAC8405DF14
:1036AE0044D0B886010EB06EA00EAF6EAC84FDDEB7
:1036BE003CD0B886B06ACF0EAF6EAC84F6DE35D095
:1036CE00B886B06A670EAF6EAC84EFDE2ED0B886C9
:1036DE00B06A330EAF6EAC84E8DE27D0B886B06A1F
:1036EE00220EAF6EAC84E1DE20D0B886B06A100E2A
:1036FE00AF6EAC84DADE19D001018351000AC1E04D
:10370E008351010AC6E08351020ACBE08351030ABA
:10371E00D0E08351040AD4E08351050AD8E08351E6
:10372E00060ADCE08351070AE0E09E9A9D8A1200A9
:10373E00840ED56E0B0ED76EDC0ED66EF28A12008C
:10374E00010E0101876F69DD8FDC0050011002E070
:08375E006EDD01D065DE1200F2
:10376600020E0F013C6F968295DE83C10EF184C175
:0C3776000FF185C110F186C111F11200A5
:103782000001E651010F006E00C0E6F0E6513B0871
:1037920050E2E66BE751010F006E00C0E7F0E7511F
:1037A2003B083DE2E76BE851010F006E00C0E8F014
:1037B200E851170834E2E86BE951010F006E00C0CE
:1037C200E9F0EA05006E016A000E015A150E0024A6
:1037D200D96E010E0120DA6EE951DE5C20E2010EA3
:1037E200E96FEA51010F006E00C0EAF0EA510C08DD
:1037F20016E2010EEA6FEB51010F006E00C0EBF012
:10380200EB5303E0010E006E01D0006A005204E1A6
:103812001D0E0101166F03D001011C0E166F01016E
:10382200D80EDE6F2F0EDF6F000EE06F000EE16F1D
:10383200DADE7A0E0101DE6F310EDF6F000EE06F0D
:10384200000EE16FD0DE0B0ED76EDC0ED66EF29458
:02385200120062
:10385400C0DE00C0DDF100500A0A2FE121D04E0E77
:103864000101DE6F310EDF6F000EE06F000EE16FBD
:10387400B9DE20D0DA0E0101DE6F300EDF6F000EEC
:10388400E06F000EE16FAEDE15D0560E0101DE6F63
:10389400300EDF6F000EE06F000EE16FA3DE0AD082
:1038A4000001FA51540ADBE0FA51520AE3E0FA51FA
:1038B4004C0AEBE00101146B0CD00101FA0EE16E2D
:1038C400000EE26E1451E126D8B0E22ADDC1E6FF13
:0638D400142B9E9A120065
:1038DA000900F5CFE6FF0006FBE10106F9E1120057
:1038EA00D09EF28EF2BE02D0F29C01D0F28C15DE8E
:0438FA00FED71200E3
:1038FE00FF0E966E96CF95FF95CF94FF94CF93FFC4
:10390E0093CF92FF0F013C6B3CCF3BFF3BCF3AFF77
:10391E003ACF39FF39CF38FF8D6A8DCF8CFF8CCFE0
:10392E008BFF8BCF8AFF8ACF89FF89CF60FFC06A5A
:10393E00C0CFC1FFC1CFC2FF789E78BE02D0799EA4
:10394E0001D0798E8ADEDDDDF3DE330E0101836F69
:10395E00330E846F530E856F800E866FFDDEF0DEA4
:0A396E00030E0101836F8CDE1200CE
:0A39780048EC1DF0C0DFB5DFFFD7FB
:103A900010EE24F0FD0E006E010E016E820EF66E29
:0E3AA000390EF76E000EF86E6DEC1CF0120081
:0939820025612020205B545D004A
:02398B0020001A
:0C398D002020202020414C41524D210000
:0A39990025612025326625634300F6
:0739A3002532662563430095
:0F39AA004E6577207468726573686F6C643A00BD
:1039B90000000000000000000000000000000000FE
:1039C90000000000000000000000000000000000EE
:1039D90000000000000000000000000000000000DE
:1039E90000000000000000000000000000000000CE
:1039F90000000000000000000000000000000000BE
:023A09000000BB
:043A0B0000003485FE
:103A0F004C6F6164696E672064656661756C747371
:013A1F0000A6
:013A200000A5
:013A210000A4
:013A22001093
:013A23001092
:103A24000000000000000000000000000000000092
:043A3400000000008E
:0C3A380000000001014600003485101061
:063A440000000001014634
:013A4A00007B
:093A4B0052656164792E2E2E00F3
:043A5400302E3000E0
:103A5800000000000000000000000000000000005E
:043A6800000000005A
:043A6C000000000056
:023A7000300024
:013A72000053
:0C3A73001F1C1F1E1F1E1F1F1E1F1E1FDA
:103A7F003031323334353637383941424344454695
:013A8F000036
:020000040030CA
:0D000100231F3CFFBD81FF0FC00FE00F402B
:00000001FF
