:0400000063EF1CF09E
:1000080000C01FF001C01EF002C01DF004C01CF0AB
:1000180005C01BF008C01AF009C019F00AC018F092
:100028000BC017F00CC016F00DC015F0D9CF22F098
:10003800DACF23F0E1CF20F0E2CF21F0F2A405D00F
:10004800F2AA03D06AEC1BF006D09EAA04D09DAA9F
:1000580002D0D1EC1BF01FC000F01EC001F01DC083
:1000680002F01CC004F01BC005F01AC008F019C04B
:1000780009F018C00AF017C00BF016C00CF015C034
:100088000DF020C0E1FF21C0E2FF22C0D9FF23C04C
:04009800DAFF11007A
:10009C000F0E0C6E470E0D6E0D2EFED70C2EFCD7D0
:0600AC000000000012003C
:0600B20000000000120036
:0A00B800210E0D6E0D2EFED7120072
:1000C2000450085E0550D8A0053C095E0650D8A031
:1000D200063C0A5E0750D8A0073C0B5E0336070EAB
:1000E2000C6E0334083609360A360B36045003A068
:1000F2000ED0085E0550D8A0053C095E0650D8A077
:10010200063C0A5E0750D8A0073C0B5E0DD00826BD
:100112000550D8B0053C09260650D8B0063C0A2640
:100122000750D8B0073C0B2603360C2EDAD7023420
:10013200083609360A360B36045003A00ED0085E84
:100142000550D8A0053C095E0650D8A0063C0A5EC0
:100152000750D8A0073C0B5E0DD008260550D8B03A
:10016200053C09260650D8B0063C0A260750D8B0EE
:10017200073C0B260236070E0C6E0234083609368F
:100182000A360B36045002A00ED0085E0550D8A0E5
:10019200053C095E0650D8A0063C0A5E0750D8A06E
:1001A200073C0B5E0DD008260550D8B0053C092649
:1001B2000650D8B0063C0A260750D8B0073C0B269A
:1001C20002360C2EDAD70134083609360A360B36D7
:1001D200045002A00ED0085E0550D8A0053C095E6E
:1001E2000650D8A0063C0A5E0750D8A0073C0B5E1A
:1001F2000DD008260550D8B0053C09260650D8B0C7
:10020200063C0A260750D8B0073C0B260136070EDB
:100212000C6E0134083609360A360B36045001A03A
:100222000ED0085E0550D8A0053C095E0650D8A045
:10023200063C0A5E0750D8A0073C0B5E0DD008268C
:100242000550D8B0053C09260650D8B0063C0A260F
:100252000750D8B0073C0B2601360C2EDAD70034F3
:10026200083609360A360B36045001A00ED0085E55
:100272000550D8A0053C095E0650D8A0063C0A5E8F
:100282000750D8A0073C0B5E0DD008260550D8B009
:10029200053C09260650D8B0063C0A260750D8B0BD
:1002A200073C0B260036070E0C6E00340836093662
:1002B2000A360B36045000A00ED0085E0550D8A0B6
:1002C200053C095E0650D8A0063C0A5E0750D8A03D
:1002D200073C0B5E0DD008260550D8B0053C092618
:1002E2000650D8B0063C0A260750D8B0073C0B2669
:1002F20000360C2EDAD700B00ED004500826055076
:10030200D8B0053C09260650D8B0063C0A2607504C
:08031200D8B0073C0B261200D5
:10031A000B1E0A1E091E081E082AD8B4092AD8B4B8
:08032A000A2AD8B40B2A1200C4
:100332000B6A0A6A096A086A0E6A033408360450AC
:10034200085E0550D8A0053C095E0650D8A0063CC0
:100352000A5E0750D8A0073C0B5EE86AD8A0010EDF
:100362000E5E0336070E0C6E0334083609360A3663
:100372000B360E36045003A012D0085E0550D8A0EA
:10038200053C095E0650D8A0063C0A5E0750D8A07C
:10039200073C0B5EE86AD8A0010E0E5E11D008265B
:1003A2000550D8B0053C09260650D8B0063C0A26AE
:1003B2000750D8B0073C0B26E86AD8B0010E0E26CB
:1003C20003360C2ED1D70234083609360A360B36DC
:1003D2000E36045003A012D0085E0550D8A0053C8A
:1003E200095E0650D8A0063C0A5E0750D8A0073C1A
:1003F2000B5EE86AD8A0010E0E5E11D008260550E9
:10040200D8B0053C09260650D8B0063C0A2607504B
:10041200D8B0073C0B26E86AD8B0010E0E26023689
:10042200070E0C6E0234083609360A360B360E36C3
:10043200045002A012D0085E0550D8A0053C095E07
:100442000650D8A0063C0A5E0750D8A0073C0B5EB7
:10045200E86AD8A0010E0E5E11D008260550D8B069
:10046200053C09260650D8B0063C0A260750D8B0EB
:10047200073C0B26E86AD8B0010E0E2602360C2E77
:10048200D1D70134083609360A360B360E360450F7
:1004920002A012D0085E0550D8A0053C095E0650A5
:1004A200D8A0063C0A5E0750D8A0073C0B5EE86A5B
:1004B200D8A0010E0E5E11D008260550D8B0053C1A
:1004C20009260650D8B0063C0A260750D8B0073C89
:1004D2000B26E86AD8B0010E0E260136070E0C6E06
:1004E2000134083609360A360B360E36045001A09E
:1004F20012D0085E0550D8A0053C095E0650D8A06F
:10050200063C0A5E0750D8A0073C0B5EE86AD8A0FA
:10051200010E0E5E11D008260550D8B0053C092602
:100522000650D8B0063C0A260750D8B0073C0B2626
:10053200E86AD8B0010E0E2601360C2ED1D700344F
:10054200083609360A360B360E36045001A012D090
:10055200085E0550D8A0053C095E0650D8A0063CAE
:100562000A5E0750D8A0073C0B5EE86AD8A0010ECD
:100572000E5E11D008260550D8B0053C092606505B
:10058200D8B0063C0A260750D8B0073C0B26E86ACA
:10059200D8B0010E0E260036070E0C6E0034083657
:1005A20009360A360B360E36045000A012D0085E09
:1005B2000550D8A0053C095E0650D8A0063C0A5E4C
:1005C2000750D8A0073C0B5EE86AD8A0010E0E5E69
:1005D20011D008260550D8B0053C09260650D8B0DF
:1005E200063C0A260750D8B0073C0B26E86AD8B06A
:1005F200010E0E2600360C2ED1D700B00ED00450BC
:1006020008260550D8B0053C09260650D8B0063C4D
:0C0612000A260750D8B0073C0B26120047
:10061E00086A096A100E0C6E013408360936045049
:10062E00085E0550D8A0053C095ED8B007D004502E
:10063E0008260550D8B0053C0926D890003601365C
:06064E000C2EEAD7120099
:100654000101B407B407B4C101F0B40701500008A4
:1006640003E200000000F7D70000000000000000D3
:040674000000120070
:100678000450000A12E10550000A0FE10650000A72
:100688000CE10750000A09E1FF0E006EFF0E016E33
:10069800FF0E026E7F0E036E97D00C6A07BE0C2AFF
:1006A8000D6A0B6A0A6A096A086A03500210011087
:1006B8000010D8B484D0035007180E6E0EBE0D1E5D
:1006C80007AE0BD0041E051E061E071E042AD8B44A
:1006D800052AD8B4062AD8B4072A03AE0BD0001EC0
:1006E800011E021E031E002AD8B4012AD8B4022A09
:1006F800D8B4032A035007100E6E0EBE1CD0DDDCE2
:100708000CBE36D00DAE5BD0001E011E021E031EAD
:10071800002AD8B4012AD8B4022AD8B4032A081E59
:10072800091E0A1E0B1E082AD8B4092AD8B40A2A98
:10073800D8B40B2A44D007AE15D003BE0DD0035051
:100748000B6E02500A6E0150096E0050086E036A63
:10075800026A016A006AD6D7036A026A016A006AF5
:10076800002A000C031E021E011E001E0C8EC7D795
:10077800082AD8B4092AD8B40A2AD8B40B2A0450AB
:10078800085CD8A4BFD70550095CD8A4BBD70650CD
:100798000A5CD8A4B7D707500B5CD8A4B3D70B6AA8
:1007A8000A6A096A086A002AD8B4012AD8B4022A4F
:1007B800D8B4032A03AEA6D70E6A0E88FF0C0E6AB9
:0A07C8000CA001D0A6DD000F120006
:1007D200400E006E1F0E016E000E026E036E1200BE
:1007E200220E0C6E086A096A0A6A0B6A0C06D8B4F1
:1007F2001FD0D8900B320A32093208320332023249
:1008020001320032D8A0F2D70C06D8B409D0045075
:1008120008260550092206500A2207500B22EAD761
:10082200045008260550092206500A2207500B22BE
:020832001200B2
:100834000101B4BF02D08A9601D08A86B4BD02D029
:100844008A9401D08A84B4BB02D08A9201D08A826D
:10085400B4B902D08A9001D08A8000B102D08A88CB
:1008640001D08A988A8A23DC8A9AB4B702D08A96FD
:1008740001D08A86B4B502D08A9401D08A84B4B3F4
:1008840002D08A9201D08A82B4B102D08A9001D077
:100894008A8000B102D08A8801D08A988A8A07DCCB
:1008A4008A9A00A103D04EEC00F001D003DC1200C0
:0E08B40001010091A8C1B4F1BBDF0081120068
:1008C20087DFE80E046E030E056E000E066E076EDD
:1008D20087DF00C0B0F101C0B1F102C0B2F103C0C4
:1008E200B3F1A8C104F0A9C105F0000E066E076EAF
:1008F2001FDD00C0B0F101C0B1F102C0B2F103C00E
:10090200B3F100C005F001C006F002C007F003C059
:1009120008F00832073206320532089E08320732E2
:1009220006320532089E05C000F006C001F007C07D
:1009320002F008C003F00332023201320032039E99
:1009420000C0ACF101C0ADF143DFAAC104F0ABC1FC
:1009520005F0000E066E076E43DFACC109F0ADC1B3
:100962000AF0000E0B6E0C6E030E086E09C004F046
:100972000AC005F00BC006F00CC007F0085007E0F3
:1009820004360490053606360736FF0FF8D7D0DC5A
:1009920000C0B0F101C0B1F102C0B2F103C0B3F1C5
:1009A2000A0E046E000E056EACC100F0ADC101F07E
:1009B20035DE00C0ACF101C0ADF1000E015C02E118
:1009C200030E005C01E247D001C1E9FF02C1EAFF68
:1009D2000101B351000808E1B251000805E1B1512B
:1009E200000802E1B051000833E20001FA51EF12AF
:1009F2000101AD530DE0AE6BAF6B000EAF5D02E1D6
:100A0200AD51AE5D05E2B46B24DEAE4BAF2BF5D734
:100A1200ACC1B4F11EDE0001FB51EF160101AD5372
:100A22000DE0AE6BAF6B000EAF5D02E1AD51AE5D9E
:100A320005E2B46B0EDEAE4BAF2BF5D7ACC1B4F111
:100A420008DE010EB05F000EB15BB25BB35BC0D7D4
:080A52000001FB51EF16120038
:100A5A000E0E0101AE6F800EAB19006E800E005CA7
:100A6A0008E1000EAA5D05E1000EA95D02E1000E93
:100A7A00A85D03E2010E006E01D0006A00C0ADF16C
:100A8A00005214E0006A016A026A036AA851005E11
:100A9A00A951015AAA51025AAB51035A00C0A8F1EE
:100AAA0001C0A9F102C0AAF103C0ABF1020EAC5D0C
:100ABA0009E3AC51100806E3A851A911AA11AB1118
:100ACA0001E005D0BB0E006E000E016E81D0AD5163
:100ADA00AE25006E016A000E0122004A012A1A0E92
:100AEA000024E16E010E0120E26EE66A0101A851BE
:100AFA00A911AA11AB1151E0AE534FE0AD51AE2589
:100B0A00006E016A000E01221A0E0024AF6F010E58
:100B1A000120B06FACC104F0000E056E066E076EC0
:100B2A00A8C100F0A9C101F0AAC102F0ABC103F04B
:100B3A009EDD08C000F009C001F00AC002F00BC037
:100B4A0003F0A60E0024F66E390E0120F76E000E91
:100B5A000220F86E0900F5CF00F0AFC1E1FFB0C185
:100B6A00E2FF00C0E6FF0101AE07ACC104F0000ECF
:100B7A00056E066E076EA8C100F0A9C101F0AAC1F0
:100B8A0002F0ABC103F073DD00C0A8F101C0A9F106
:100B9A0002C0AAF103C0ABF1A9D70101AD530EE01F
:100BAA00AE51010F006E016A000E01221A0E0024D6
:100BBA00E16E010E0120E26E2D0EE66EAE51010FBE
:100BCA00006E016A000E01221A0E0026010E012291
:020BDA00120007
:100BDC00700E0101A86F030EA96F770EAA6F010E9C
:100BEC00AB6F69DE040E0B6ED10E0C6E9B0E0D6E90
:100BFC000D2EFED70C2EFCD70B2EFAD7700E010142
:100C0C00A86F030EA96F770EAA6F010EAB6F53DEA0
:100C1C00040E0B6ED10E0C6E9B0E0D6E0D2EFED7B0
:100C2C000C2EFCD70B2EFAD7700E0101A86F030EF9
:100C3C00A96F770EAA6F010EAB6F3DDE040E0B6E23
:100C4C00D10E0C6E9B0E0D6E0D2EFED70C2EFCD7FE
:100C5C000B2EFAD7BA0E0101A86F020EA96F180E4F
:100C6C00AA6F010EAB6F27DE030E0B6EDA0E0C6E45
:100C7C00DB0E0D6E0D2EFED70C2EFCD70B2EFAD7DD
:100C8C00160E0101A86F040EA96F5D0EAA6F000E5F
:100C9C00AB6F11DEF50E0C6E260E0D6E0D2EFED703
:100CAC000C2EFCD70000700E0101A86F030EA96F6B
:100CBC00770EAA6F010EAB6FFEDD040E0B6ED10E1C
:100CCC000C6E9B0E0D6E0D2EFED70C2EFCD70B2E24
:100CDC00FAD7BA0E0101A86F020EA96F180EAA6FEF
:100CEC00010EAB6FE8DD030E0B6EDA0E0C6EDB0E35
:100CFC000D6E0D2EFED70C2EFCD70B2EFAD7160E22
:100D0C000101A86F040EA96F5D0EAA6F000EAB6FE8
:100D1C00D2DDF50E0C6E260E0D6E0D2EFED70C2EA2
:100D2C00FCD70000700E0101A86F030EA96FEE0E28
:100D3C00AA6F020EAB6FBFDD080E0B6E9F0E0C6E12
:100D4C009F0E0D6E0D2EFED70C2EFCD70B2EFAD748
:100D5C00260E0101A86F050EA96F770EAA6F010E62
:100D6C00AB6FA9DD040E0B6ED10E0C6E9B0E0D6ECF
:100D7C000D2EFED70C2EFCD70B2EFAD7260E01010A
:100D8C00A86F050EA96F770EAA6F010EAB6F93DDDE
:100D9C00040E0B6ED10E0C6E9B0E0D6E0D2EFED72F
:100DAC000C2EFCD70B2EFAD7260E0101A86F050EC0
:100DBC00A96F770EAA6F010EAB6F7DDD040E0B6E63
:100DCC00D10E0C6E9B0E0D6E0D2EFED70C2EFCD77D
:100DDC000B2EFAD7740E0101A86F050EA96F180E11
:100DEC00AA6F010EAB6F67DD030E0B6EDA0E0C6E85
:100DFC00DB0E0D6E0D2EFED70C2EFCD70B2EFAD75C
:100E0C00160E0101A86F040EA96F5D0EAA6F000EDD
:100E1C00AB6F51DDF50E0C6E260E0D6E0D2EFED742
:100E2C000C2EFCD700003E0E0101A86F030EA96F1B
:100E3C00770EAA6F010EAB6F3EDD040E0B6ED10E5A
:100E4C000C6E9B0E0D6E0D2EFED70C2EFCD70B2EA2
:100E5C00FAD7BA0E0101A86F020EA96F180EAA6F6D
:100E6C00010EAB6F28DD030E0B6EDA0E0C6EDB0E73
:100E7C000D6E0D2EFED70C2EFCD70B2EFAD7160EA0
:100E8C000101A86F040EA96F5D0EAA6F000EAB6F67
:100E9C0012DDF50E0C6E260E0D6E0D2EFED70C2EE1
:100EAC00FCD70000700E0101A86F030EA96FEE0EA7
:100EBC00AA6F020EAB6FFFDC080E0B6E9F0E0C6E52
:100ECC009F0E0D6E0D2EFED70C2EFCD70B2EFAD7C7
:100EDC00E00E0101A86F060EA96F770EAA6F010E26
:100EEC00AB6FE9DC040E0B6ED10E0C6E9B0E0D6E0F
:100EFC000D2EFED70C2EFCD70B2EFAD7700E01013F
:100F0C00A86F030EA96F180EAA6F010EAB6FD3DC7E
:100F1C00030E0B6EDA0E0C6EDB0E0D6E0D2EFED765
:100F2C000C2EFCD70B2EFAD7700E0101A86F030EF6
:100F3C00A96F5D0EAA6F000EAB6FBDDCF50E0C6ECB
:100F4C00260E0D6E0D2EFED70C2EFCD70000E00EDB
:100F5C000101A86F060EA96F770EAA6F010EAB6F79
:100F6C00AADC040E0B6ED10E0C6E9B0E0D6E0D2EAC
:100F7C00FED70C2EFCD70B2EFAD77D0E0101A86FD5
:100F8C00060EA96F180EAA6F010EAB6F94DC030E40
:100F9C000B6EDA0E0C6EDB0E0D6E0D2EFED70C2EBC
:100FAC00FCD70B2EFAD71F0E0101A86F060EA96FE6
:100FBC005D0EAA6F000EAB6F7EDCF50E0C6E260E6E
:100FCC000D6E0D2EFED70C2EFCD70000C70E0101A6
:100FDC00A86F050EA96F5D0EAA6F000EAB6F6BDCD0
:100FEC00F50E0C6E260E0D6E0D2EFED70C2EFCD7AC
:100FFC000000260E0101A86F050EA96F5D0EAA6FE9
:10100C00000EAB6F58DCF50E0C6E260E0D6E0D2E11
:10101C00FED70C2EFCD70000740E0101A86F050E34
:10102C00A96FBB0EAA6F000EAB6F45DC020E0B6EE8
:10103C00E90E0C6E4C0E0D6E0D2EFED70C2EFCD741
:10104C000B2EFAD70000020E0B6EE90E0C6E4C0E36
:10105C000D6E0D2EFED70C2EFCD70B2EFAD70000E2
:10106C00A40E0101A86F030EA96FBB0EAA6F000E90
:10107C00AB6F21DC020E0B6EE90E0C6E4C0E0D6E7E
:10108C000D2EFED70C2EFCD70B2EFAD70000DC0E43
:10109C000101A86F040EA96F770EAA6F010EAB6F3A
:1010AC000ADC040E0B6ED10E0C6E9B0E0D6E0D2E0B
:1010BC00FED70C2EFCD70B2EFAD7960E0101A86F7B
:1010CC00040EA96F180EAA6F010EAB6F61EC04F041
:1010DC00030E0B6EDA0E0C6EDB0E0D6E0D2EFED7A4
:1010EC000C2EFCD70B2EFAD7540E0101A86F040E50
:1010FC00A96F5D0EAA6F000EAB6F61EC04F0F50EDC
:10110C000C6E260E0D6E0D2EFED70C2EFCD700008D
:10111C00160E0101A86F040EA96F5D0EAA6F000ECA
:10112C00AB6F61EC04F0F50E0C6E260E0D6E0D2EF1
:10113C00FED70C2EFCD70000DB0E0101A86F030EAE
:10114C00A96F5D0EAA6F000EAB6F61EC04F0F50E8B
:10115C000C6E260E0D6E0D2EFED70C2EFCD700003D
:10116C00160E0101A86F040EA96FBB0EAA6F000E1C
:10117C00AB6F61EC04F0020E0B6EE90E0C6E4C0EB4
:10118C000D6E0D2EFED70C2EFCD70B2EFAD70000B1
:10119C00020E0B6EE90E0C6E4C0E0D6E0D2EFED764
:1011AC000C2EFCD70B2EFAD70000BA0E0101A86F3B
:1011BC00020EA96FBB0EAA6F000EAB6F61EC04F0B0
:1011CC00020E0B6EE90E0C6E4C0E0D6E0D2EFED734
:1011DC000C2EFCD70B2EFAD700003E0E0101A86F87
:1011EC00030EA96F770EAA6F010EAB6F61EC04F0C2
:1011FC00040E0B6ED10E0C6E9B0E0D6E0D2EFED7CB
:10120C000C2EFCD70B2EFAD7BA0E0101A86F020ECA
:10121C00A96F180EAA6F010EAB6F61EC04F0030EF0
:10122C000B6EDA0E0C6EDB0E0D6E0D2EFED70C2E29
:10123C00FCD70B2EFAD7700E0101A86F030EA96F05
:10124C005D0EAA6F000EAB6F61EC04F0F50E0C6E28
:10125C00260E0D6E0D2EFED70C2EFCD70000160E92
:10126C000101A86F040EA96F770EAA6F010EAB6F68
:10127C0061EC04F0040E0B6ED10E0C6E9B0E0D6E19
:10128C000D2EFED70C2EFCD70B2EFAD7700E0101AB
:10129C00A86F030EA96F180EAA6F010EAB6F61EC4D
:1012AC0004F0030E0B6EDA0E0C6EDB0E0D6E0D2EB3
:1012BC00FED70C2EFCD70B2EFAD7160E0101A86FF9
:1012CC00040EA96F5D0EAA6F000EAB6F61EC04F0FB
:1012DC00F50E0C6E260E0D6E0D2EFED70C2EFCD7B9
:1012EC000000260E0101A86F050EA96FEE0EAA6F65
:1012FC00020EAB6F61EC04F0080E0B6E9F0E0C6EC1
:10130C009F0E0D6E0D2EFED70C2EFCD70B2EFAD782
:10131C00E00E0101A86F060EA96F770EAA6F010EE1
:10132C00AB6F61EC04F0040E0B6ED10E0C6E9B0EC9
:10133C000D6E0D2EFED70C2EFCD70B2EFAD7700E81
:10134C000101A86F030EA96F180EAA6F010EAB6FE7
:10135C0061EC04F0030E0B6EDA0E0C6EDB0E0D6EF0
:10136C000D2EFED70C2EFCD70B2EFAD7700E0101CA
:10137C00A86F030EA96F5D0EAA6F000EAB6F61EC28
:10138C0004F0F50E0C6E260E0D6E0D2EFED70C2EE7
:10139C00FCD70000E00E0101A86F060EA96F770EB6
:1013AC00AA6F010EAB6F61EC04F0040E0B6ED10E44
:1013BC000C6E9B0E0D6E0D2EFED70C2EFCD70B2E2D
:1013CC00FAD77D0E0101A86F060EA96F180EAA6F31
:1013DC00010EAB6F61EC04F0030E0B6EDA0E0C6EAB
:1013EC00DB0E0D6E0D2EFED70C2EFCD70B2EFAD766
:1013FC001F0E0101A86F060EA96F5D0EAA6F000EDD
:10140C00AB6F61EC04F0F50E0C6E260E0D6E0D2E0E
:10141C00FED70C2EFCD70000C70E0101A86F050EDD
:10142C00A96F5D0EAA6F000EAB6F61EC04F0F50EA8
:10143C000C6E260E0D6E0D2EFED70C2EFCD700005A
:10144C00260E0101A86F050EA96F5D0EAA6F000E86
:10145C00AB6F61EC04F0F50E0C6E260E0D6E0D2EBE
:10146C00FED70C2EFCD70000740E0101A86F050EE0
:10147C00A96FBB0EAA6F000EAB6F61EC04F0020EED
:10148C000B6EE90E0C6E4C0E0D6E0D2EFED70C2E47
:10149C00FCD70B2EFAD70000020E0B6EE90E0C6E69
:1014AC004C0E0D6E0D2EFED70C2EFCD70B2EFAD734
:1014BC000000A40E0101A86F030EA96FBB0EAA6F4A
:1014CC00000EAB6F61EC04F0020E0B6EE90E0C6EAD
:1014DC004C0E0D6E0D2EFED70C2EFCD70B2EFAD704
:1014EC000000DC0E0101A86F040EA96F770EAA6F25
:1014FC00010EAB6F61EC04F0040E0B6ED10E0C6E92
:10150C009B0E0D6E0D2EFED70C2EFCD70B2EFAD784
:10151C00960E0101A86F040EA96F180EAA6F010E8A
:10152C00AB6F61EC04F0030E0B6EDA0E0C6EDB0E7F
:10153C000D6E0D2EFED70C2EFCD70B2EFAD7540E9B
:10154C000101A86F040EA96F5D0EAA6F000EAB6FA0
:10155C0061EC04F0F50E0C6E260E0D6E0D2EFED702
:10156C000C2EFCD70000160E0101A86F040EA96FFB
:10157C005D0EAA6F000EAB6F61EC04F0F50E0C6EF5
:10158C00260E0D6E0D2EFED70C2EFCD70000DB0E9A
:10159C000101A86F030EA96F5D0EAA6F000EAB6F51
:1015AC0061EC04F0F50E0C6E260E0D6E0D2EFED7B2
:1015BC000C2EFCD70000160E0101A86F040EA96FAB
:1015CC00BB0EAA6F000EAB6F61EC04F0020E0B6E3B
:1015DC00E90E0C6E4C0E0D6E0D2EFED70C2EFCD79C
:1015EC000B2EFAD70000020E0B6EE90E0C6E4C0E91
:1015FC000D6E0D2EFED70C2EFCD70B2EFAD700003D
:10160C00BA0E0101A86F020EA96FBB0EAA6F000ED5
:10161C00AB6F61EC04F0020E0B6EE90E0C6E4C0E0F
:10162C000D6E0D2EFED70C2EFCD70B2EFAD700000C
:10163C003E0E0101A86F030EA96F770EAA6F010E63
:10164C00AB6F61EC04F0040E0B6ED10E0C6E9B0EA6
:10165C000D6E0D2EFED70C2EFCD70B2EFAD7BA0E14
:10166C000101A86F020EA96F180EAA6F010EAB6FC5
:10167C0061EC04F0030E0B6EDA0E0C6EDB0E0D6ECD
:10168C000D2EFED70C2EFCD70B2EFAD7160E010101
:10169C00A86F040EA96F5D0EAA6F000EAB6F61EC04
:1016AC0004F0F50E0C6E260E0D6E0D2EFED70C2EC4
:1016BC00FCD70000700E0101A86F030EA96F770E06
:1016CC00AA6F010EAB6F61EC04F0040E0B6ED10E21
:1016DC000C6E9B0E0D6E0D2EFED70C2EFCD70B2E0A
:1016EC00FAD7BA0E0101A86F020EA96F180EAA6FD5
:1016FC00010EAB6F61EC04F0030E0B6EDA0E0C6E88
:10170C00DB0E0D6E0D2EFED70C2EFCD70B2EFAD742
:10171C00160E0101A86F040EA96F5D0EAA6F000EC4
:10172C00AB6F61EC04F0F50E0C6E260E0D6E0D2EEB
:10173C00FED70C2EFCD70000700E0101A86F030E13
:10174C00A96FEE0EAA6F020EAB6F61EC04F0080EDF
:10175C000B6E9F0E0C6E9F0E0D6E0D2EFED70C2E6B
:08176C00FCD70B2EFAD7120086
:10177400C7B409D01F0EC514016E0150000A03E15D
:0A178400010E006E01D0006A120091
:10178E008CC102F08DC103F002C000F003C001F065
:10179E00024A032A00C0E9FF01C0EAFFEE5201E04F
:1017AE00F3D701018C51025C006E8D510358016E0E
:0A17BE00010E005E000E015A120039
:1017C8000101A06BA16BA26BA36BA46BA56BA66BAD
:1017D800A76B8CC19CF18DC19DF18EC19EF18FC10B
:1017E8009FF19FC100F0000E9FBFFF0E036E7F0E9A
:1017F800005C016E01C097F1FF0E9C15936FFF0E00
:101808009D15946FFF0E9E15956F000E9F15966F90
:10181800958F800E0118006E800E1F0A005C0DE285
:10182800800E9719006E800EE90A005C06E39C5151
:101838009D119E119F1101E005D0BD0E006E000E96
:10184800016E80D1800E9719006E800E170A005C19
:101858001BE3170E975D006E000E97BFFF0E016E1B
:10186800000E015A93C1A0F194C1A1F195C1A2F152
:1018780096C1A3F1005007E0A037A091A137A23785
:10188800A337FF0FF8D769D0800E9719006E800E26
:10189800000A005C3DE397511708006E016A000ECC
:1018A80097BFFF0E015A93C1A0F194C1A1F195C150
:1018B800A2F196C1A3F1005009E0A333A233A133EA
:1018C800A033A39FA3BDA38FFF0FF6D79751010F96
:1018D800006E016A000E97BFFF0E012293C1A4F1AA
:1018E80094C1A5F195C1A6F196C1A7F1005007E0F2
:1018F800A437A491A537A637A737FF0FF8D7FF0E4F
:10190800A417FF0EA517FF0EA617000EA71725D0C0
:10191800FF0E9315A46FFF0E9415A56FFF0E951576
:10192800A66F000E9615A76F9751010F006E016AFA
:10193800000E97BFFF0E012200500008006E0150F4
:10194800000E0156005009E0A733A633A533A4338F
:10195800A79FA7BDA78FFF0FF6D72B0E916F010E7C
:10196800926F9EAF08D091C1E1FF92C1E2FF2D0EA8
:10197800E66E914B922B000E006EA31908E1005001
:10198800A21905E10050A11902E1A051000A09E1DC
:1019980091C1E1FF92C1E2FF300EE66E914B922BAE
:1019A80025D0A0C1A8F1A1C1A9F1A2C1AAF1A3C1E2
:1019B800ABF10A0EAC6F2DEC05F000C09AF101C036
:1019C8009BF19AC1E9FF9BC1EAFFEE520FE09AC171
:1019D800E9FF9BC1EAFF91C1E1FF92C1E2FFEECFAF
:1019E800E6FF914B922B9A4B9B2BEBD791C1E1FFD2
:1019F80092C1E2FF2E0EE66E914B922B000E006E06
:101A0800A71908E10050A61905E10050A51902E13F
:101A1800A451000A09E191C1E1FF92C1E2FF300E31
:101A2800E66E914B922B85D0905305E090C102F061
:101A3800000E036E0ED02B0E915D006E010E9259B2
:101A4800016E00500F08006E000600C002F0000E84
:101A5800036E02C099F10250070802E2070E996F5F
:101A6800986B9951985D4AE2030E006EA4C105F087
:101A7800A5C106F0A6C107F0A7C108F0005007E00D
:101A880005360590063607360836FF0FF8D7A4C185
:101A980000F0A5C101F0A6C102F0A7C103F000360D
:101AA8000090013602360336005005260150062202
:101AB800025007220350082205C0A4F106C0A5F170
:101AC80007C0A6F108C0A7F108C000F0000E08BEC4
:101AD800FF0E036E300E002691C1E1FF92C1E2FFB6
:101AE80000C0E6FF914B922BFF0EA417FF0EA5171F
:101AF800FF0EA617000EA717982BB3D7010E915FFC
:101B0800000E925B91C1E9FF92C1EAFFEE50300AE4
:101B18000EE1FF0E9125E96EFF0E9221EA6EEE505E
:101B28002E0A05E0010E915F000E925BEBD7914BF8
:101B3800922B91C1E1FF92C1E2FFE66A2B0E006E83
:061B4800010E016E120007
:0E1B4E00026A016A006A086A036A000E120049
:101B5C0001018E6B8E518C25E96E000E8D21EA6E83
:101B6C00EE520CE08E518C25E96E000E8D21EA6E42
:0E1B7C00EECFA8F15AEC04F08E2BECD712003D
:081B8A000AAE029E000E1200DB
:101B92000B840BAED4EF0DF0010E036E026A016AE4
:0A1BA200006A0A360232FF0E12003C
:041BAC00C5841200DA
:101BB000100E01018A6F000E8B6F020E7B5D05E235
:101BC000800EB46F1AEC04F004D0C00EB46F1AEC9F
:101BD00004F07E0E886F010E896F7CC100F07DC11C
:101BE00001F07C4B7D2B00C0E9FF01C0EAFFEECF86
:101BF00000F000C085F10052D8B46CD18551250A9F
:101C0000D8A45FD17CC1E9FF7DC1EAFFEECF85F1A9
:101C10007C4B7D2B2ED188C1E9FF89C1EAFFEECF35
:101C200000F0EECF01F000C086F101C087F1020E96
:101C30008827000E892300C08CF101C08DF18EDF52
:101C400031D1010E8A5F000E8B5B88C1E9FF89C12B
:101C5000EAFFEECFA8F15AEC04F0884B892B22D191
:101C600088C1E9FF89C1EAFFEECFA8F1000EABBF42
:101C7000FF0EA96FAA6FAB6F000EA8BFFF0EA96F72
:101C8000AA6FAB6F0A0EAC6F2DEC05F000C086F1A9
:101C900001C087F1884B892B00C08CF101C08DF108
:101CA0005DDF00D188C1E9FF89C1EAFFEECFA8F16D
:101CB000EECFA9F1000EABBFFF0EAA6FAB6F000E07
:101CC000A9BFFF0EAA6FAB6F0A0EAC6F2DEC05F02B
:101CD00000C086F101C087F1020E8827000E89231B
:101CE00000C08CF101C08DF139DFDCD088C1E9FF83
:101CF00089C1EAFFEECFA8F1EECFA9F1EECFAAF1AC
:101D0000EECFABF10A0EAC6F2DEC05F000C086F102
:101D100001C087F1040E8827000E892300C08CF1D2
:101D200001C08DF11BDFBED07CC1E9FF7DC1EAFFA0
:101D3000EECF85F17C4B7D2B5CD088C1E9FF89C15A
:101D4000EAFFEECFA8F1000EA96FAA6FAB6F000EED
:101D5000A96FAA6FAB6F0A0EAC6F2DEC05F000C037
:101D600086F101C087F1884B892B00C08CF101C03E
:101D70008DF1F4DE47D088C1E9FF89C1EAFFEECFDB
:101D8000A8F1EECFA9F1000EAA6FAB6F000EAA6FFB
:101D9000AB6F0A0EAC6F2DEC05F000C086F101C0F0
:101DA00087F1020E8827000E892300C08CF101C044
:101DB0008DF1D4DE27D088C1E9FF89C1EAFFEECFDB
:101DC000A8F1EECFA9F1EECFAAF1EECFABF10A0E5A
:101DD000AC6F2DEC05F000C086F101C087F1040E58
:101DE0008827000E892300C08CF101C08DF1B6DE7A
:101DF00009D08551730AA1E08551690ABCE085517B
:101E00006C0AD9E04FD0300E855D2AE38551390840
:101E100027E37CC1E9FF7DC1EAFFEE50660A20E1BD
:101E200088C1E9FF89C1EAFFEECF8CF1EECF8DF1D9
:101E3000EECF8EF1EECF8FF1300E855D906FC4DC6A
:101E400000C086F101C087F1040E8827000E8923A7
:101E500000C08CF101C08DF181DE7C4B7D2B08D060
:101E6000010E8A5F000E8B5B85C1A8F15AEC04F06D
:101E700019D08551610AD8B4CED68551630AD8B439
:101E8000E0D68551730AD8B4EBD68551690AD8B427
:101E900009D785516C0AD8B429D78551750AD8B4A9
:101EA00043D7B1D7865187110BE086C18CF187C12A
:101EB0008DF16DDC00508A5F01508B5B866B876B08
:101EC00008D0010E8A5F000E8B5B85C1A8F15AEC29
:101ED00004F083D68AC101F08BC102F0010E8A5F43
:101EE000000E8B5B800E006E800E0218005C02E11B
:101EF0000150000805E2200EA86F5AEC04F0EAD762
:021F00001200CD
:101F0200080E036E035230E07BC1E9FF7CC1EAFF99
:101F120001017D51EE18016E01AE12D07BC1E9FFC5
:101F22007CC1EAFFEECF02F002C000F00036009062
:101F32007BC1E1FF7CC1E2FF310E0018E66E10D0DA
:101F42007BC1E9FF7CC1EAFFEECF02F002C000F0E4
:101F5200003600907BC1E1FF7CC1E2FF00C0E6FFDA
:0A1F62007D377D910306CED71200F3
:101F6C0001017B6B7C6B7C51120802E17B518E086A
:101F7C0009E3BAEC0BF0005201E004D001017B4BF9
:101F8C007C2BF1D70101120E7C5D02E18F0E7B5D83
:101F9C0003E37B0E006E05D0C580C5A001D0FDD734
:041FAC00006A1200B5
:101FB0009E967BC1C9FFC7A401D0FDD79EB601D0B4
:101FC000FDD7C5BC02D0006A03D0C584020E006EE6
:021FD0001200FD
:101FD2000C6A0E6A0250D8A402EF10F001C002F09F
:101FE20000C001F0006A0E860250D8A402EF10F081
:101FF20001C002F0016A0E960E880250D8B414EFA6
:1020020010F00E50035ED8A4D8A019EF10F0D890AB
:1020120002BE1EEF10F0003601360236032E09EF23
:1020220010F019EF10F0010E0C6E90DD21EF10F0A0
:10203200020E0C6EADDD21EF10F0040E0C6EA4DD6D
:0220420012008A
:102044000B820BAE2CEF10F0036802680168006885
:082054000A360232FF0E1200F1
:0A205C00C582C5A201D0FDD7120015
:0C2066000E0E0D6E0D2EFED700001200B5
:102072009E96C5869EB601D0FDD7C9CF01F001015B
:102082007B51000A02E1C58A01D0C59A9E96C58895
:0C2092009EB601D0FDD701C000F0120086
:06209E00EEEC05F012005B
:1020A400020E01017B5D05E2800EB46F1AEC04F0B0
:1020B40004D0C00EB46F1AEC04F07C6B100E7C5D7F
:1020C40006E2200EA86F5AEC04F07C2BF7D712001E
:0820D4000B6A0B86FF0E1200DF
:1020DC000134083609360450085E0550D8A0053C7A
:1020EC00095E003601360F0E0C6E013408360936C7
:1020FC00045000A006D0085E0550D8A0053C095E2F
:10210C0005D008260550D8B0053C09260036013606
:10211C000C2EEBD700B006D0045008260550D8B0D2
:08212C00053C09260000120029
:102134000A6A0350D8A40A800750D8A40A820A5015
:10214400D8B4FDEF10F0030AD8B4B6EF10F00AB01B
:10215400B1EF10F006AEFBEF10F0F9EF10F002AEA5
:10216400F9EF10F0FBEF10F00250800B0A6E029EA4
:102174000650800B069E0A18D8B4C7EF10F00A5018
:10218400D8B4F9EF10F0FBEF10F00750035CD8B4AB
:10219400D1EF10F0D8A0EDEF10F0F3EF10F00650EF
:1021A400025CD8B4DBEF10F0D8A0EDEF10F0F3EF41
:1021B40010F00550015CD8B4E5EF10F0D8A0EDEFB5
:1021C40010F0F3EF10F00450005CD8B4FDEF10F001
:1021D400D8B0F3EF10F00A52D8B4FBEF10F0F9EFD7
:1021E40010F00A52D8B4F9EF10F0FBEF10F0D880D9
:0E21F4001200D8901200D880D8841200120079
:1022020001017A6BB2DEA00E010107117B6FCFDEF6
:1022120074C17BF1CCDE21DFA00E010107117B6FBF
:102222007B81C5DE0101786B7705016E026A000EC3
:10223200025A800E006E800E0218005C02E101500C
:10224200785D1CE2010E7B6F13DF00C079F17A0E1C
:1022520001017B6F010E7C6F00C07DF151DE010137
:1022620078517525E16E000E7621E26E79C1E6FFA6
:10227200350E0D6E0D2EFED7782BD6D77B6BF8DE82
:1022820000C079F17A0E01017B6F010E7C6F00C0F4
:102292007DF136DE010178517525E16E000E762161
:1022A200E26E79C1E6FFBAEC0BF0005201E1FBD716
:0822B2007CDC7AC100F012008F
:1022BA0058DEA00E010107117B6F75DE74C17BF138
:0C22CA0072DE75C17BF16FDE6CDC12006F
:1022D6000450000A12E10550000A0FE10650000AF8
:1022E6000CE10750000A09E1FF0E006EFF0E016EB9
:1022F6007F0E026EFF0E036EA6D0086A096A0750AB
:10230600D8B416EF12F00350D8B41AEF12F00250F8
:1023160006180A6E028E068E0E6A02C008F001C00A
:102326000CF000C00DF004500D5E0550D8A0053C21
:102336000C5E0650D8A0063C085E086A0C6A0D6A58
:10234600D8A0ADEF11F0D890023201320032083237
:10235600010E0E6E0750035ED8A0BAEF11F07E0E86
:102366000E240326D8B01FEF12F0C0EF11F07E0E38
:102376000E240326D8A023EF12F0180E0B6E0D368E
:102386000C3608360036013602360E360450005E2C
:102396000550D8A0053C015E0650D8A0063C025E5A
:1023A60006340E120EA0DBEF11F00D80E6EF11F0F1
:1023B600045000260550D8B0053C01260650D8B07A
:1023C600062802260D900B2EC2EF11F00CEF12F02C
:1023D600D8900036013602360E360450005E05509F
:1023E600D8A0053C015E0650D8A0063C025E063425
:1023F6000E10010B0D26D8B00C2AD8B4082AD8A482
:102406000CEF12F008320C320D32032AD8B41FEF4B
:1024160012F00AAE089E0850026E0C50016E0D5066
:10242600006E26EF12F0010E52DE26EF12F0020EBB
:10243600A7EC0DF026EF12F0040E01DE26EF12F0E7
:08244600080EC9EC0DF01200B4
:10244E00086A080E0C6E003408360450085ED8B0C8
:0E245E0002D00826D89000360C2EF5D71200BA
:0E246C00ACB202D00000FCD774C1ADFF12006C
:10247A0074C1E9FF75C1EAFFEE500101761905E161
:10248A0074C100F075C101F010D074C100F075C1BB
:10249A0001F0744B752B00C0E9FF01C0EAFFEECFD3
:0C24AA0000F00052E5E1006A016A120037
:1024B60078C100F001017807005228E074C1E9FFF5
:1024C60075C1EAFFEE50000A0CE074C1E9FF75C160
:1024D600EAFF76C1D9FF77C1DAFFEE50DE1801E1D7
:1024E6000FD074C1E9FF75C1EAFF76C1D9FF77C184
:1024F600DAFFDE50EE5C006E016A000E015A08D06B
:102506000101744B752B764B772BD2D7006A016A83
:022516001200B1
:102518000450000A08E10550000A05E1FF0E006EAC
:102528007F0E016E57D00D6A096A086A01500010C3
:10253800D8B4000C015005180A6E0ABE0D1E0B6AAD
:1025480005AE05D0041E051E042AD8B4052A01AE1E
:1025580005D0001E011E002AD8B4012A015005101A
:102568000A6E0ABE10D0B6DD0BB020D00DAE000C3E
:10257800001E011E002AD8B4012A081E091E082AB6
:10258800D8B4092A000C05AE0DD001BE07D0015001
:10259800096E0050086E016A006AE8D7016A006A8D
:1025A800002A000C011E001E0B2ADDD7082AD8B409
:1025B800092A0450085CD8A4D9D70550095CD8A4C6
:1025C800D5D7096A086A002AD8B4012A01AECED73D
:0625D8000000FF0C1200E0
:1025DE00010E01017B6F940E7C6F000E7D6FD8ECA7
:0C25EE000DF0020E7B6F57DD53DD120074
:1025FA0076C104F077C105F074C102F075C103F029
:10260A0078C100F079C101F0010E0101785F000E76
:10261A00795B005001100FE004C0E9FF05C0EAFF32
:10262A0002C0E1FF03C0E2FFEECFE6FF024A032A3F
:10263A00044A052AE5D774C100F075C101F01200F9
:10264A00086A096A000E07620364AAEF13F00250CF
:10265A0006180A6E075003267E0ED8A03BEF13F029
:10266A00035ED8B0AFEF13F03FEF13F0035ED8A0CC
:10267A00B3EF13F0028E068E02C00EF001C00BF00B
:10268A0000C00DF000500402F4CF0CF00150050216
:10269A00F4CF00F0F3CF08F00402F3500C26F45004
:1026AA000822000E00220D500502F3500C26F450A9
:1026BA000822000E002202500402F3500826F450A9
:1026CA00002202500502016A000E0122F350002680
:1026DA00F45001220D500602F3500826F45000224D
:1026EA00026A000E012202220B500602F350002653
:1026FA00F4500122000E02220E500602F350012667
:10270A00F450022202BE92EF13F008360036013668
:10271A0002360306D8B4B3EF13F0A5EF13F0D8804E
:10272A00800E08640030000E002201220222D8A086
:10273A00A5EF13F0023201320032034AAFEF13F071
:10274A000AAE029E000EB6EF13F0010EA7EC0DF0D2
:10275A00B6EF13F0020E71DCB6EF13F0040EC9ECFB
:04276A000DF012005C
:10276E0001017A6B7751100805E30F0E7415006E98
:10277E0001E102D0006A31D0B6EC0FF0A00E0101DB
:10278E0007117B6F0EDC74C17BF10BDC0101786BE2
:10279E007751785D1EE278517525E96E000E76212F
:1027AE00EA6EEECF00F000C079F100C07BF1D8ECFC
:1027BE000FF07A0E01017B6F010E7C6F79C17DF1F6
:1027CE0081EC0FF0350E0D6E0D2EFED70101782B1C
:0C27DE00DFD7D6EC0DF07AC100F012003D
:1027EA00C30EC21674C100F0003600900036009085
:1027FA000050C21233DCC282C2A201D0FDD7C4CFBC
:0E280A0001F0006AC3500012000E011212000D
:102818000050086E0150006E016A026A036A0B6A72
:102828000C6A960E036E0A6A00C001F008C000F038
:0A283800086A026AE9EC0FF01200D2
:10284200060E0101746FD0DFE6DFE9C004F0EAC0D2
:1028520005F0EBC006F0ECC007F0F6DE0A0E046EDF
:10286200D70E056E230E066E820E076E33DD120042
:10287200B6EC0FF0A00E010107117B6FD8EC0FF040
:102882006DC17BF1D8EC0FF02EEC10F0A00E01011F
:1028920007117B6F7B81D8EC0FF001017B6B39EC68
:1028A20010F000C06EF1BAEC0BF0005201E1FBD760
:0A28B200D6EC0DF06EC100F012002C
:0A28BC00A90E006E000E016E12005E
:1028C600410E0101746FCFDD430E0101746FCBDD44
:1028D6004B0E0101746FC7DD0A0E0101746FC3DD73
:0228E6001200DE
:1028E8006DC1A2F06EC1A3F06FC1A4F070C1A5F0D4
:0828F800010E0001A16F1200A6
:102900000001A851A71903E1006A016A1AD0A8C002
:1029100074F10C0E0101756F010E766F0A0E776F60
:1029200070DCF00E0001A815006EF00E046E8FDD55
:1029300008C000F0100E0024A86F0C0E006E010EEF
:04294000016E120012
:10294400C10E0101746F000E756F6DC176F16EC119
:1029540077F10A0E786F000E796F4DDE6F6B0A0EF9
:102964006F5D0EE2C10EE96E000EEA6E6F51E9264C
:10297400D8B0EA2AEECF74F177DD01016F2BEFD7DF
:082984000A0E746F71DD1200F0
:10298C00F29AA90E0101746F000E756F6DC176F18C
:10299C006EC177F1060E786F000E796F28DE0B0E84
:0A29AC00D76EDC0ED66EF28A120020
:1029B600AF0E0101746F000E756F6DC176F16EC1B9
:1029C60077F1060E786F000E796F14DE6FC1B5F0E1
:1029D60070C1B6F071C1B7F072C1B8F0A8C0B9F055
:1029E600A7C0BAF00001A66B0101746BAF0E756F3C
:1029F600000E766F0C0E776FB7DE00C073F10D0E0A
:102A06000C6EFB0E0D6E0D2EFED70C2EFCD70000A5
:0E2A160000000C0E746F73C175F14CDC1200E1
:102A2400A2C000F0A3C001F0A4C002F0A5C003F04E
:022A340012008E
:102A360001016F6B440E706F010E716F6F5170273D
:102A4600D8B0712B050E6D25D96E000E6E21DA6E8B
:102A56006C0E006E070E016EDE500026D8B0012AFD
:102A6600E80E046E030E056E54DD300E002670C1AE
:102A7600E1FF71C1E2FF00C0E6FF01016F2B440ECA
:102A8600706F010E716F6F517027D8B0712B050EE4
:102A96006D25D96E000E6E21DA6E6C0E006E070E75
:102AA600016EDE500026D8B0012AE80E046E030E31
:102AB600056E2FDD08C000F009C001F0640E046E3B
:102AC600000E056E26DD300E002670C1E1FF71C1D5
:102AD600E2FF00C0E6FF01016F2B440E706F010E8E
:102AE600716F6F517027D8B0712B050E6D25D96E99
:102AF600000E6E21DA6E6C0E006E070E016EDE5051
:102B06000026D8B0012A640E046E000E056E01DDA3
:102B160008C000F009C001F00A0E046E000E056E32
:102B2600F8DC300E002670C1E1FF71C1E2FF00C083
:102B3600E6FF01016F2B440E706F010E716F6F512E
:102B46007027D8B0712B050E6D25D96E000E6E213B
:102B5600DA6E6C0E006E070E016EDE500026D8B0DF
:102B6600012A0A0E046E000E056ED3DC08C000F0C2
:102B760009C001F0300E002670C1E1FF71C1E2FF0D
:102B860000C0E6FF01016F2B440EE16E010EE26EFE
:102B96006F51E126D8B0E22A2D0EE66E6F2B440E59
:102BA600706F010E716F6F517027D8B0712B040EC4
:102BB6006D25E96E000E6E21EA6EEECF00F00A0E6C
:102BC600046E42DC300E002670C1E1FF71C1E2FFE7
:102BD60000C0E6FF6F2B440E706F010E716F6F51D0
:102BE6007027D8B0712B040E6D25E96E000E6E218C
:102BF600EA6EEECF00F00A0E046E26DC08C000F086
:102C0600300E002670C1E1FF71C1E2FF00C0E6FF91
:102C16006F2B440EE16E010EE26E6F51E126D8B0C5
:102C2600E22A2D0EE66E6F2B440E706F010E716F49
:102C36006F517027D8B0712B030E6D25E96E000E0B
:102C46006E21EA6EEECF00F00A0E046E27EC12F04B
:102C5600300E002670C1E1FF71C1E2FF00C0E6FF41
:102C66006F2B440E706F010E716F6F517027D8B0C5
:102C7600712B030E6D25E96E000E6E21EA6EEECF06
:102C860000F00A0E046E27EC12F008C000F0300EB9
:102C9600002670C1E1FF71C1E2FF00C0E6FF6F2BA5
:102CA600440EE16E010EE26E6F51E126D8B0E22AC3
:102CB600200EE66E6F2B440E706F010E716F6F5112
:102CC6007027D8B0712B020E6D25E96E000E6E21AD
:102CD600EA6EEECF00F00A0E046E27EC12F0300E0C
:102CE600002670C1E1FF71C1E2FF00C0E6FF6F2B55
:102CF600440E706F010E716F6F517027D8B0712B33
:102D0600020E6D25E96E000E6E21EA6EEECF00F022
:102D16000A0E046E27EC12F008C000F0300E0026F2
:102D260070C1E1FF71C1E2FF00C0E6FF6F2B440EE8
:102D3600E16E010EE26E6F51E126D8B0E22A3A0E3C
:102D4600E66E6F2B440E706F010E716F6F51702718
:102D5600D8B0712B010E6D25E96E000E6E21EA6E5C
:102D6600EECF00F00A0E046E27EC12F0300E0026AD
:102D760070C1E1FF71C1E2FF00C0E6FF6F2B440E98
:102D8600706F010E716F6F517027D8B0712B010EE5
:102D96006D25E96E000E6E21EA6EEECF00F00A0E8A
:102DA600046E27EC12F008C000F0300E002670C149
:102DB600E1FF71C1E2FF00C0E6FF6F2B440EE16E3A
:102DC600010EE26E6F51E126D8B0E22A3A0EE66EA7
:102DD6006F2B440E706F010E716F6F517027D8B054
:102DE600712B6DC1E9FF6EC1EAFFEECF00F00A0E4E
:102DF600046E27EC12F0300E002670C1E1FF71C19F
:102E0600E2FF00C0E6FF6F2B440E706F010E716F7C
:102E16006F517027D8B0712B6DC1E9FF6EC1EAFF03
:102E2600EECF00F00A0E046E27EC12F008C000F098
:102E3600300E002670C1E1FF71C1E2FF00C0E6FF5F
:102E46006F2B440EE16E010EE26E6F51E126D8B093
:102E5600E22AE66A6F2B440E006E010E016E120026
:102E66000001A15301E13BD06DC104F06EC105F034
:102E76006FC106F070C107F0A2C000F0A3C001F058
:102E8600A4C002F0A5C003F09AEC10F0010ED8B071
:102E9600000E006E005207E0A05305E1010EA06F80
:102EA600EFEC12F01CD06DC104F06EC105F06FC1DD
:102EB60006F070C107F0A2C000F0A3C001F0A4C0E4
:102EC60002F0A5C003F09AEC10F0000ED8B0010E87
:102ED600006E005204E00001A053D8A4A06B1200BB
:102EE6003A0E0101746F010E756F6DC176F16EC1F8
:102EF60077F1060E786F000E796FFDEC12F06FC158
:102F060040F170C141F171C142F172C143F1A7C0F4
:102F160074F13A0E756F010E766F0A0E776F24DC28
:102F2600F00E0001A715006EF00E046E27EC12F0ED
:102F360008C000F0100E0024016E01C0A7F0A851D1
:102F460001180CE1F00EA815006EF00E046E27ECC9
:0E2F560012F008C000F0100E0024A86F120048
:102F6400000E01016E1902E1000E6D1937E06DC10A
:102F7400E9FF6EC1EAFFEE5231E06FC18CF170C11E
:102F84008DF1C7EC0BF000C078F16DC174F16EC126
:102F940075F16FC176F170C177F15BEC12F0000E40
:102FA400011802E1000E001805E16DC100F06EC1C8
:102FB40001F016D0010E01016D25746F000E6E2113
:102FC400756F6FC1E9FF70C1EAFFEECF76F13DEC9A
:102FD40012F000C06DF101C06EF1C2D7006A016A3F
:022FE4001200D9
:0A2FE600D60E006E000E016E120000
:102FF0000001A65325E10101746BAF0E756F000E41
:10300000766F0C0E776F01EC11F000C065F10D0EBC
:103010000C6EFB0E0D6E0D2EFED70C2EFCD7000095
:1030200000000C0E01016D6F24DC010165510018D8
:1030300004E1010E0001A66F03D0006A016A08D006
:10304000B9C0A8F0BAC0A7F0AF0E006E000E016EB6
:0230500012006C
:1030520021EC14F000C065F101C066F102C067F115
:1030620003C068F12ADC00C06DF101C06EF1E2DC40
:1030720000C069F101C06AF100C06DF101C06EF1DA
:10308200370E6F6F000E706F6CDF00C06BF101C006
:103092006CF100C0E1FF01C0E2FFE66A01016B4B87
:1030A2006C2B010E7B6F2E0E7C6F000E7D6F69C143
:1030B2007EF16AC17FF1D8EC0DF0020E7B6F240E17
:1030C2007C6F000E7D6F6BC17EF16CC17FF165C1BB
:1030D20080F166C181F167C182F168C183F1DF0EBF
:1030E200846FD8EC0DF065C16DF166C16EF167C1F8
:0A30F2006FF168C170F1B6DE120044
:1030FC0021EC14F000C065F101C066F102C067F16B
:10310C0003C068F15EEC14F000C06DF101C06EF10B
:10311C0065C16FF166C170F167C171F168C172F17F
:10312C00DCDE0D0E0C6EFB0E0D6E0D2EFED70C2E76
:10313C00FCD70000000070DC00C065F101C066F136
:10314C0002C067F103C068F15EEC14F000C06DF1D1
:10315C0001C06EF165C16FF166C170F167C171F1AB
:08316C0068C172F122DC1200BF
:10317400949894968B988B9694889486C79EC79CB3
:06318400380EC66E1200B9
:10318A002DDF00C06DF101C06EF1C6EC14F063ECE6
:04319A0014F012001B
:10319E0080EC14F000C065F101C066F10050011022
:1031AE0007E065C16DF166C16EF1A2EC14F0F0D7C7
:0631BE0063EC14F01200A6
:1031C40010DF00C0E9FF01C0EAFFEECF6DF1EECFE2
:1031D4006EF1EECF6FF1EECF70F174EC14F063EC9E
:0431E40014F01200D1
:1031E80060C101F161C102F162C101F0010E006E1E
:1031F800015004E000360090FF0FFBD700C0FAF042
:10320800001E00C0FBF0120E01016025E96E000EE1
:103218006121EA6E0050EF16120EE95E0050EF16BB
:02322800120092
:10322A00070E01016015076F07370791140EC86E64
:04323A009CDF120003
:10323E0010D0800E0101606F1AD0C00E606F17D0D3
:10324E00940E606F14D0D40E606F11D0800E606F2C
:10325E000ED001016051010AECE06051020AEDE06E
:10326E006051030AEDE06051040AEDE0EFD761050D
:10327E00006E6051002600C060F100C0B4F11AEC7F
:10328E0004F00091646B64516225E96E000E6321B7
:10329E00EA6EEE520CE064516225E96E000E632177
:1032AE00EA6EEECFA8F15AEC04F0642BECD7008155
:0232BE001200FC
:1032C000EA0E0101036F270E046F740E056F010EE5
:0E32D000066FC26A070EC012C08EC2801200C6
:1032DE00939A939893909392939493968A9A8A98AA
:1032EE008A968A948A928A904EEC00F04EEC00F008
:1032FE004EEC00F08A828A808A8A59EC00F08A9A13
:10330E004EEC00F08A8A59EC00F08A9A4EEC00F0EE
:10331E008A8A59EC00F08A9A4EEC00F08A908A8ADA
:10332E0059EC00F08A9A4EEC00F08A8A59EC00F0C3
:10333E008A9A8A928A868A8A59EC00F08A9A4EEC88
:10334E0000F08A968A808A8A59EC00F08A9A8A90CE
:10335E008A8A59EC00F08A9A4EEC00F08A8A59EC6F
:10336E0000F08A9A8A808A8A59EC00F08A9A4EEC8A
:10337E0000F08A908A8A59EC00F08A9A8A868A84AA
:10338E008A828A808A8A59EC00F08A9A4EEC00F082
:06339E0001010081120094
:1033A400700E0101A86F030EA96FE80EAA6F030E39
:0833B400AB6F61EC04F01200A4
:1033BC0019DE00C060F101C061F100C06DF101C007
:1033CC006EF1C6EC14F0060E6025E96E000E61215C
:1033DC00EA6EEECF6DF1EECF6EF1EECF6FF1EECF78
:0833EC0070F174EC14F0120002
:1033F400F250026EF29E0500FF6A0150FE6E00500C
:08340400FD6E02BEF28E120003
:10340C006C0E0001FC6F240EFD6F740EFE6F010E2E
:10341C00FF6FA00E0101086F340E096F000E0A6FCA
:10342C00000E0B6FFF0E586FFF0E596F000E5A6F88
:10343C00000E5B6FFF0E166FFF0E176F000E186FEE
:10344C00000E196FAC8A900EAB6E948E949C9EAA53
:0A345C0003D0AECF00F0FBD7120042
:10346600820E0101606F0F0E616F020E626FB9DE90
:0434760096DF1200CB
:10347A0031DF010EB46F1AEC04F00C0EB46F1AECC3
:10348A0004F0010E606F050E616F390E626F000E57
:06349A00636FD0DE12009A
:1034A000AECF01F0ABA202D0AB98AB8801C000F068
:0234B000120008
:1034B20042C000F0000E016E003600900136003668
:1034C20000900136440E0024E16E000E0120E26EEF
:1034D200B6C1E6FFB7C1E6FFB8C1E6FFB9C1E6FF74
:1034E2004250010F006E016A000E0122140E046E9A
:1034F200000E056E8CEC12F008C000F009C001F05D
:1035020000C042F04250431812E14350010F006ED6
:10351200016A000E0122140E046E000E056E8CEC80
:1035220012F008C000F009C001F000C043F0120020
:103532004350421801E154D043C000F0000E016E26
:10354200003600900136003600900136440E002409
:10355200E96E000E0120EA6EEE50EE10EE10EE1053
:103562002DE043C000F0000E016E003600900136DF
:10357200003600900136440E0024E96E000E012050
:10358200EA6EEECF00F0EECF01F0EECF02F0EECF1A
:1035920003F02FDF43C000F0000E016E00360090F2
:1035A2000136003600900136440E0024E16E000E12
:1035B2000120E26EE66AE66AE66AE66A4350010FB5
:1035C200006E016A000E0122140E046E000E056EDA
:1035D2008CEC12F008C000F009C001F000C043F00A
:0235E2001200D5
:1035E400010E0101606F1FDE01DD0050011001E0DA
:0435F400E3DE120000
:1035F800840ED56E0B0ED76EDC0ED66EF28A1200D4
:103608003BD0B886060EB06E820EAF6EAC84FADE82
:103618004CD0B886030EB06E400EAF6EAC84F2DEAE
:1036280044D0B886010EB06EA00EAF6EAC84EADE50
:103638003CD0B886B06ACF0EAF6EAC84E3DE35D02E
:10364800B886B06A670EAF6EAC84DCDE2ED0B88662
:10365800B06A330EAF6EAC84D5DE27D0B886B06AB8
:10366800220EAF6EAC84CEDE20D0B886B06A100EC3
:10367800AF6EAC84C7DE19D001015C51000AC1E00D
:103688005C51010AC6E05C51020ACBE05C51030AB6
:10369800D0E05C51040AD4E05C51050AD8E05C51E2
:1036A800060ADCE05C51070AE0E09E9A9D8A120057
:1036B800020E0F013C6F9682FFDD5CC1E9F05DC12F
:0C36C800EAF05EC1EBF05FC1ECF0120014
:1036D4000001A951010F006E00C0A9F0A9513B08D7
:1036E4004EE2A96BAA51010F006E00C0AAF0AA51C4
:1036F4003B083BE2AA6BAB51010F006E00C0ABF07C
:10370400AB51170832E2AB6BAC51010F006E00C035
:10371400ACF0AD05006E016A000E015AED0E0024F6
:10372400D96E000E0120DA6EAC51DE5C1EE2010E91
:10373400AC6FAD51010F006E00C0ADF0AD510C087F
:1037440014E2010EAD6FAE51010F006E00C0AEF079
:10375400AE5303E0010E006E01D0006A005203E193
:103764001D0EEE6F02D01C0EEE6FFC0E0101B66F43
:10377400300EB76F000EB86F000EB96F98DE520EA0
:103784000101B66F300EB76F000EB86F000EB96F3F
:0E3794008EDE0B0ED76EDC0ED66EF294120097
:1037A2007EDE00C0B5F100500A0A2FE121D08A0E58
:1037B2000101B66F310EB76F000EB86F000EB96F10
:1037C20077DE20D0C40E0101B66F310EB76F000E46
:1037D200B86F000EB96F6CDE15D09E0E0101B66F88
:1037E200310EB76F000EB86F000EB96F61DE0AD0EE
:1037F2000001D551540ADBE0D551520AE3E0D5511C
:103802004C0AEBE00001F96B0CD00001D50EE16E21
:10381200000EE26EF951E126D8B0E22AB5C1E6FF08
:06382200F92B9E9A120032
:10382800D09EF28EF2BE02D0F29C01D0F28C7DDEE8
:04383800FED71200A5
:10383C000900F5CFE6FF0006FBE10106F9E11200F5
:10384C00FF0E966E96CF95FF95CF94FF94CF93FF76
:10385C0093CF92FF0F013C6B3CCF3BFF3BCF3AFF2A
:10386C003ACF39FF39CF38FF8D6A8DCF8CFF8CCF93
:10387C008BFF8BCF8AFF8ACF89FF89CF60FFC06A0D
:10388C00C0CFC1FFC1CFC2FF789E78BE02D0799E57
:10389C0001D0798EECDDE1DDA9DE330E01015C6F28
:1038AC00330E5D6F530E5E6F800E5F6FFFDE94DE26
:0A38BC00030E01015C6FA2DE120092
:0A38C600DCEC1CF0C0DFADDFFFD723
:1039B80010EE24F0D60E006E010E016ED00EF66EDB
:0E39C800380EF76E000EF86E1EEC1CF01200AA
:0A38D00025612025326625634300C0
:0938DA0025612020205B545D00F3
:0238E3002000C3
:0938E50052656164792E2E2E005B
:1038EE0000000000000000000000000000000000CA
:1038FE0000000000000000000000000000000000BA
:10390E0000000000000000000000000000000000A9
:10391E000000000000000000000000000000000099
:10392E000000000000000000000000000000000089
:02393E00000087
:0C3940002020202020414C41524D21004D
:01394C00007A
:01394D000079
:04394E0000003485BC
:013952000074
:013953001063
:013954001062
:0639550000000001014624
:0C395B000000000101460000348510103F
:0239670030002E
:04396900302E3000CC
:10396D00000000000000000000000000000000004A
:04397D000000000046
:103981000000000000000000000000000000000036
:043991000000000032
:04399500000000002E
:0C3999001F1C1F1E1F1E1F1F1E1F1E1FB5
:0139A5000021
:1039A600303132333435363738394142434445466F
:0139B6000010
:020000040030CA
:0D000100231F3CFFBD81FF0FC00FE00F402B
:00000001FF
