:0400000038EF0EF0D7
:020006001200E6
:1000080000C01FF001C01EF002C01DF004C01CF0AB
:1000180005C01BF008C01AF009C019F00AC018F092
:100028000BC017F00CC016F00DC015F0D9CF22F098
:10003800DACF23F0E1CF20F0E2CF21F0F2A405D00F
:10004800F2AA03D087EC0DF006D09EAA04D09DAA90
:1000580002D0EEEC0DF01FC000F01EC001F01DC074
:1000680002F01CC004F01BC005F01AC008F019C04B
:1000780009F018C00AF017C00BF016C00CF015C034
:100088000DF020C0E1FF21C0E2FF22C0D9FF23C04C
:04009800DAFF11007A
:10009C000450085E0550D8A0053C095E0650D8A057
:1000AC00063C0A5E0750D8A0073C0B5E0336070ED1
:1000BC000C6E0334083609360A360B36045003A08E
:1000CC000ED0085E0550D8A0053C095E0650D8A09D
:1000DC00063C0A5E0750D8A0073C0B5E0DD00826E4
:1000EC000550D8B0053C09260650D8B0063C0A2667
:1000FC000750D8B0073C0B2603360C2EDAD7023447
:10010C00083609360A360B36045003A00ED0085EAA
:10011C000550D8A0053C095E0650D8A0063C0A5EE6
:10012C000750D8A0073C0B5E0DD008260550D8B060
:10013C00053C09260650D8B0063C0A260750D8B014
:10014C00073C0B260236070E0C6E023408360936B5
:10015C000A360B36045002A00ED0085E0550D8A00B
:10016C00053C095E0650D8A0063C0A5E0750D8A094
:10017C00073C0B5E0DD008260550D8B0053C09266F
:10018C000650D8B0063C0A260750D8B0073C0B26C0
:10019C0002360C2EDAD70134083609360A360B36FD
:1001AC00045002A00ED0085E0550D8A0053C095E94
:1001BC000650D8A0063C0A5E0750D8A0073C0B5E40
:1001CC000DD008260550D8B0053C09260650D8B0ED
:1001DC00063C0A260750D8B0073C0B260136070E02
:1001EC000C6E0134083609360A360B36045001A061
:1001FC000ED0085E0550D8A0053C095E0650D8A06C
:10020C00063C0A5E0750D8A0073C0B5E0DD00826B2
:10021C000550D8B0053C09260650D8B0063C0A2635
:10022C000750D8B0073C0B2601360C2EDAD7003419
:10023C00083609360A360B36045001A00ED0085E7B
:10024C000550D8A0053C095E0650D8A0063C0A5EB5
:10025C000750D8A0073C0B5E0DD008260550D8B02F
:10026C00053C09260650D8B0063C0A260750D8B0E3
:10027C00073C0B260036070E0C6E00340836093688
:10028C000A360B36045000A00ED0085E0550D8A0DC
:10029C00053C095E0650D8A0063C0A5E0750D8A063
:1002AC00073C0B5E0DD008260550D8B0053C09263E
:1002BC000650D8B0063C0A260750D8B0073C0B268F
:1002CC0000360C2EDAD700B00ED00450082605509C
:1002DC00D8B0053C09260650D8B0063C0A26075073
:0802EC00D8B0073C0B261200FC
:1002F4000B1E0A1E091E081E082AD8B4092AD8B4DF
:080304000A2AD8B40B2A1200EA
:0A030C00210E0D6E0D2EFED712001B
:06031600000000001200CF
:10031C000F0E0C6E470E0D6E0D2EFED70C2EFCD74D
:06032C00000000001200B9
:0E033200026A016A006A086A036A000E12007D
:100340000450000A12E10550000A0FE10650000AAD
:100350000CE10750000A09E1FF0E006EFF0E016E6E
:10036000FF0E026E7F0E036E97D00C6A07BE0C2A3A
:100370000D6A0B6A0A6A096A086A035002100110C2
:100380000010D8B484D0035007180E6E0EBE0D1E98
:1003900007AE0BD0041E051E061E071E042AD8B485
:1003A000052AD8B4062AD8B4072A03AE0BD0001EFB
:1003B000011E021E031E002AD8B4012AD8B4022A44
:1003C000D8B4032A035007100E6E0EBE1CD066DE92
:1003D0000CBE36D00DAE5BD0001E011E021E031EE9
:1003E000002AD8B4012AD8B4022AD8B4032A081E95
:1003F000091E0A1E0B1E082AD8B4092AD8B40A2AD4
:10040000D8B40B2A44D007AE15D003BE0DD003508C
:100410000B6E02500A6E0150096E0050086E036A9E
:10042000026A016A006AD6D7036A026A016A006A30
:10043000002A000C031E021E011E001E0C8EC7D7D0
:10044000082AD8B4092AD8B40A2AD8B40B2A0450E6
:10045000085CD8A4BFD70550095CD8A4BBD7065008
:100460000A5CD8A4B7D707500B5CD8A4B3D70B6AE3
:100470000A6A096A086A002AD8B4012AD8B4022A8A
:10048000D8B4032A03AEA6D70E6A0E88FF0C0E6AF4
:0A0490000CA001D02FDF000F1200B6
:10049A0001011CBF02D08A9601D08A861CBD02D0F7
:1004AA008A9401D08A841CBB02D08A9201D08A82A3
:1004BA001CB902D08A9001D08A800001CCB102D046
:1004CA008A8801D08A988A8A21DF8A9A01011CB710
:1004DA0002D08A9601D08A861CB502D08A9401D0AD
:1004EA008A841CB302D08A9201D08A821CB102D0BB
:1004FA008A9001D08A800001CCB102D08A8801D0CA
:10050A008A988A8A03DF8A9ACCA102D002DF01D0B4
:04051A00F8DE1200F5
:08051E000AAE029E000E12005D
:100526000B840BAE9EEF02F0010E036E026A016AA7
:0A053600006A0A360232FF0E1200BE
:080540000B6A0B86FF0E12008E
:100548000E0E0101196F800E1619006E800E005CE8
:1005580008E1000E155D05E1000E145D02E1000ED4
:10056800135D03E2010E006E01D0006A00C018F1AD
:10057800005214E0006A016A026A036A1351005EBD
:100588001451015A1551025A1651035A00C013F159
:1005980001C014F102C015F103C016F1020E175D77
:1005A80009E31751100806E3135114111511161118
:1005B80001E005D0470E006E000E016E81D0185183
:1005C8001925006E016A000E0122004A012ACD0E8B
:1005D8000024E16E000E0120E26EE66A010113516B
:1005E80014111511161151E019534FE0185119251E
:1005F800006E016A000E0122CD0E00241A6F000E53
:1006080001201B6F17C104F0000E056E066E076E01
:1006180013C100F014C101F015C102F016C103F0B6
:100628008BDE08C000F009C001F00AC002F00BC060
:1006380003F0FF0E0024F66E1C0E0120F76E000E6C
:100648000220F86E0900F5CF00F01AC1E1FF1BC1C6
:10065800E2FF00C0E6FF0101190717C104F0000E10
:10066800056E066E076E13C100F014C101F015C1C6
:1006780002F016C103F060DE00C013F101C014F1EE
:1006880002C015F103C016F1A9D7010118530EE0F5
:100698001951010F006E016A000E0122CD0E0024CF
:1006A800E16E000E0120E26E2D0EE66E1951010F6B
:1006B800006E016A000E0122CD0E0026000E0122F6
:0206C80012001E
:1006CA000B820BAE6FEF03F00368026801680068E3
:0806DA000A360232FF0E120085
:0C06E2000E0E0D6E0D2EFED70000120053
:1006EE000C6A0E6A0250D8A490EF03F001C002F01B
:1006FE0000C001F0006A0E860250D8A490EF03F0FD
:10070E0001C002F0016A0E960E880250D8B4A2EF14
:10071E0003F00E50035ED8A4D8A0A7EF03F0D89034
:10072E0002BEACEF03F0003601360236032E97EF11
:10073E0003F0A7EF03F0010E0C6EF4DDAFEF03F044
:10074E00020E0C6EE9DEAFEF03F0040E0C6EE0DE6F
:02075E00120087
:0E0760000001CC9113C11CF198DECC81120077
:10076E000134083609360450085E0550D8A0053C01
:10077E00095E003601360F0E0C6E0134083609364E
:10078E00045000A006D0085E0550D8A0053C095EB6
:10079E0005D008260550D8B0053C0926003601368E
:1007AE000C2EEBD700B006D0045008260550D8B05A
:0807BE00053C092600001200B1
:1007C6000450000A08E10550000A05E1FF0E006E1C
:1007D6007F0E016E57D00D6A096A086A0150001033
:1007E600D8B4000C015005180A6E0ABE0D1E0B6A1D
:1007F60005AE05D0041E051E042AD8B4052A01AE8E
:1008060005D0001E011E002AD8B4012A0150051089
:100816000A6E0ABE10D0A8DF0BB020D00DAE000CB9
:10082600001E011E002AD8B4012A081E091E082A25
:10083600D8B4092A000C05AE0DD001BE07D0015070
:10084600096E0050086E016A006AE8D7016A006AFC
:10085600002A000C011E001E0B2ADDD7082AD8B478
:10086600092A0450085CD8A4D9D70550095CD8A435
:10087600D5D7096A086A002AD8B4012A01AECED7AC
:060886000000FF0C12004F
:10088C00086A080E0C6E003408360450085ED8B0A6
:0E089C0002D00826D89000360C2EF5D7120098
:1008AA0001010B6B0C6B0D6B0E6B0F6B106B116BED
:1008BA00126BF7C007F1F8C008F1F9C009F1FAC0E4
:1008CA000AF10AC100F0000E0ABFFF0E036E7F0E86
:1008DA00005C016E01C0FEF0FF0E0715016FFF0EEE
:1008EA000815026FFF0E0915036F000E0A15046F33
:1008FA00038F800E0118006E800E1F0A005C0FE243
:10090A00800E0001FE19006E800EE90A005C07E302
:10091A0001010751081109110A1101E005D09B0EC6
:10092A00006E000E016E9BD1800E0001FE19006E52
:10093A00800E170A005C1CE3170EFE5D006E000EA7
:10094A00FEBFFF0E016E000E015A01C10BF102C17A
:10095A000CF103C10DF104C10EF1005008E00101D0
:10096A000B370B910C370D370E37FF0FF7D771D0B6
:10097A00800E0001FE19006E800E000A005C41E341
:10098A00FE511708006E016A000EFEBFFF0E015AE3
:10099A0001C10BF102C10CF103C10DF104C10EF149
:1009AA0000500AE001010E330D330C330B330E9F56
:1009BA000EBD0E8FFF0FF5D70001FE51010F006E1D
:1009CA00016A000EFEBFFF0E012201C10FF102C132
:1009DA0010F103C111F104C112F1005008E0010144
:1009EA000F370F91103711371237FF0FF7D7010161
:1009FA00FF0E0F17FF0E1017FF0E1117000E12171A
:100A0A0028D00101FF0E01150F6FFF0E0215106F9E
:100A1A00FF0E0315116F000E0415126F0001FE512F
:100A2A00010F006E016A000EFEBFFF0E0122005088
:100A3A000008006E0150000E015600500AE0010144
:100A4A001233113310330F33129F12BD128FFF0F5F
:100A5A00F5D7BD0E0001FC6F000EFD6F010109AF55
:100A6A0009D0FCC0E1FFFDC0E2FF2D0EE66E0001D9
:100A7A00FC4BFD2B000E006E01010E1908E100501F
:100A8A000D1905E100500C1902E10B51000A0AE1A7
:100A9A00FCC0E1FFFDC0E2FF300EE66E0001FC4B38
:100AAA00FD2B27D00BC113F10CC114F10DC115F1A7
:100ABA000EC116F10A0E0101176F41DD00C005F1E2
:100ACA0001C006F105C1E9FF06C1EAFFEE5211E0D5
:100ADA0005C1E9FF06C1EAFFFCC0E1FFFDC0E2FF74
:100AEA00EECFE6FF0001FC4BFD2B0101054B062B67
:100AFA00E9D7FCC0E1FFFDC0E2FF2E0EE66E000161
:100B0A00FC4BFD2B000E006E0101121908E100508A
:100B1A00111905E10050101902E10F51000A0AE10A
:100B2A00FCC0E1FFFDC0E2FF300EE66E0001FC4BA7
:100B3A00FD2B8CD00001FB5305E0FBC002F0000E38
:100B4A00036E0ED0BD0EFC5D006E000EFD59016EE7
:100B5A0000500F08006E000600C002F0000E036E7F
:100B6A0002C000F10250070803E2070E0101006FFC
:100B7A000001FF6B010100510001FF5D4CE2030E11
:100B8A00006E0FC105F010C106F011C107F012C1C5
:100B9A0008F0005007E00536059006360736083695
:100BAA00FF0FF8D70FC100F010C101F011C102F018
:100BBA0012C103F0003600900136023603360050A7
:100BCA00052601500622025007220350082205C0BA
:100BDA000FF106C010F107C011F108C012F108C0E8
:100BEA0000F0000E08BEFF0E036E300E0026FCC099
:100BFA00E1FFFDC0E2FF00C0E6FFFC4BFD2BFF0E4C
:100C0A0001010F17FF0E1017FF0E1117000E121712
:100C1A000001FF2BAFD7010EFC5F000EFD5BFCC08D
:100C2A00E9FFFDC0EAFFEE50300A0EE1FF0EFC2597
:100C3A00E96EFF0EFD21EA6EEE502E0A05E0010E66
:100C4A00FC5F000EFD5BEBD7FC4BFD2BFCC0E1FF0C
:100C5A00FDC0E2FFE66ABD0E006E000E016E1200D4
:100C6A000050086E0150006E016A026A036A0B6A3C
:100C7A000C6A960E036E0A6A00C001F008C000F002
:080C8A00086A026A2FDD120066
:100C9200F7C0E9FFF8C0EAFFEE500001F91905E1DB
:100CA200F7C000F0F8C001F010D0F7C000F0F8C0B3
:100CB20001F0F74BF82B00C0E9FF01C0EAFFEECFCD
:0C0CC20000F00052E5E1006A016A120037
:100CCE00C30EC216F7C000F000360090003600903A
:100CDE000050C212FFDCC282C2A201D0FDD7C4CF27
:0E0CEE0001F0006AC3500012000E0112120045
:100CFC00FBC000F00001FB07005228E0F7C0E9FF41
:100D0C00F8C0EAFFEE50000A0CE0F7C0E9FFF8C0AB
:100D1C00EAFFF9C0D9FFFAC0DAFFEE50DE1801E1A4
:100D2C000FD0F7C0E9FFF8C0EAFFF9C0D9FFFAC04D
:100D3C00DAFFDE50EE5C006E016A000E015A08D03C
:100D4C000001F74BF82BF94BFA2BD2D7006A016A4A
:020D5C00120083
:100D5E000001F96BF951F725E96E000EF821EA6EE4
:100D6E00EE520BE0F951F725E96E000EF821EA6E0E
:0C0D7E00EECF13F1EEDCF92BEDD71200E4
:100D8A00F7C002F0F8C003F002C000F003C001F09F
:100D9A00024A032A00C0E9FF01C0EAFFEE5201E05D
:100DAA00F3D70001F751025C006EF8510358016E47
:0A0DBA00010E005E000E015A120047
:100DC4000450000A12E10550000A0FE10650000A1F
:100DD4000CE10750000A09E1FF0E006EFF0E016EE0
:100DE4007F0E026EFF0E036EA8D0086A096A0750D0
:100DF400D8B48DEF07F00350D8B492EF07F0025047
:100E040006180A6E028E068E0E6A02C008F001C031
:100E14000CF000C00DF004500D5E0550D8A0053C48
:100E24000C5E0650D8A0063C085E086A0C6A0D6A7F
:100E3400D8A024EF07F0D8900232013200320832F1
:100E4400010E0E6E0750035ED8A031EF07F07E0E40
:100E54000E240326D8B097EF07F037EF07F07E0E85
:100E64000E240326D8A09CEF07F0180E0B6E0D3647
:100E74000C3608360036013602360E360450005E53
:100E84000550D8A0053C015E0650D8A0063C025E81
:100E940006340E120EA052EF07F00D805DEF07F03E
:100EA400045000260550D8B0053C01260650D8B0A1
:100EB400062802260D900B2E39EF07F083EF07F07A
:100EC400D8900036013602360E360450005E0550C6
:100ED400D8A0053C015E0650D8A0063C025E06344C
:100EE4000E10010B0D26D8B00C2AD8B4082AD8A4A9
:100EF40083EF07F008320C320D32032AD8B497EF8F
:100F040007F00AAE089E0850026E0C50016E0D5098
:100F1400006E9FEF07F0010EA0EC02F09FEF07F0C8
:100F2400020E99EC01F09FEF07F0040E65EC03F05C
:0C0F34009FEF07F0080E93EC02F0120093
:100F4000086A096A000E0762036425EF08F0025080
:100F500006180A6E075003267E0ED8A0B6EF07F0DB
:100F6000035ED8B02AEF08F0BAEF07F0035ED8A00E
:100F70002FEF08F0028E068E02C00EF001C00BF0BB
:100F800000C00DF000500402F4CF0CF00150050237
:100F9000F4CF00F0F3CF08F00402F3500C26F45025
:100FA0000822000E00220D500502F3500C26F450CA
:100FB0000822000E002202500402F3500826F450CA
:100FC000002202500502016A000E0122F3500026A1
:100FD000F45001220D500602F3500826F45000226E
:100FE000026A000E012202220B500602F350002674
:100FF000F4500122000E02220E500602F350012688
:10100000F450022202BE0DEF08F008360036013619
:1010100002360306D8B42FEF08F020EF08F0D8808E
:10102000800E08640030000E002201220222D8A0A7
:1010300020EF08F0023201320032034A2AEF08F0B2
:101040000AAE029E000E32EF08F0010E99EC01F09C
:1010500032EF08F0020E65EC03F032EF08F0040EF8
:0610600093EC02F0120007
:10106600060E0001F76F30DEFDDD9FC004F0A0C064
:1010760005F0A1C006F0A2C007F05FDF0A0E046EFD
:10108600D70E056E230E066E820E076E98DE1200D0
:0A109600A30E006E000E016E1200A2
:1010A000020E0001EA5D06E2800E01011C6F4DECAC
:1010B00002F005D0C00E01011C6F4DEC02F0ED0EE8
:1010C000F56F000EF66FEBC000F0ECC001F0EB4BDB
:1010D000EC2B00C0E9FF01C0EAFFEECF00F000C03A
:1010E000F4F00052D8B435D1F451250AD8A42CD14B
:1010F000EBC0E9FFECC0EAFFEECFF4F0EB4BEC2BDA
:1011000009D1F5C0E9FFF6C0EAFFEECFF7F0EECF68
:10111000F8F025DE020EF527000EF62314D1F5C0F7
:10112000E9FFF6C0EAFFEECF13F1B0EC03F0F54BA8
:10113000F62B09D1F5C0E9FFF6C0EAFFEECF13F1B7
:10114000000E010116BFFF0E146F156F166F000E13
:1011500013BFFF0E146F156F166F0A0E176FA4ECF6
:1011600002F000C0F7F001C0F8F0F9DDF54BF62B06
:10117000EAD0F5C0E9FFF6C0EAFFEECF13F1EECFFB
:1011800014F1000E010116BFFF0E156F166F000E51
:1011900014BFFF0E156F166F0A0E176FA4EC02F046
:1011A00000C0F7F001C0F8F0DADD020EF527000EFE
:1011B000F623C9D0F5C0E9FFF6C0EAFFEECF13F180
:1011C000EECF14F1EECF15F1EECF16F10A0E0101BC
:1011D000176FA4EC02F000C0F7F001C0F8F0BFDD1B
:1011E000040EF527000EF623AED0EBC0E9FFECC0ED
:1011F000EAFFEECFF4F0EB4BEC2B53D0F5C0E9FF58
:10120000F6C0EAFFEECF13F1000E0101146F156F67
:10121000166F000E146F156F166F0A0E176FA4EC81
:1012200002F000C0F7F001C0F8F099DDF54BF62BA5
:1012300041D0F5C0E9FFF6C0EAFFEECF13F1EECFE3
:1012400014F1000E0101156F166F000E156F166F69
:101250000A0E176FA4EC02F000C0F7F001C0F8F01E
:101260007EDD020EF527000EF62324D0F5C0E9FF3F
:10127000F6C0EAFFEECF13F1EECF14F1EECF15F189
:10128000EECF16F10A0E0101176FA4EC02F000C0B8
:10129000F7F001C0F8F063DD040EF527000EF62329
:1012A00009D0F451730AAAE0F451690AC2E0F4517A
:1012B0006C0ADCE048D0300EF45D27E3F4513908C5
:1012C00024E3EBC0E9FFECC0EAFFEE50660A1DE143
:1012D000F5C0E9FFF6C0EAFFEECFF7F0EECFF8F089
:1012E000EECFF9F0EECFFAF0300EF45DFB6F55EC77
:1012F00004F000C0F7F001C0F8F031DD040EF5276E
:10130000000EF623EB4BEC2B04D0F4C013F1B0EC41
:1013100003F019D0F451610AD8B4F3D6F451630A3A
:10132000D8B4FDD6F451730AD8B404D7F451690A7D
:10133000D8B41FD7F4516C0AD8B43CD7F451750A0D
:10134000D8B453D7B8D704D0F4C013F1B0EC03F03D
:04135000BAD61200F7
:101354000001EC6BA90EED6F000EEE6FEC51ED2762
:10136400D8B0EE2B050EEA25D96E000EEB21DA6E0D
:101374006C0E006E070E016EDE500026D8B0012AF6
:10138400E80E046E030E056EE3EC03F0300E002647
:10139400EDC0E1FFEEC0E2FF00C0E6FF0001EC2B70
:1013A400A90EED6F000EEE6FEC51ED27D8B0EE2BC9
:1013B400050EEA25D96E000EEB21DA6E6C0E006E76
:1013C400070E016EDE500026D8B0012AE80E046E26
:1013D400030E056EE3EC03F008C000F009C001F051
:1013E400640E046E000E056EE3EC03F0300E00266E
:1013F400EDC0E1FFEEC0E2FF00C0E6FF0001EC2B10
:10140400A90EED6F000EEE6FEC51ED27D8B0EE2B68
:10141400050EEA25D96E000EEB21DA6E6C0E006E15
:10142400070E016EDE500026D8B0012A640E046E49
:10143400000E056EE3EC03F008C000F009C001F0F3
:101444000A0E046E000E056EE3EC03F0300E002667
:10145400EDC0E1FFEEC0E2FF00C0E6FF0001EC2BAF
:10146400A90EED6F000EEE6FEC51ED27D8B0EE2B08
:10147400050EEA25D96E000EEB21DA6E6C0E006EB5
:10148400070E016EDE500026D8B0012A0A0E046E43
:10149400000E056EE3EC03F008C000F009C001F093
:1014A400300E0026EDC0E1FFEEC0E2FF00C0E6FF13
:1014B4000001EC2BA90EE16E000EE26EEC51E12668
:1014C400D8B0E22A2D0EE66EEC2BA90EED6F000EBD
:1014D400EE6FEC51ED27D8B0EE2B040EEA25E96E41
:1014E400000EEB21EA6EEECF00F00A0E046E46EC1D
:1014F40004F0300E0026EDC0E1FFEEC0E2FF00C0B4
:10150400E6FFEC2BA90EED6F000EEE6FEC51ED270C
:10151400D8B0EE2B040EEA25E96E000EEB21EA6E3C
:10152400EECF00F00A0E046E46EC04F008C000F0A2
:10153400300E0026EDC0E1FFEEC0E2FF00C0E6FF82
:10154400EC2BA90EE16E000EE26EEC51E126D8B050
:10155400E22A2D0EE66EEC2BA90EED6F000EEE6F57
:10156400EC51ED27D8B0EE2B030EEA25E96E000E00
:10157400EB21EA6EEECF00F00A0E046E46EC04F0A6
:10158400300E0026EDC0E1FFEEC0E2FF00C0E6FF32
:10159400EC2BA90EED6F000EEE6FEC51ED27D8B0D9
:1015A400EE2B030EEA25E96E000EEB21EA6EEECF78
:1015B40000F00A0E046E46EC04F008C000F0300E91
:1015C4000026EDC0E1FFEEC0E2FF00C0E6FFEC2B19
:1015D400A90EE16E000EE26EEC51E126D8B0E22ACB
:1015E400200EE66EEC2BA90EED6F000EEE6FEC51A3
:1015F400ED27D8B0EE2B020EEA25E96E000EEB21A2
:10160400EA6EEECF00F00A0E046E46EC04F0300EE3
:101614000026EDC0E1FFEEC0E2FF00C0E6FFEC2BC8
:10162400A90EED6F000EEE6FEC51ED27D8B0EE2B46
:10163400020EEA25E96E000EEB21EA6EEECF00F011
:101644000A0E046E46EC04F008C000F0300E0026CA
:10165400EDC0E1FFEEC0E2FF00C0E6FFEC2BA90EF7
:10166400E16E000EE26EEC51E126D8B0E22A3A0EA9
:10167400E66EEC2BA90EED6F000EEE6FEC51ED272C
:10168400D8B0EE2B010EEA25E96E000EEB21EA6ECE
:10169400EECF00F00A0E046E46EC04F0300E002685
:1016A400EDC0E1FFEEC0E2FF00C0E6FFEC2BA90EA7
:1016B400ED6F000EEE6FEC51ED27D8B0EE2B010E5E
:1016C400EA25E96E000EEB21EA6EEECF00F00A0E79
:1016D400046E46EC04F008C000F0300E0026EDC0A5
:1016E400E1FFEEC0E2FF00C0E6FFEC2BA90EE16EC5
:1016F400000EE26EEC51E126D8B0E22A3A0EE66E14
:10170400EC2BA90EED6F000EEE6FEC51ED27D8B067
:10171400EE2BEAC0E9FFEBC0EAFFEECF00F00A0EC1
:10172400046E46EC04F0300E0026EDC0E1FFEEC07E
:10173400E2FF00C0E6FFEC2BA90EED6F000EEE6F8A
:10174400EC51ED27D8B0EE2BEAC0E9FFEBC0EAFF7D
:10175400EECF00F00A0E046E46EC04F008C000F070
:10176400300E0026EDC0E1FFEEC0E2FF00C0E6FF50
:10177400EC2BA90EE16E000EE26EEC51E126D8B01E
:10178400E22AE66AEC2BA90E006E000E016E12002E
:10179400000E0001EB1902E1000EEA1937E0EAC07D
:1017A400E9FFEBC0EAFFEE5231E0ECC0F7F0EDC028
:1017B400F8F0C5EC06F000C0FBF0EAC0F7F0EBC0AF
:1017C400F8F0ECC0F9F0EDC0FAF07EEC06F0000E93
:1017D400011802E1000E001805E1EAC000F0EBC0B8
:1017E40001F016D0010E0001EA25F76F000EEB217F
:1017F400F86FECC0E9FFEDC0EAFFEECFF9F049EC79
:1018040006F000C0EAF001C0EBF0C2D7006A016A3A
:021814001200C0
:101816003FDC00C0EAF001C0EBF099DD00C0E6F065
:1018260001C0E7F000C0EAF001C0EBF0300EEC6F4B
:10183600000EED6FACDF00C0E8F001C0E9F000C0BB
:10184600E1FF01C0E2FFE66A0001E84BE92B010E69
:10185600EA6F320EEB6F000EEC6FE6C0EDF0E7C0FC
:10186600EEF01BDC33EC08F000C0EFF001C0F0F046
:1018760002C0F1F003C0F2F0020E0001EA6F3B0E67
:10188600EB6F000EEC6FE8C0EDF0E9C0EEF0DF0E96
:06189600F36F03DC1200F9
:10189C00939A939893909392939493968A9A8A9806
:1018AC008A968A948A928A908EEC01F08EEC01F0E2
:1018BC008EEC01F08A828A808A8A8BEC01F08A9AFB
:1018CC008EEC01F08A8A8BEC01F08A9A8EEC01F096
:1018DC008A8A8BEC01F08A9A8EEC01F08A908A8AC3
:1018EC008BEC01F08A9A8EEC01F08A8A8BEC01F079
:1018FC008A9A8A928A868A8A8BEC01F08A9A8EEC72
:10190C0001F08A968A808A8A8BEC01F08A9A8A90F6
:10191C008A8A8BEC01F08A9A8EEC01F08A8A8BEC25
:10192C0001F08A9A8A808A8A8BEC01F08A9A8EEC72
:10193C0001F08A908A8A8BEC01F08A9A8A868A84D2
:10194C008A828A808A8A8BEC01F08A9A8EEC01F06A
:06195C000001CC81120025
:10196200CE0E0001DE6F0C0EDF6FF70EE06F000E81
:0E197200E16FC26A070EC012C08EC280120062
:10198000F250026EF29E0500FF6A0150FE6E00509A
:08199000FD6E02BEF28E120092
:1019980081DF010E01011C6F4DEC02F00C0E0101FC
:0819A8001C6F4DEC02F012006F
:1019B00049C000F0000E016E00360090013600367E
:1019C000009001364B0E0024E16E000E0120E26E05
:1019D0001DC1E6FF1EC1E6FF1FC1E6FF20C1E6FFF5
:1019E0004950010F006E016A000E0122140E046EB0
:1019F000000E056EE3EC03F008C000F009C001F032
:101A000000C049F000504A1812E14A50010F006E20
:101A1000016A000E0122140E046E000E056EE3EC46
:101A200003F008C000F009C001F000C04AF0120045
:101A30004A50491801E154D04AC000F0000E016E2E
:101A40000036009001360036009001364B0E00241F
:101A5000E96E000E0120EA6EEE50EE10EE10EE1070
:101A60002DE04AC000F0000E016E003600900136F5
:101A70000036009001364B0E0024E96E000E012066
:101A8000EA6EEECF00F0EECF01F0EECF02F0EECF37
:101A900003F076DF4AC000F0000E016E00360090C1
:101AA00001360036009001364B0E0024E16E000E28
:101AB0000120E26EE66AE66AE66AE66A4A50010FCB
:101AC000006E016A000E0122140E046E000E056EF7
:101AD000E3EC03F008C000F009C001F000C04AF0D8
:021AE0001200F2
:101AE200840ED56E0B0ED76EDC0ED66EF28A120005
:101AF200020E0F013C6F968233DFE2C09FF0E3C01B
:0C1B0200A0F0E4C0A1F0E5C0A2F01200C9
:101B0E000001A351010F006E00C0A3F0A3513B08CA
:101B1E004EE2A36BA451010F006E00C0A4F0A451BD
:101B2E003B083BE2A46BA551010F006E00C0A5F06F
:101B3E00A551170832E2A56BA651010F006E00C029
:101B4E00A6F0A705006E016A000E015A240E0024AD
:101B5E00D96E000E0120DA6EA651DE5C1EE2010E79
:101B6E00A66FA751010F006E00C0A7F0A7510C0879
:101B7E0014E2010EA76FA851010F006E00C0A8F06D
:101B8E00A85303E0010E006E01D0006A005203E17B
:101B9E001D0E256E02D01C0E256E060E01011D6F48
:101BAE00000E1E6F000E1F6F000E206FFADE160E57
:101BBE0001011D6F180E1E6F000E1F6F000E206F9D
:0E1BCE00F0DE0B0ED76EDC0ED66EF294120017
:041BDC009E9A1200BB
:101BE000D09EF28EF2BE02D0F29C01D0F28C20DFA9
:041BF000FED712000A
:101BF4000900F5CFE6FF0006FBE10106F9E112005A
:101C0400FF0E966E96CF95FF95CF94FF94CF93FFDA
:101C140093CF92FF0F013C6B3CCF3BFF3BCF3AFF8E
:101C24003ACF39FF39CF38FF8D6A8DCF8CFF8CCFF7
:101C34008BFF8BCF8AFF8ACF89FF89CF60FFC06A71
:101C4400C0CFC1FFC1CFC2FF789E78BE02D0799EBB
:101C540001D0798E44DF9EDE330EE26F330EE36FE4
:0C1C6400530EE46F800EE56F42DF1200AB
:0A1C700088EC0EF0C7DFB4DFFFD7E9
:101D100010EE24F0850E006E010E016E7A0EF66E46
:0E1D20001C0EF76E000EF86EFAEC0DF01200BD
:0C1C7A001F1C1F1E1F1E1F1F1E1F1E1FF1
:021C860020003C
:091C880025612020205B545D0061
:0C1C9100256120253266256343202000D9
:021C9D00300015
:101C9F000000000000000000000000000000000035
:101CAF000000000000000000000000000000000025
:101CBF000000000000000000000000000000000015
:101CCF000000000000000000000000000000000005
:101CDF0000000000000000000000000000000000F5
:021CEF000000F3
:041CF100302E300061
:041CF50000000000EB
:061CF9000000000101469D
:101CFF003031323334353637383941424344454633
:011D0F0000D3
:020000040030CA
:0D000100231F3CFFBD81FF0FC00FE00F402B
:00000001FF
